:100000000C94F6000C941E010C941E010C941E011D
:100010000C941E010C941E010C941E010C941E01E4
:100020000C941E010C941E010C941E010C941E01D4
:100030000C941E010C941E010C941E010C941E01C4
:100040000C943E0D0C941E010C94C0100C94F210F4
:100050000C941E010C941E010C941E010C941E01A4
:100060000C941E010C941E0168076B076E07710744
:10007000740777077A077D07800783078607890754
:100080008F078C079207B507BD07C707D407D707A7
:10009000E107EB07EE07F107F407F707FA07270078
:1000A000240020001C001900150012000E00100092
:1000B000130017001A001E002100250028000D0063
:1000C0000B000A0008002B002C002E002F0011004E
:1000D000140018001B001F00220026002900090040
:1000E0000C000F0016001D0023002A002D00000048
:1000F0000100020003000400050006000700E916E5
:10010000D516C116AD169916851671165D166516AB
:1001100078168B169E16B116C416D716EA1649160F
:10012000351621160D16FD161117251739176C16E1
:1001300080169416A816BC16D016E416F8161A16D1
:100140003F1664168916AE16D316F8161D17F2144C
:1001500017153C1561158615AB15D015F515282911
:100160002A2B2C2D2E2F13201211211007220818B4
:1001700006091905230A1A040B1B03240C1C020D83
:100180001D25010E1E000F1F26141527161700002F
:100190000008000201000003040700000000000046
:1001A0000000010204081020408001020408102011
:1001B00001020408102004040404040404040202DC
:1001C00002020202030303030303000000002300F2
:1001D0002600290000000000250028002B00000058
:1001E0000000240027002A00C603221111241FBE8C
:1001F000CFEFD8E0DEBFCDBF13E0A0E0B1E0E6E690
:10020000F7E202C005900D92A439B107D9F724E0B6
:10021000A4E9B3E001C01D92AE39B207E1F711E0E5
:10022000CCEED1E004C02297FE010E945B13C83ED1
:10023000D107C9F70E948E110C94B1130C940000E1
:100240006115710581F0DB010D900020E9F7AD012A
:1002500041505109461B570BDC01ED91FC91028086
:10026000F381E02D099480E090E00895DC01ED91A8
:10027000FC910190F081E02D0994E82FF0E0E25A22
:10028000FE4FE491F0E0EE0FFF1FE250FF4F85912B
:1002900094910895E82FF0E0EE0FFF1FE256FF4F14
:1002A00085919491089581E08093CF0395E0909398
:1002B000D0031092D10390E89093D2038093D3039C
:1002C0008093D4031092D5038093D6038093D703F1
:1002D0008093D8038093D9038093DA038093DB0360
:1002E00008950F931F93CF93DF936091F60380E0FF
:1002F00090E00E9493130FEC13E0C0E0D0E0F8010F
:1003000061918F012196CE010E949313CD30D105CA
:10031000B1F760EF8EE090E0DF91CF911F910F91E8
:100320000C9493130F931F93CF93DF938EE090E081
:100330000E948B13803FA9F480E090E00E948B1311
:100340008093F6030FEC13E0C1E0D0E0CE010E94F1
:100350008B13F80181938F012196CE30D105B1F72F
:1003600002C080E001C081E0DF91CF911F910F9129
:1003700008950F931F93CF93DF93082F0E94490F87
:100380000197D1F1C0E0D0E0802F0E94490F892B66
:1003900041F4219665E070E080E090E00E94B70DA6
:1003A000F3CF9E01205531092C3D310528F0CC3288
:1003B000D14020F411E003C013E001C014E08091AB
:1003C000CE03811103C0C0E0D0E010C01092CE0374
:1003D0001130C9F785E021C02196C932D105A9F0B5
:1003E00065E070E080E090E00E94B70D802F0E94F1
:1003F000490F019719F4F0CF80E00FC0A89728F4B7
:10040000802F0E94490F892B11F0812F06C0802F69
:100410000E94490F892BD9F382E0DF91CF911F9180
:100420000F9108958F3230F08091DB03882321F003
:1004300080E008958F5F089588E008950E94120279
:10044000E82FF0E0E956FC4F90819F3FB9F3089503
:10045000803380F4482F50E09091DB03992319F00A
:1004600020E030E002C028E030E04217530711F0EE
:10047000815008958FE208950E942802E82FF0E04D
:10048000E956FC4F90819F3FB9F30895EF92FF9298
:100490000F931F93CF93DF938C018091DB03811126
:1004A00003C028E0E22E01C0E12CFE2CCCE2D1E01A
:1004B0008F2D0E943D01801B910B1816190634F4F4
:1004C0008F2D0E943D01801B910B07C08F2D0E9434
:1004D0003D019801281B390BC9018C179D0714F0A9
:1004E000CE0101C0EF2CF3943FE23F1510F0EC0178
:1004F000DFCF8E2DDF91CF911F910F91FF90EF9065
:1005000008950F931F93CF93DF93082F10E2C0E05D
:10051000D0E0802F0E94350EC80FD91F1150C9F7A7
:10052000CE0135E0969587953A95E1F7DF91CF9129
:100530001F910F910895DB01E82FF0E0E25AFE4F82
:10054000E491E83010F481E611C0E03110F482E665
:100550000DC0E83110F485E609C0E03210F486E6FB
:1005600005C0E83210F482E701C08CE68C93E77096
:10057000EF5C1196EC93119712961C921297CD0195
:1005800008951F93CF93DF93EB01E82FF0E0E25A39
:10059000FE4F1491183018F462E071E016C010316B
:1005A00018F46BE071E011C0183118F464E171E0E7
:1005B0000CC0103218F461E271E007C0183218F470
:1005C0006BE271E002C065E371E0CE010E945F134F
:1005D000DE010D900020E9F71197AC1BBD0BCE0199
:1005E0008A0F911DDC0117701F5C1C9311961C92E1
:1005F000CE01DF91CF911F9108958FE00E9481027B
:100600002091D20330E02A573140280F391FC90109
:1006100065E070E00E942313CB01C29608951F93FA
:10062000CF93DF9313E0C1E0D0E0BE010090D00390
:1006300002C0660F771F0A94E2F786E00E94520E0E
:1006400068EC70E080E090E00E94B70D60E070E040
:1006500086E00E94520E68EB7BE080E090E00E9412
:10066000B70D115011F713E0C1E0D0E0BE010090CA
:10067000D00302C0660F771F0A94E2F786E00E945B
:10068000520E64E670E080E090E00E94B70D60E0FA
:1006900070E086E00E94520E68EE73E080E090E029
:1006A0000E94B70D115011F713E0C1E0D0E0BE0178
:1006B0000090D00302C0660F771F0A94E2F786E02D
:1006C0000E94520E62E370E080E090E00E94B70D5D
:1006D00060E070E086E00E94520E68EC70E080E01E
:1006E00090E00E94B70D115011F760E070E086E0D5
:1006F000DF91CF911F910C94520E0F931F93CF93C4
:10070000DF93CDB7DEB761970FB6F894DEBF0FBEAB
:10071000CDBF4AE08E010F5F1F4FB8010E946613E4
:1007200081E094E00E94B110F80101900020E9F707
:100730003197E01BF10B8E179F0790F3B80181E012
:1007400094E00E94200161960FB6F894DEBF0FBEC0
:10075000CDBFDF91CF911F910F910895CF93DF937C
:10076000EC0181E094E00E94B110FE0101900020B4
:10077000E9F73197EC1BFD0B8E179F0790F3BE0135
:1007800081E094E0DF91CF910C94200124E030E0EF
:1007900043E050E062E070E087EC93E00C94530C8F
:1007A000CF93C82F81E094E00E94B1100297D4F358
:1007B0006FEF70E081E094E00E9436016C2F81E0E1
:1007C00094E0CF910C94F00FCF92DF92EF92FF92D2
:1007D0000F931F93CF93DF938C0186E00E94D00389
:1007E000E8012A96C0FF21968E014CE3D42EE12C1D
:1007F000F12C8091DB03811108C0053387E11807D4
:1008000008F049C085E090E007C0003387E1180791
:1008100008F044C08AE090E0080F191FB80187EC87
:1008200093E00E94EA0C69E170E080E090E00E94B1
:10083000B70D84E10E948102E816F90610F4E80180
:100840007C01DA9451F48E01045111096E0184E1A6
:10085000C80ED11CE12CF12C0BC08A3F910548F247
:10086000F2CFE8010E5F1F4F0C151D05D1F07C0182
:10087000B80187EC93E00E94EA0C69E170E080E047
:1008800090E00E94B70D84E10E948102E816F9060B
:1008900040F3C701E7CF0DE016E1C0CF01EE14E150
:1008A000BDCF85E00E94D003BE0187EC93E00E949B
:1008B000EA0CCE01DF91CF911F910F91FF90EF9045
:1008C000DF90CF900895CF93DF93D82FC62F81E08C
:1008D00094E00E94B1100397D4F36FEF70E081E0D1
:1008E00094E00E9436016D2F81E094E00E94F00FA9
:1008F0006C2F81E094E0DF91CF910C94F00FCF93B7
:10090000DF931F92CDB7DEB7682F81E094E0698353
:100910000E94B1106981892BC1F381E094E00F90AE
:10092000DF91CF910C94F00FCF93DF93D82FC62F88
:10093000682F8EE00E9463046C2F8FE00E94630496
:1009400089E00E94D00380E80E947F0481E80E9431
:100950007F0482E80E947F0483E80E947F0484E889
:100960000E947F0485E80E947F0486E80E947F043D
:1009700087E80E947F046D2F8EE00E94630461E08F
:100980006C0F8FE00E94630488E80E947F0489E86E
:100990000E947F048AE80E947F048BE80E947F0403
:1009A0008CE80E947F048DE80E947F048EE80E94FC
:1009B0007F048FE80E947F048AE0DF91CF910C943E
:1009C000D003CF93DF9360E08EE00E9463046BE07E
:1009D0008FE00E946304CEE1D0E088E10E947F04B2
:1009E0002197D9F760E08EE00E9463046CE08FE00D
:1009F0000E9463048091DB03882319F08FE391E068
:100A000002C08BE591E0DF91CF910C94AE03AF92E1
:100A1000BF92CF92DF92EF92FF920F931F93CF93EB
:100A2000DF93E82EB62EC42EC0E0D0E0F12C5BE0C0
:100A3000A52E609196038EE00E946304DA2CDF18E5
:100A40006D2D8FE00E9463042091950330E08E01AC
:100A50000E5F1F4FE0919403F0E071E0E017F107A3
:100A60000CF470E051E0C217D3070CF050E091E0B5
:100A7000CE17DF070CF090E02017310744F0772302
:100A800071F0552321F1992311F187E125C07723D6
:100A900061F05523C1F09923D1F086E11DC05523A3
:100AA000B1F0992371F085E117C0552321F0992306
:100AB00031F084E111C0992351F082E10DC080E151
:100AC0000BC081E109C0992311F083E105C0F11049
:100AD00002C088E101C080E20E947F046E2D8EE09A
:100AE0000E9463046D2D8FE00E946304F11002C028
:100AF0008FE001C080E20E947F04F3948CE0F8163E
:100B000011F0E80196CFE0929603B0929503C0925F
:100B10009403DF91CF911F910F91FF90EF90DF90A1
:100B2000CF90BF90AF9008958F929F92AF92BF9257
:100B3000CF92DF92EF92FF920F931F93CF93DF93A9
:100B40006C010E94E10486E00E94D003CC2DDD2DD3
:100B500004E110E069E3E62E67E1F62E7DE1972ED1
:100B600085E00E94B90181114AC0812C2091DB03EC
:100B7000222319F08AE090E002C085E090E0C80FDF
:100B8000D91FCA3387E1D80738F0222319F0C1EE04
:100B9000D4E102C0CDE0D6E1BE0187EC93E00E9433
:100BA000EA0C69E170E080E090E00E94B70D84E11A
:100BB0000E9481028C589109B8010E942313811070
:100BC00002C0B62E01C0A62E839492E08912CECF29
:100BD000C7018C1B9D0B2091DB03222319F064E1DC
:100BE00070E002C06AE070E00E942313862F4A2D55
:100BF0006B2D992D981B892F0E940705B1CF8E016F
:100C0000045111096496E12CF12CB80187EC93E0B2
:100C10000E94EA0C69E170E080E090E00E94B70D6C
:100C200084E10E948102E816F90610F0C70101C0B4
:100C300068010E5F1F4F0C171D0711F07C01E5CFF7
:100C400085E00E94D003B60187EC93E00E94EA0C95
:100C5000C601DF91CF911F910F91FF90EF90DF9030
:100C6000CF90BF90AF909F908F9008951F93CF9398
:100C7000DF93162FC42FD22F682F8EE00E946304BB
:100C8000612F8FE00E946304C83510F081E00DC031
:100C9000CF3310F082E009C0C63210F083E005C007
:100CA000CD3010F084E001C085E00E947F04DD2398
:100CB00079F08FE293E00E94AE038C2F90E00E94C7
:100CC0007D0387E791E0DF91CF911F910C94AE03F4
:100CD000DF91CF911F9108958F929F92AF92BF9213
:100CE000CF92DF92EF92FF921F93CF93DF93C82FA3
:100CF000D62F142F8091D103882339F0A4E58A2EB2
:100D0000912CB4E4AB2EB12C06C0EEE78E2E912CC4
:100D1000F6E6AF2EB12C0E94FD028815990508F069
:100D200049C0A816B90610F5BC016A197B0980E014
:100D300090E00E9432126B017C01B4016A197B09B8
:100D400080E090E00E9432129B01AC01C701B60125
:100D50000E949E1120E030E048EC52E40E94C01254
:100D60000E940612462F653010F00AC040E082E370
:100D700090E09093DF038093DE0388EC90E00AC05C
:100D80006F3068F484E690E09093DF038093DE0395
:100D900088EE93E09093DD038093DC0314C0693107
:100DA00050F488EC90E09093DF038093DE0388EBAF
:100DB0009BE0F0CF43E61092DF031092DE03109227
:100DC000DD031092DC03212F6D2F8C2FDF91CF914B
:100DD0001F91FF90EF90DF90CF90BF90AF909F90CA
:100DE0008F900C94360660E081E00E9494046AE0E3
:100DF0008EE00E94630460E08FE00E94630489E754
:100E000091E00E94AE036AE08EE00E94630461E01C
:100E10008FE00E94630484E891E00E94AE0340E00A
:100E200060E089E10C946C066F927F928F929F92A2
:100E3000AF92BF92CF92DF92EF92FF920F931F93E8
:100E4000CF93DF9300D0CDB7DEB7982E862E0E94C9
:100E5000FD0289839A830E94F30689819A819920F1
:100E600021F0BB24BA94B90C02C02FE0B22E6AE084
:100E700070E00E9423133B018C0183E0A82E6A2DB1
:100E80008FE00E94630460E08EE00E9463048FE0C4
:100E90008B1508F4B12CB91007C0811005C08BE088
:100EA0000E94D00389E004C08CE00E94D0038AE055
:100EB0000E94D003CB2CD12CF6013197EF30F105F5
:100EC00020F4EC5CFF4F0C94591385ED91E02CC09D
:100ED00089EE91E029C08DEF91E026C081E192E09A
:100EE00023C085E292E020C089E392E01DC08DE43A
:100EF00092E01AC081E692E017C085E792E014C044
:100F000089E892E011C08DE992E00EC081EB92E099
:100F10000BC085EC92E008C089ED92E005C08DEE33
:100F200092E002C081E093E00E94AE03B91007C0D6
:100F3000882029F08BE00E94D00389E004C08CE077
:100F40000E94D0038AE00E94D003ECE0EB1508F485
:100F50005BC0F6013197EC30F10520F4ED5BFF4FFB
:100F60000C9459138091CF0324C08091D00390E05A
:100F70000E947D038AE293E049C08091D1038823D7
:100F800019F085EA91E042C08DEA91E03FC0C301CB
:100F90000E947D0385E193E00E94AE03C8010E9498
:100FA0007D038DE293E032C08091D30302C0809133
:100FB000D403882319F085E991E028C08DE991E0F8
:100FC00025C08091D503882319F085EB91E01EC0E0
:100FD0008DEB91E01BC08091D6030EC08091D703AA
:100FE0000BC08091D80308C08091D90305C08091BF
:100FF000DA0302C08091DB03882319F085EC91E0CD
:1010000005C08DEC91E002C089E293E00E94AE033E
:10101000B394A394FCE0AF1232CF8AE00F900F900C
:10102000DF91CF911F910F91FF90EF90DF90CF90C4
:10103000BF90AF909F908F907F906F900C94D00353
:10104000CF92DF92EF92FF921F93CF93DF9360E0F6
:1010500080E00E94140785E00E94B901C12CD12CC8
:10106000760110E0D0E085E00E94B9011123D9F1AA
:101070008230D1F018F4813029F053C0853008F463
:101080005BC04FC0D13039F48091D003883008F074
:1010900059C08F5F11C0D330E1F48091D2038A3FF1
:1010A00008F050C08B5F12C0D13049F48091D0035A
:1010B000823008F447C081508093D00343C0D330BE
:1010C00041F48091D2038630E8F185508093D203B9
:1010D00039C0ED2FF0E0E153FC4F81E09081911198
:1010E00080E080832FC0823061F018F4813021F0DD
:1010F00019C0853050F016C0DF5FD03121F5D0E047
:1011000022C0DD23D9F0D1501EC0DF30C9F0DE305F
:1011100019F40E94530117C0DD30A1F40E940F039F
:1011200012C011E081110FC00E94880DC616D706AB
:10113000E806F90640F097CF10E005C0DFE003C0F5
:10114000C1E002C011E0C0E00E94880D6B017C018B
:1011500088EEC80E83E0D81EE11CF11C612F8D2F94
:101160000E941407CC2309F47ECFDF91CF911F9109
:10117000FF90EF90DF90CF9008958F929F92AF9263
:10118000BF92CF92DF92EF92FF92CF93DF9361E015
:101190008DE00E94DA0E61E08DE00E94130F60E0A6
:1011A00085E00E94DA0E62E085E00E94130F61E0A4
:1011B00086E00E94DA0E0E94920181110BC080919C
:1011C000DB03882311F080E001C088E08093F60300
:1011D0000E9453018091F6030E943D01BC0187ECFF
:1011E00093E00E94EA0C26E040E051EE60E070E0FF
:1011F00081E094E00E94551085E00E94490F892B00
:1012000029F40E9420080E9471011EC08091D3031E
:101210008823D1F00E94880D4B015C0188E5880E7F
:101220008BE1981EA11CB11CC12CD12C76010E940F
:10123000880D681579058A059B0530F485E00E94C4
:10124000490F892B09F088C082E00E94D003EEE5A7
:10125000F1E0A7E9B3E081918D9381E0EE38F807E2
:10126000D1F78091D603882329F08091D703882372
:1012700071F019C0C0E0DFEF8C2F0E944A01FC0121
:10128000E956FC4FD083CF5FC830B1F7EECFC8E04E
:10129000DFEF8C2F0E944A01FC01E956FC4FD083FE
:1012A000CF5FC031B1F78091D80381110CC0C0E18C
:1012B000DFEF8C2F0E944A01FC01E956FC4FD083DE
:1012C000CF5FC831B1F78091D90381110CC0C8E15B
:1012D000DFEF8C2F0E944A01FC01E956FC4FD083BE
:1012E000CF5FC032B1F78091DA0381110CC0C0E248
:1012F000DFEF8C2F0E944A01FC01E956FC4FD0839E
:10130000CF5FC832B1F78091DB0381110CC0C8E216
:10131000DFEF8C2F0E944A01FC01E956FC4FD0837D
:10132000CF5FC033B1F70E94880D6059784E8F4F60
:101330009F4F6093E9037093EA038093EB039093CC
:10134000EC03DF91CF91FF90EF90DF90CF90BF90B3
:10135000AF909F908F9008950E94880DC616D70673
:10136000E806F90608F063CF0E94880D6B017C0146
:1013700084EFC80E81E0D81EE11CF11C0E94F30628
:1013800056CF1F93CF93DF93CDB7DEB766970FB6D7
:10139000F894DEBF0FBECDBF182F60E081E00E9441
:1013A000940440E060E089E10E946C068BE00E94BA
:1013B000D00389E00E94D00361E08EE00E946304C4
:1013C00063E08FE00E94630487E193E00E94AE0334
:1013D00061E08EE00E94630464E08FE00E94630499
:1013E00081E393E00E94AE036DE08EE00E9463040F
:1013F000812F0E943D010E947D038BE493E00E94B7
:10140000AE0361E08EE00E94630465E08FE00E941D
:10141000630480E593E00E94AE036DE08EE00E94DD
:101420006304BE016F5F7F4F812F0E949B020E9469
:10143000AE0361E08EE00E94630466E08FE00E94EC
:1014400063048AE693E00E94AE036DE08EE00E94A2
:101450006304BE016F5F7F4F812F0E94C1020E9413
:10146000AE0361E08EE00E94630467E08FE00E94BB
:10147000630487E193E00E94AE038AE00E94D003F8
:101480008CE00E94D00366960FB6F894DEBF0FBEC4
:10149000CDBFDF91CF911F91089560E081E00E9460
:1014A000940440E060E089E10C946C06CF93DF93F4
:1014B00000D01F92CDB7DEB740E060E081E00E942F
:1014C0006C0663E08EE00E94630460E08FE00E949F
:1014D0006304BE016F5F7F4F8091F6030E949B0201
:1014E0000E94AE0380E20E947F048DE00E947F0490
:1014F0008091F6030E943D010E947D0380E20E94DC
:101500007F048CE00E947F0484E10E9481020E949B
:101510007D030F900F900F90DF91CF910895CF939F
:10152000DF9300D01F92CDB7DEB76CE08EE00E9453
:10153000630460E08FE00E946304BE016F5F7F4F31
:101540008091F6030E949B020E94AE0380E20E94FB
:101550007F048DE00E947F048091F6030E943D018C
:101560000E947D0380E20E947F048CE00E947F0441
:1015700084E10E9481020E947D0340E060E089E1F5
:101580000E946C060F900F900F90DF91CF910895FD
:10159000CF92DF92EF92FF92CF9385E00E94B90144
:1015A000C82F8093F703823009F44CC0D8F48130FF
:1015B00009F060C08091F6030E941E028093F6033A
:1015C0000E943D01BC0187EC93E00E94EA0C10925E
:1015D000F1031092F2031092F3031092F403C093FC
:1015E000CD0348C08330B1F0843009F043C082E0BD
:1015F0000E94D0038091F6030E943D010E94940551
:101600000E9446028093F60382E00E94D0038091FC
:10161000F6030FC082E00E94D0030E944D0A809121
:10162000F6030E943D010E94E4030E94460280935B
:10163000F6030E94C10960EA7FE080E090E00E942A
:10164000B70D15C08091F6030E943C028093F6030B
:101650000E943D01BC0187EC93E00E94EA0C1092CD
:10166000F1031092F2031092F3031092F40381E05D
:101670008093CD038091F703882371F00E94880D39
:101680006059784E8F4F9F4F6093E9037093EA0340
:101690008093EB039093EC038091CD03882369F052
:1016A0001092CD0382E00E94D0031092F1031092B9
:1016B000F2031092F3031092F403C090F103D09060
:1016C000F203E090F303F090F4030E94880DC61635
:1016D000D706E806F90648F50E94880D68517C4F48
:1016E0008F4F9F4F6093F1037093F2038093F30346
:1016F0009093F4038091D403811110C0C090E9034A
:10170000D090EA03E090EB03F090EC030E94880D88
:101710006C157D058E059F0508F0A3C08091D5034B
:10172000882309F49BC00E94560A9091F603809189
:10173000F503981781F00E94880DC090ED03D090BA
:10174000EE03E090EF03F090F003C616D706E8062C
:10175000F90608F48DC00E94880DC090E503D09072
:10176000E603E090E703F090E803C616D706E80624
:10177000F906A8F481E090910001911180E0809336
:1017800000010E94880D6C507E4F8F4F9F4F6093D9
:10179000E5037093E6038093E7039093E803609179
:1017A00000018DE00E94130F8091CF03882309F47C
:1017B0004BC08091DE039091DF03892B09F444C074
:1017C0000E94880DC090E103D090E203E090E30313
:1017D000F090E403C616D706E806F90608F05DC0E7
:1017E00081E09091E003911180E08093E0038823F1
:1017F00099F061E070E00090D00302C0660F771F9F
:101800000A94E2F786E00E94520E0E94880D209111
:10181000DE033091DF030BC060E070E086E00E94E1
:10182000520E0E94880D2091DC033091DD03620F7F
:10183000731F811D911D6093E1037093E2038093F8
:10184000E3039093E40329C060E070E086E0CF9169
:10185000FF90EF90DF90CF900C94520E0E948F0A71
:1018600064CF82E00E94D00381E08093CE035DCFFD
:101870000E9471018091F6038093F5030E94880D08
:10188000605F784D8F4F9F4F6093ED037093EE0331
:101890008093EF039093F0035ECFCF91FF90EF9092
:1018A000DF90CF900895CF93DF93EC01842F79835D
:1018B00068834A835B833D832C8361E00E94DA0E58
:1018C00061E08C810E94DA0E61E08881DF91CF9126
:1018D0000C94DA0E6F5D7140CB0196958795282F99
:1018E0002F71CB0136E0969587953A95E1F796955D
:1018F000982F882797958795822B0895CF93DF930C
:10190000EC0160E088810E94130F81E090E00E946A
:10191000F10D61E08C810E94130F81E090E00E9444
:10192000F10D61E088810E94130F81E090E00E9438
:10193000F10D60E088810E94130F81E090E0DF915B
:10194000CF910C94F10DCF93DF93EC0160E088818F
:101950000E94130F81E090E00E94F10D60E08C8105
:101960000E94130F81E090E00E94F10D61E08881F8
:101970000E94130F81E090E00E94F10D60E08881E9
:101980000E94130F81E090E0DF91CF910C94F10D54
:10199000CF93DF93EC0181E090E00E94F10D60E0D5
:1019A0008A810E94130F81E090E0DF91CF910C9427
:1019B000F10DCF93DF93EC0181E090E00E94F10DF7
:1019C00061E08A810E94130F81E090E0DF91CF9166
:1019D0000C94F10DFF920F931F93CF93DF93EC01C3
:1019E0000E946A0C8C01CE010E94D90C81E090E02B
:1019F0000E94F10DCE010E94C80CCE010E947E0C07
:101A0000CE010E94A30CCE010E94A30CCE010E9425
:101A1000A30CCE010E947E0C60E1F62ECE0100FFE9
:101A200003C00E947E0C02C00E94A30C169507956D
:101A3000FA94A1F7CE010E94A30CCE010E94A30C40
:101A4000CE010E94A30CCE010E94A30CCE010E94E5
:101A5000D90C81E090E00E94F10D60E08A810E9443
:101A6000130F60E088810E94130F60E08C81DF918A
:101A7000CF911F910F91FF900C94130F1F920F9213
:101A80000FB60F9211242F933F938F939F93AF9391
:101A9000BF938091F9039091FA03A091FB03B09159
:101AA000FC033091F80326E0230F2D3720F4029633
:101AB000A11DB11D05C029E8230F0396A11DB11D6D
:101AC0002093F8038093F9039093FA03A093FB0308
:101AD000B093FC038091FD039091FE03A091FF035E
:101AE000B09100040196A11DB11D8093FD03909358
:101AF000FE03A093FF03B0930004BF91AF919F91A9
:101B00008F913F912F910F900FBE0F901F901895BE
:101B10002FB7F8946091F9037091FA038091FB0359
:101B20009091FC032FBF08953FB7F8948091FD0377
:101B30009091FE03A091FF03B091000426B5A89BED
:101B400005C02F3F19F00196A11DB11D3FBF6627AB
:101B5000782F892F9A2F620F711D811D911D43E0EF
:101B6000660F771F881F991F4A95D1F708958F92A6
:101B70009F92AF92BF92CF92DF92EF92FF926B0152
:101B80007C010E94940D4B015C01C114D104E1045D
:101B9000F104F1F00E949D110E94940D68197909D9
:101BA0008A099B09683E73408105910570F321E025
:101BB000C21AD108E108F10888EE880E83E0981E69
:101BC000A11CB11CC114D104E104F10429F7DDCF3B
:101BD000FF90EF90DF90CF90BF90AF909F908F904D
:101BE00008958330910528F0880F991F0497019775
:101BF000F1F70895789484B5826084BD84B58160DE
:101C000084BD85B5826085BD85B5816085BDEEE604
:101C1000F0E0808181608083E1E8F0E010828081E3
:101C200082608083808181608083E0E8F0E0808151
:101C300081608083E1EBF0E0808184608083E0EB71
:101C4000F0E0808181608083EAE7F0E08081846059
:101C5000808380818260808380818E7F8083808189
:101C6000806880831092C10008958E3008F08E50F5
:101C700087702091010190E4299F90011124822B0B
:101C800080937C0080917A00806480937A008091B8
:101C90007A0086FDFCCF809178002091790090E059
:101CA000922B08951F93CF93DF93182FEB0161E0E0
:101CB0000E94DA0E209711F460E004C0CF3FD105F6
:101CC00039F461E0812FDF91CF911F910C94130FB4
:101CD000E12FF0E0E257FE4FE491E330F9F048F4F1
:101CE000E130B9F0E230A1F584B5806284BDC8BDB1
:101CF00034C0E730E9F0E83019F1E43049F580917B
:101D00008000806280938000D0938B00C0938A0013
:101D100024C084B5806884BDC7BD1FC08091800089
:101D2000806880938000D0938900C093880015C09C
:101D30008091B00080688093B000C093B3000DC064
:101D40008091B00080628093B000C093B40005C061
:101D5000C038D1050CF0B5CFAFCFDF91CF911F9137
:101D60000895833081F028F4813099F08230A1F019
:101D700008958730A9F08830B9F08430D1F480918B
:101D800080008F7D03C0809180008F7780938000DA
:101D9000089584B58F7702C084B58F7D84BD089582
:101DA0008091B0008F7703C08091B0008F7D8093C9
:101DB000B0000895CF93DF9390E0FC01EE55FE4F05
:101DC0002491FC01EA54FE4F8491882349F190E06C
:101DD000880F991FFC01E252FE4FA591B4918C52DD
:101DE0009E4FFC01C591D4919FB7611108C0F89432
:101DF0008C91209582238C93888182230AC0623043
:101E000051F4F8948C91322F309583238C938881F0
:101E1000822B888304C0F8948C91822B8C939FBF73
:101E2000DF91CF9108950F931F93CF93DF931F926C
:101E3000CDB7DEB7282F30E0F901E257FE4F84918D
:101E4000F901EE55FE4F1491F901EA54FE4F049149
:101E50000023C9F0882321F069830E94B10E6981B3
:101E6000E02FF0E0EE0FFF1FEC52FE4FA591B49172
:101E70009FB7F8948C91611103C01095812301C024
:101E8000812B8C939FBF0F90DF91CF911F910F916A
:101E90000895CF93DF93282F30E0F901E257FE4FEA
:101EA0008491F901EE55FE4FD491F901EA54FE4FA9
:101EB000C491CC2391F081110E94B10EEC2FF0E07F
:101EC000EE0FFF1FE653FE4FA591B4912C912D23E9
:101ED00081E090E021F480E002C080E090E0DF91BA
:101EE000CF910895FC01818D228D90E0805C9F4F01
:101EF000821B91098F7399270895FC01918D828D22
:101F0000981731F0828DE80FF11D858D90E00895CE
:101F10008FEF9FEF0895FC01918D828D981761F0EE
:101F2000828DDF01A80FB11D5D968C91928D9F5F10
:101F30009F73928F90E008958FEF9FEF089588E14F
:101F400091E1892B49F080E090E0892B29F00E94F3
:101F5000181181110C9400000895FC01848DDF019B
:101F6000A80FB11DA35ABF4F2C91848D90E001960C
:101F70008F739927848FA689B7892C93A089B189FB
:101F80008C9180648C93938D848D981306C0028805
:101F9000F389E02D80818F7D80830895CF93DF9337
:101FA000EC01888D8823C9F0EA89FB89808185FD51
:101FB00005C0A889B9898C9186FD0FC00FB607FCB2
:101FC000F5CF808185FFF2CFA889B9898C9185FFF3
:101FD000EDCFCE010E94AD0FE7CFDF91CF910895F5
:101FE000CF92DF92FF920F931F93CF93DF931F92B5
:101FF000CDB7DEB76C0181E0D60158968C93589727
:102000005B969C915B975C968C915C97981307C04C
:102010005096ED91FC915197808185FD2EC0F6017F
:10202000038D10E00F5F1F4F0F731127F02EF60185
:10203000848DF81211C00FB607FCF9CFD601509667
:10204000ED91FC915197808185FFF1CFC6016983A5
:102050000E94AD0F6981EBCF838DE80FF11DE35A2C
:10206000FF4F6083D6015B960C935B975296ED9180
:10207000FC915397808180620CC0D6015696ED91F9
:10208000FC91579760835096ED91FC915197808118
:102090008064808381E090E00F90DF91CF911F9169
:1020A0000F91FF90DF90CF900895BF92CF92DF9273
:1020B000EF92FF92CF93DF93EC016A017B01B22E86
:1020C00060E874E88EE190E0A70196010E94371362
:1020D0002150310941095109569547953795279562
:1020E000E889F98982E08083211580E1380798F03A
:1020F000E889F989108260E472E48FE090E0A7013A
:1021000096010E9437132150310941095109569512
:10211000479537952795EC85FD853083EE85FF85BE
:102120002083188EEC89FD89B082EA89FB89808141
:1021300080618083EA89FB89808188608083EA8965
:10214000FB89808180688083EA89FB8980818F7D1B
:102150008083DF91CF91FF90EF90DF90CF90BF9081
:102160000895FC01538D448D252F30E0842F90E09D
:10217000821B930B541710F0CF9608950197089582
:102180001F920F920FB60F9211242F938F939F934C
:10219000EF93FF93E0911104F09112048081E0919C
:1021A0001704F091180482FD12C0908180911A04E6
:1021B0008F5F8F7320911B04821751F0E0911A04F6
:1021C000F0E0EF5FFB4F958F80931A0401C0808190
:1021D000FF91EF919F918F912F910F900FBE0F90D4
:1021E0001F9018951F920F920FB60F9211242F93E4
:1021F0003F934F935F936F937F938F939F93AF938F
:10220000BF93EF93FF9381E094E00E94AD0FFF91A5
:10221000EF91BF91AF919F918F917F916F915F915E
:102220004F913F912F910F900FBE0F901F901895D7
:1022300081E094E00E94720F21E0892B09F420E0F4
:10224000822F0895109204041092030488EE93E004
:10225000A0E0B0E08093050490930604A0930704E7
:10226000B093080488E893E09093020480930104FB
:1022700085EC90E090930E0480930D0484EC90E044
:102280009093100480930F0480EC90E090931204DC
:102290008093110481EC90E09093140480931304D4
:1022A00082EC90E0909316048093150486EC90E005
:1022B000909318048093170410921A0410921B0430
:1022C00010921C0410921D040895CF92DF92EF9299
:1022D000FF920F931F93CF93DF937C016A01EB0171
:1022E00000E010E00C151D0571F06991D701ED912A
:1022F000FC910190F081E02DC7010995892B19F01F
:102300000F5F1F4FEFCFC801DF91CF911F910F914A
:10231000FF90EF90DF90CF90089508950E94FA0DFE
:102320000E948D110E94BD08CFE9DFE00E94C80A1B
:102330002097E1F30E949F0FF9CF08950CD0E6C0DB
:10234000DED040F0D5D030F021F45F3F19F0C7C0A7
:10235000511110C1CAC0EBD098F39923C9F355238A
:10236000B1F3951B550BBB27AA2762177307840788
:1023700038F09F5F5F4F220F331F441FAA1FA9F33E
:1023800033D00E2E3AF0E0E830D091505040E69530
:10239000001CCAF729D0FE2F27D0660F771F881F91
:1023A000BB1F261737074807AB07B0E809F0BB0B80
:1023B000802DBF01FF2793585F4F2AF09E3F5105A4
:1023C00068F08DC0D7C05F3FECF3983EDCF3869594
:1023D00077956795B795F7959F5FC9F7880F911D1A
:1023E0009695879597F90895E1E0660F771F881F06
:1023F000BB1F621773078407BA0720F0621B730BB9
:10240000840BBA0BEE1F88F7E095089598D088F0FA
:102410009F5790F0B92F9927B751A0F0D1F0660FD0
:10242000771F881F991F1AF0BA95C9F712C0B130EB
:1024300081F09FD0B1E008959CC0672F782F882746
:10244000B85F39F0B93FCCF3869577956795B3952A
:10245000D9F73EF490958095709561957F4F8F4F99
:102460009F4F0895E89409C097FB3EF4909580959E
:10247000709561957F4F8F4F9F4F9923A9F0F92F4A
:1024800096E9BB279395F695879577956795B795C8
:10249000F111F8CFFAF4BB0F11F460FF1BC06F5FAE
:1024A0007F4F8F4F9F4F16C0882311F096E911C0C0
:1024B000772321F09EE8872F762F05C0662371F0E1
:1024C00096E8862F70E060E02AF09A95660F771FF5
:1024D000881FDAF7880F9695879597F9089597F9E9
:1024E0009F6780E870E060E008959FEF80EC0895BA
:1024F00000240A94161617061806090608950024E3
:102500000A9412161306140605060895092E03945C
:10251000000C11F4882352F0BB0F40F4BF2B11F4D0
:1025200060FF04C06F5F7F4F8F4F9F4F089557FD2F
:102530009058440F551F59F05F3F71F04795880F31
:1025400097FB991F61F09F3F79F0879508951216C8
:1025500013061406551FF2CF4695F1DF08C0161674
:1025600017061806991FF1CF869571056105089425
:102570000895E894BB2766277727CB0197F908953C
:102580000BD0C4CFB5DF28F0BADF18F0952309F0DF
:10259000A6CFABCF1124EECFCADFA0F3959FD1F326
:1025A000950F50E0551F629FF001729FBB27F00D01
:1025B000B11D639FAA27F00DB11DAA1F649F662756
:1025C000B00DA11D661F829F2227B00DA11D621FA5
:1025D000739FB00DA11D621F839FA00D611D221F5F
:1025E000749F3327A00D611D231F849F600D211D43
:1025F000822F762F6A2F11249F5750408AF0E1F0E6
:1026000088234AF0EE0FFF1FBB1F661F771F881F2E
:1026100091505040A9F79E3F510570F060CFAACF6E
:102620005F3FECF3983EDCF3869577956795B79519
:10263000F795E7959F5FC1F7FE2B880F911D969543
:10264000879597F90895AA1BBB1B51E107C0AA1FE4
:10265000BB1FA617B70710F0A61BB70B881F991F43
:102660005A95A9F780959095BC01CD010895A1E2F6
:102670001A2EAA1BBB1BFD010DC0AA1FBB1FEE1FFC
:10268000FF1FA217B307E407F50720F0A21BB30B47
:10269000E40BF50B661F771F881F991F1A9469F7C3
:1026A00060957095809590959B01AC01BD01CF011F
:1026B0000895EE0FFF1F0590F491E02D0994FB01A2
:1026C000DC0101900D920020E1F70895BB274A300C
:1026D00031F4992322F4BDE2909581959F4F0C949B
:1026E0007213BB27FB015527AA27880F991FAA1F22
:1026F000A41710F0A41B83955051B9F7A05DAA331D
:1027000008F0A95DA193009779F7B111B1931192E7
:10271000CB010C94A113F999FECF92BD81BDF89A1B
:10272000992780B50895262FF999FECF1FBA92BD3B
:1027300081BD20BD0FB6F894FA9AF99A0FBE0196A2
:102740000895DC01FC01672F71917723E1F732973F
:1027500004C07C916D9370836291AE17BF07C8F37C
:062760000895F894FFCF7C
:102766000101426F7363616D204100426F736361C3
:102776006D204200466F78746563682F444A49208D
:1027860000466174536861726B2000526163654252
:10279600616E6420004C6F7742616E6420200020D9
:1027A600352E333520202020202020352E3630208F
:1027B600202020202020352E39350020352E363594
:1027C60020202020202020352E38302020202020B8
:1027D6002020352E3935002500323031372D303363
:1027E6002D31330076322E332062792044766F679E
:1027F6006F6E656E0079657320202020006E6F2055
:1028060020202020003273206C69706F0033732003
:102816006C69706F006C65667420202000726967B1
:1028260068742020006F6E2020202020006F6666CE
:1028360020202020006261747465727920616C61C9
:10284600726D20202020202000616C61726D206C4A
:102856006576656C2020202020202020006261748F
:1028660074657279207479706520202020202020DC
:1028760000766F6C742063616C6962726174696F53
:102886006E2020200073686F772073746172742045
:1028960073637265656E202000636F6E7374616E7C
:1028A6007420696E666F206C696E652000696E66BD
:1028B6006F206C696E6520706F736974696F6E2026
:1028C60000426F7363616D20412062616E64202057
:1028D6002020202000426F7363616D2042206261D8
:1028E6006E6420202020202000466F78746563687F
:1028F6002F444A492062616E64202020004661749C
:10290600736861726B2062616E6420202020202033
:1029160000526163652062616E64202020202020C1
:1029260020202020004C6F772062616E64202020DA
:1029360020202020202020200072657365742073DB
:10294600657474696E677320202020200074657397
:102956007420616C61726D202020202020202020B0
:102966000065786974202020202020202020202047
:1029760020202020002E0020202020202020202083
:102986002020202020202020202020202020202041
:1029960000204672657175656E63793A20202020A5
:1029A6002020202020202020202000204D487A00B2
:1029B600204368616E6E656C20203A20202020201E
:1029C60020202020202020202000204E616D652020
:1029D600202020203A2020202020202020202020D7
:1029E6002020200000000000F00F6511720F8B0FF1
:0429F6007D0FCE0F74
:107800000C94343C0C94513C0C94513C0C94513CE1
:107810000C94513C0C94513C0C94513C0C94513CB4
:107820000C94513C0C94513C0C94513C0C94513CA4
:107830000C94513C0C94513C0C94513C0C94513C94
:107840000C94513C0C94513C0C94513C0C94513C84
:107850000C94513C0C94513C0C94513C0C94513C74
:107860000C94513C0C94513C11241FBECFEFD8E036
:10787000DEBFCDBF11E0A0E0B1E0EAE8FFE702C063
:1078800005900D92A230B107D9F712E0A2E0B1E065
:1078900001C01D92AD30B107E1F70E942D3D0C945F
:1078A000C33F0C94003C982F95959595959595958B
:1078B000905D8F708A307CF0282F295A8091C0000B
:1078C00085FFFCCF9093C6008091C00085FFFCCF60
:1078D0002093C6000895282F205DF0CF982F809127
:1078E000C00085FFFCCF9093C6000895EF92FF92F1
:1078F0000F931F93EE24FF2487018091C00087FD22
:1079000017C00894E11CF11C011D111D81E2E8164D
:1079100081EAF80687E0080780E0180770F3E09135
:107920000401F091050109958091C00087FFE9CF1E
:107930008091C6001F910F91FF90EF9008950E94D3
:10794000763C982F8091C00085FFFCCF9093C600B5
:1079500091362CF490330CF09053892F089597555D
:10796000892F08951F930E949F3C182F0E949F3CCF
:107970001295107F810F1F9108951F93182F882350
:1079800021F00E94763C1150E1F71F9108951F935A
:10799000182F0E94763C803249F0809103018F5F5E
:1079A000809303018530C1F01F9108958091C0003C
:1079B00085FFFCCF84E18093C6008091C00085FFE5
:1079C000FCCF1093C6008091C00085FFFCCF80E102
:1079D0008093C6001F910895E0910401F091050184
:1079E00009951F9108950E94763C803241F0809164
:1079F00003018F5F80930301853081F008958091AA
:107A0000C00085FFFCCF84E18093C6008091C00058
:107A100085FFFCCF80E18093C6000895E0910401CA
:107A2000F09105010995089548EC50E08823A1F0F4
:107A30002D9A28EE33E0FA013197F1F721503040CA
:107A4000D1F72D9828EE33E0FA013197F1F7215064
:107A50003040D1F7815061F708953F924F925F9285
:107A60006F927F928F929F92AF92BF92CF92DF924E
:107A7000EF92FF920F931F93CF93DF93000082E06A
:107A80008093C00080E18093C4001092C50088E11B
:107A90008093C10086E08093C2005098589A259A3E
:107AA00081E00E94143D24E1F22E9EE1E92E85E959
:107AB000D82E0FE0C02E10E1B12EAA24A394B1E479
:107AC0009B2EA6E58A2EF2E57F2EE0E26E2E79E46B
:107AD000572E63E5462E50E5352E0E94763C8033C6
:107AE000B1F18133B9F1803409F46FC0813409F404
:107AF00076C0823409F485C0853409F488C08035A5
:107B000031F1823521F1813511F1853509F485C0D6
:107B1000863509F48DC0843609F496C0843709F49B
:107B200003C1853709F472C1863709F466C08091B4
:107B300003018F5F80930301853079F6E0910401A2
:107B4000F091050109950E94763C803351F60E9420
:107B5000F33CC3CF0E94763C803249F78091C0004D
:107B600085FFFCCFF092C6008091C00085FFFCCF5E
:107B70009092C6008091C00085FFFCCF8092C60025
:107B80008091C00085FFFCCF7092C6008091C0003C
:107B900085FFFCCF6092C6008091C00085FFFCCFBE
:107BA0005092C6008091C00085FFFCCF4092C60075
:107BB0008091C00085FFFCCF3092C6008091C0004C
:107BC00085FFFCCFB092C60088CF0E94763C8638F5
:107BD00008F4BDCF0E94763C0E94F33C7ECF0E9409
:107BE000763C803809F49CC0813809F40BC1823896
:107BF00009F430C1883909F48FC080E00E94C73C85
:107C00006CCF84E10E94BD3C0E94F33C66CF85E0CE
:107C10000E94BD3C0E94F33C60CF0E94763C809362
:107C200006010E94763C809307010E94F33C55CFE9
:107C30000E94763C803309F411C183E00E94BD3C70
:107C400080E00E94C73C49CF0E94763C80930902A5
:107C50000E94763C8093080280910C028E7F809374
:107C60000C020E94763C853409F409C18091080217
:107C700090910902892B89F000E010E00E94763C87
:107C8000F801E85FFE4F80830F5F1F4F809108026D
:107C9000909109020817190788F30E94763C8032F8
:107CA00009F045CF80910C0280FFF5C0609106017C
:107CB00070910701660F771F7093070160930601AB
:107CC000A0910802B09109021097C9F0E8E0F1E034
:107CD0009B01AD014E0F5F1FF999FECF32BD21BD53
:107CE000819180BDFA9AF99A2F5F3F4FE417F5070B
:107CF00099F76A0F7B1F70930701609306018091CB
:107D0000C00085FFFCCFF092C6008091C00085FFC7
:107D1000FCCFB092C600E1CE83E00E94C73CDDCE2E
:107D200082E00E94C73CD9CE0E94763C8093090233
:107D30000E94763C80930802809106019091070191
:107D4000880F991F90930701809306010E94763C4B
:107D5000853409F49AC080910C028E7F80930C02C6
:107D60000E94763C803209F0B8CE8091C00085FF39
:107D7000FCCFF092C600A0910802B09109021097C2
:107D8000C1F180910C02082F0170182F1695117007
:107D9000E0910601F0910701AF014F5F5F4FBA011B
:107DA00020E030E00023B1F4112339F49491809164
:107DB000C00085FFFCCF9093C6002F5F3F4FCB01E3
:107DC0000196FA012A173B0780F4BC014F5F5F4F11
:107DD000002351F3F999FECFF2BDE1BDF89A90B5B9
:107DE0008091C00085FFFCCFE6CF709307016093C0
:107DF00006018091C00085FDE5CE8091C00085FF21
:107E0000F8CFE0CE81E00E94C73C67CE0E94763C6E
:107E1000803209F08CCE8091C00085FFFCCFF092BB
:107E2000C6008091C00085FFFCCFE092C600809123
:107E3000C00085FFFCCFD092C6008091C00085FFB6
:107E4000FCCFC092C6008091C00085FFFCCFB092ED
:107E5000C60043CE80E10E94C73C3FCE0E94763CE4
:107E60000E94763C182F0E94763C112309F483C0AF
:107E7000113009F484C08FE00E94C73C2ECE80915F
:107E80000C02816080930C02F1CE80910C02816023
:107E900080930C0265CF809107018823880F880B9F
:107EA0008A2180930B028091060190910701880F2F
:107EB000991F90930701809306018091080280FF2B
:107EC00009C08091080290910902019690930902DD
:107ED00080930802F894F999FECF1127E0910601EA
:107EE000F0910701C8E0D1E0809108029091090269
:107EF000103091F40091570001700130D9F303E084
:107F000000935700E8950091570001700130D9F3B4
:107F100001E100935700E8950990199000915700EE
:107F200001700130D9F301E000935700E8951395F3
:107F3000103498F011270091570001700130D9F3E7
:107F400005E000935700E89500915700017001305B
:107F5000D9F301E100935700E8953296029709F0B2
:107F6000C7CF103011F00296E5CF11248091C000E8
:107F700085FFC5CEC8CE8EE10E94C73CAECD85E957
:0A7F80000E94C73CAACDF894FFCF81
:027F8A00800075
:040000030000780081
:00000001FF
