:100000000C94B3000C94DB000C94DB000C94DB002C
:100010000C94DB000C94DB000C94DB000C94DB00F4
:100020000C94DB000C94DB000C94DB000C94DB00E4
:100030000C94DB000C94DB000C94DB000C94DB00D4
:100040000C944E030C94DB000C94FC010C94D60130
:100050000C94DB000C94DB000C94DB000C94DB00B4
:100060000C94DB000C94DB006A046D0470047304D0
:10007000760479047F047C048204E916D516C1163F
:10008000AD169916851671165D16651678168B16BF
:100090009E16B116C416D716EA164916351621163D
:1000A0000D16FD161117251739176C1680169416A4
:1000B000A816BC16D016E416F8161A163F166416C3
:1000C0008916AE16D316F8161D17F21417153C151F
:1000D00061158615AB15D015F51528292A2B2C2D61
:1000E0002E2F1320121121100722081806091905B6
:1000F000230A1A040B1B03240C1C020D1D25010EE0
:100100001E000F1F261415271617000000002400DC
:1001100027002A0000000000250028002B00000016
:10012000000023002600290004040404040404043D
:100130000202020202020303030303030102040892
:100140001020408001020408102001020408102041
:100150000000000800020100000304070000000086
:1001600000000000BB0D11241FBECFEFD8E0DEBFA2
:10017000CDBF13E0A0E0B1E0EEEEFFE102C00590DC
:100180000D92A031B107D9F723E0A0E1B3E001C09F
:100190001D92AE3DB207E1F710E0C3EBD0E004C022
:1001A0002197FE010E94FC0DC23BD107C9F70E94B6
:1001B0007F080C94F50F0C940000CF92DF92EF9221
:1001C000FF920F931F93CF93DF936C017A018B0102
:1001D000C0E0D0E0CE15DF0589F0D8016D918D012A
:1001E000D601ED91FC910190F081E02DC6010995B9
:1001F000892B11F47E0102C02196ECCFC701DF915B
:10020000CF911F910F91FF90EF90DF90CF900895C5
:10021000FC01918D828D981761F0828DDF01A80F0E
:10022000B11D5D968C91928D9F5F9F73928F90E030
:1002300008958FEF9FEF0895FC01918D828D98179F
:1002400031F0828DE80FF11D858D90E008958FEFDC
:100250009FEF0895FC01918D228D892F90E0805CA5
:100260009F4F821B91098F739927089581E493E032
:100270000E942A0121E0892B09F420E0822F0895B1
:10028000FC01848DDF01A80FB11DA35ABF4F2C9133
:10029000848D90E001968F739927848FA689B78902
:1002A0002C93A089B1898C9180648C93938D848DDB
:1002B000981306C00288F389E02D80818F7D8083AA
:1002C0000895EF92FF920F931F93CF93DF93EC016A
:1002D00081E0888F9B8D8C8D981305C0E889F98902
:1002E000808185FD24C0F62E0B8D10E00F5F1F4F1F
:1002F0000F731127E02E8C8DE8120CC00FB607FC8F
:10030000FACFE889F989808185FFF5CFCE010E9477
:100310004001F1CF8B8DFE01E80FF11DE35AFF4F35
:10032000F0820B8FEA89FB898081806207C0EE89A9
:10033000FF896083E889F98980818064808381E016
:1003400090E0DF91CF911F910F91FF90EF90089572
:10035000CF93DF93EC01888D8823C9F0EA89FB896C
:10036000808185FD05C0A889B9898C9186FD0FC063
:100370000FB607FCF5CF808185FFF2CFA889B98938
:100380008C9185FFEDCFCE010E944001E7CFDF9138
:10039000CF91089580E090E0892B29F00E943601EA
:1003A00081110C94000008950E949E0F1F920F92DD
:1003B0000FB60F9211242F933F934F935F936F9338
:1003C0007F938F939F93AF93BF93EF93FF9381E4BA
:1003D00093E00E944001FF91EF91BF91AF919F91F7
:1003E0008F917F916F915F914F913F912F910F90DE
:1003F0000FBE0F901F9018951F920F920FB60F927D
:1004000011242F938F939F93EF93FF93E0915103C8
:10041000F09152038081E0915703F091580382FDDF
:1004200012C0908180915A038F5F8F7320915B037C
:10043000821751F0E0915A03F0E0EF5BFC4F958F8B
:1004400080935A0301C08081FF91EF919F918F911A
:100450002F910F900FBE0F901F9018953FB7F894F3
:100460008091310390913203A0913303B091340312
:1004700026B5A89B05C02F3F19F00196A11DB11DFF
:100480003FBFBA2FA92F982F8827820F911DA11D3A
:10049000B11DBC01CD0143E0660F771F881F991F76
:1004A0004A95D1F70895833081F028F4813099F08E
:1004B0008230A1F008958730A9F08830B9F08430F7
:1004C000D1F4809180008F7D03C0809180008F7770
:1004D00080938000089584B58F7702C084B58F7DA6
:1004E00084BD08958091B0008F7703C08091B000E3
:1004F0008F7D8093B00008951F93CF93DF93282FB3
:1005000030E0F901E05BFE4F8491F901E45CFE4FBD
:10051000D491F901E85DFE4FC491CC23C9F0162FA8
:1005200081110E945302EC2FF0E0EE0FFF1FEC5EF2
:10053000FE4FA591B4918FB7F894111105C09C910D
:10054000ED2FE095E92302C0EC91ED2BEC938FBFEA
:10055000DF91CF911F91089560E082E00E947C02BC
:1005600060E084E00E947C0261E082E00E947C0204
:1005700060E082E00C947C0260E082E00E947C02F9
:1005800061E084E00E947C0261E082E00E947C02E3
:1005900060E082E00C947C02CF93DF9390E0FC015A
:1005A000E45CFE4F2491FC01E85DFE4F84918823BA
:1005B00061F190E0880F991FFC01E65FFE4FC59145
:1005C000D491FC01EC5EFE4FA591B491611109C07C
:1005D0009FB7F8948881209582238883EC912E23FD
:1005E0000BC0623061F49FB7F8943881822F8095F8
:1005F00083238883EC912E2B2C939FBF06C08FB74B
:10060000F894E8812E2B28838FBFDF91CF91089536
:100610008F929F92AF92BF92CF92DF92EF92FF9212
:100620006B017C010E942E024B015C01C114D104BC
:10063000E104F104F1F00E942E02DC01CB018819E3
:100640009909AA09BB09883E9340A105B10570F339
:1006500021E0C21AD108E108F10888EE880E83E093
:10066000981EA11CB11CC114D104E104F10419F7B6
:10067000DDCFFF90EF90DF90CF90BF90AF909F9035
:100680008F9008952FB7F89460912D0370912E03E9
:1006900080912F03909130032FBF08951F920F92E6
:1006A0000FB60F9211242F933F938F939F93AF9385
:1006B000BF9380912D0390912E03A0912F03B091B1
:1006C000300330912C0326E0230F2D3720F40296BF
:1006D000A11DB11D05C029E8230F0396A11DB11D61
:1006E00020932C0380932D0390932E03A0932F032C
:1006F000B09330038091310390913203A091330382
:10070000B09134030196A11DB11D809331039093E4
:100710003203A0933303B0933403BF91AF919F9101
:100720008F913F912F910F900FBE0F901F901895B2
:10073000CF93DF93EC010E949407FE01019000200B
:10074000E9F73197EC1BFD0B8E179F07A0F3CE0145
:10075000DF91CF910C94AF060F931F93CF93DF934C
:10076000CDB7DEB761970FB6F894DEBF0FBECDBF31
:100770004AE08E010F5F1F4FB8010E94AA0F0E942E
:100780009407F80101900020E9F73197E01BF10B85
:100790008E179F07A0F3C8010E94AF0661960FB69F
:1007A000F894DEBF0FBECDBFDF91CF911F910F91A7
:1007B0000895CF93DF931F92CDB7DEB7682F69837B
:1007C0000E9494076981892BD1F381E493E00F9013
:1007D000DF91CF910C946101CF93DF93D82FC62F77
:1007E0000E9494070397E4F36FEF81E493E00E9483
:1007F00061016D2F81E493E00E9461016C2F81E41F
:1008000093E0DF91CF910C9461010E94A4076AE00C
:100810008EE00E94EC0360E08FE00E94EC0389E42C
:1008200091E00E9498036AE08EE00E94EC0361E090
:100830008FE00E94EC0384E591E00E94980389E137
:100840000C94EA07CF93C82F0E9494070297E4F311
:100850006FEF81E493E00E9461016C2F81E493E0EB
:10086000CF910C9461010F931F93CF93DF93182FB7
:10087000062F0E940504112319F0CFEFC10F01C00C
:10088000C9E0D3E06D2F8FE00E94EC0360E08EE0C2
:100890000E94EC03CA3008F0C0E0C11307C0011188
:1008A00005C08BE00E94220489E004C08CE00E9415
:1008B00022048AE00E9422044C2F50E0FA01319772
:1008C000E930F10520F4EC5CFF4F0C94FC0D85E958
:1008D00091E01AC089EA91E017C08DEB91E014C055
:1008E00081ED91E011C085EE91E00EC089EF91E0BD
:1008F0000BC08DE092E008C081E292E005C085E384
:1009000092E002C089E492E00E949803C11307C0FC
:10091000002329F08BE00E94220489E004C08CE0CF
:100920000E9422048AE00E942204C730E0F5C3300E
:10093000D9F028F4C13091F0C23099F005C0C5302B
:1009400001F1E0F0C63029F180913903811103C033
:100950008DE691E02AC085E691E027C080913A03B8
:100960001AC080913B0317C080913C03811103C0E2
:100970008DE891E01AC085E891E017C080913D03B1
:100980000AC080913E0390E00E94AC038CE792E0A5
:100990000CC080913F03811103C08DE791E005C039
:1009A00085E791E002C08DE592E00E949803CF5F59
:1009B000DF5FDD3009F066CF8AE0DF91CF911F91D4
:1009C0000F910C9422041F93CF93DF938F5D91407E
:1009D0009C01369527952F71EC0156E0D695C79569
:1009E0005A95E1F7D695DC2FCC27D795C795C22B22
:1009F00061E083E00E947C0260E083E00E947C0270
:100A00000E94BC020E94AC020E94AC020E94AC0296
:100A10000E94BC0210E1C0FF03C00E94BC0202C0E1
:100A20000E94AC02D695C7951150A9F70E94AC025E
:100A30000E94AC020E94AC020E94AC0261E083E022
:100A40000E947C0260E083E00E947C0260E082E021
:100A50000E947C0260E084E0DF91CF911F910C94B2
:100A60007C02DB01E82FF0E0E652FF4FE491E83032
:100A700010F481E611C0E03110F482E60DC0E831D7
:100A800010F485E609C0E03210F486E605C0E832CD
:100A900010F482E701C08CE68C93E770EF5C11964E
:100AA000EC93119712961C921297CD01089592EF34
:100AB000980F8E3008F0892F8770982F906480E20D
:100AC00040E050E090937C0020917A0020642093D5
:100AD0007A0020917A0026FDFCCF20917800609169
:100AE000790030E0362B420F531F815059F7CA016D
:100AF00025E0969587952A95E1F708950F931F9322
:100B0000CF93DF936091100380E090E00E94E70FA5
:100B100009E313E0C0E0D0E0F80161918F01219674
:100B2000CE010E94E70FC730D105B1F76EEE88E025
:100B300090E0DF91CF911F910F910C94E70FE9E3C3
:100B4000F3E0108281E0818382831382848390E2C8
:100B5000958386830895E82FF0E0E652FF4FE491F5
:100B6000F0E0EE0FFF1FE658FF4F85919491089536
:100B7000EF92FF921F93CF93DF93CDB7DEB76697C7
:100B80000FB6F894DEBF0FBECDBF182F0E94A4078A
:100B900089E10E94EA078BE00E94220489E00E941A
:100BA000220461E08EE00E94EC0363E08FE00E948B
:100BB000EC0385E692E00E94980361E08EE00E94DB
:100BC000EC0364E08FE00E94EC038FE792E00E9468
:100BD00098036DE08EE00E94EC03812F0E94AB052C
:100BE0000E94AC0389E992E00E94980361E08EE0E4
:100BF0000E94EC0365E08FE00E94EC038EE992E036
:100C00000E9498036DE08EE00E94EC03CE010196F5
:100C10007C01BC01812F0E9431050E94980361E094
:100C20008EE00E94EC0366E08FE00E94EC0388EB0C
:100C300092E00E9498036DE08EE00E94EC03E12FA9
:100C4000F0E0E652FF4F1491183018F462ED72E0B4
:100C500016C0103118F46BED72E011C0183118F4A1
:100C600064EE72E00CC0103218F461EF72E007C05D
:100C7000183218F46BEF72E002C065E073E0C70150
:100C80000E94A30FF70101900020E9F73197EE19B8
:100C9000FF09CF019927D701A80FB91FE12FE770EE
:100CA000EF5CEC93FE01E80FF91F1282C7010E946E
:100CB000980361E08EE00E94EC0367E08FE00E9401
:100CC000EC0385E692E00E9498038AE00E942204E9
:100CD0008CE00E94220466960FB6F894DEBF0FBE29
:100CE000CDBFDF91CF911F91FF90EF900895EF92CC
:100CF000FF920F931F93CF93DF938C0180913F035B
:100D0000882311F0D0E001C0D8E0CD2F8CE2E82E8E
:100D1000FF24F3948C2F0E94AB05801B910B1816B7
:100D2000190634F48C2F0E94AB05801B910B07C071
:100D30008C2F0E94AB059801281B390BC9018E1519
:100D40009F0514F4DC2F7C01CF5FC03319F78D2F82
:100D5000DF91CF911F910F91FF90EF900895009731
:100D600069F0FC0101900020E9F73197AF01481BC1
:100D7000590BBC0181E493E00C94DD0080E090E02D
:100D80000895CF93DF93E5E5F1E08491E1E4F1E0AC
:100D9000D491EDE2F1E0C491CC2391F081110E9455
:100DA0005302EC2FF0E0EE0FFF1FE25EFE4FA59125
:100DB000B491EC91ED2381E090E021F480E002C059
:100DC00080E090E0DF91CF9108950F931F93CF9330
:100DD0000E94C1060197D1F100E010E00E94C10617
:100DE000892B49F40F5F1F4F65E070E080E090E0D1
:100DF0000E940803F3CFC801805591098C3D9105ED
:100E000028F00C32114020F0C4E003C0C3E001C060
:100E1000C1E080914003811103C000E010E011C0E7
:100E200010924003C130C9F785E020C00F5F1F4F0B
:100E300009321105A1F065E070E080E090E00E94C9
:100E400008030E94C106019719F4F0CF80E00EC09C
:100E50000832110521F00E94C106892B11F08C2F58
:100E600005C00E94C106892BE1F382E0CF911F915A
:100E70000F910895CF93DF93EC0161E086E00E942B
:100E8000CC02209711F460E004C0CF3FD10531F4CB
:100E900061E086E0DF91CF910C947C02E6E5F1E021
:100EA000E491E330F9F048F4E130B9F0E230A1F533
:100EB00084B5806284BDC8BD34C0E730E9F0E83055
:100EC00019F1E43049F580918000806280938000C0
:100ED000D0938B00C0938A0024C084B5806884BD01
:100EE000C7BD1FC080918000806880938000D09330
:100EF0008900C093880015C08091B00080688093FD
:100F0000B000C093B3000DC08091B00080628093A8
:100F1000B000C093B40005C0C038D1050CF0B8CF04
:100F2000B2CFDF91CF91089550915C0340915D0362
:100F3000252F30E0842F90E0821B930B541710F084
:100F4000CF9608950197089561E08EE00E94EC032A
:100F500060E08FE00E94EC0389E00E94220480E8B8
:100F60000E94D90381E80E94D90382E80E94D90334
:100F700083E80E94D90384E80E94D90385E80E948F
:100F8000D90386E80E94D90387E80E94D90361E06B
:100F90008EE00E94EC0361E08FE00E94EC0388E8A1
:100FA0000E94D90389E80E94D9038AE80E94D903E4
:100FB0008BE80E94D9038CE80E94D9038DE80E9437
:100FC000D9038EE80E94D9038FE80E94D9038AE0F2
:100FD0000C9422048F929F92AF92BF92FF920F9334
:100FE0001F93CF93DF93F82E80913903811105C0B1
:100FF000CFE7D2E002E212E004C0CBE9D1E007E69D
:1010000011E08FE00E9457058C179D0708F04AC039
:101010000817190718F5BC01601B710B80E090E000
:101020000E94A30E4B015C01AE01401B510BBA01A3
:1010300080E090E00E94A30E9B01AC01C501B401C9
:101040000E94020E20E030E048EC52E40E94310F92
:101050000E94740EC62F653010F00AC0C0E082E313
:1010600090E0909338038093370388EC90E00AC0B7
:101070006F3068F484E690E09093380380933703F0
:1010800088EE93E0909336038093350314C0693162
:1010900050F488EC90E0909338038093370388EB0A
:1010A0009BE0F0CFC3E61092380310923703109202
:1010B0003603109235036F2D8EE00E94EC0360E042
:1010C0008FE00E94EC03C83510F081E00DC0CF33F3
:1010D00010F082E009C0C63210F083E005C0CD30C8
:1010E00010F084E001C085E0DF91CF911F910F9156
:1010F000FF90BF90AF909F908F900C94D903CF93A7
:10110000DF9300D000D01F92CDB7DEB7789484B5BE
:10111000826084BD84B5816084BD85B5826085BDF3
:1011200085B5816085BD80916E00816080936E0081
:101130001092810080918100826080938100809173
:101140008100816080938100809180008160809324
:1011500080008091B10084608093B1008091B000E4
:1011600081608093B00080917A00846080937A00DF
:1011700080917A00826080937A0080917A008E7FDD
:1011800080937A0080917A00806880937A00109230
:10119000C10061E08DE00E94CC0261E08DE00E9420
:1011A0007C0260E085E00E94CC0262E085E00E9463
:1011B0007C0261E086E00E94CC0261E083E00E9454
:1011C000CC0261E084E00E94CC0261E082E00E94F7
:1011D000CC0288E090E00E94DF0F8E3EC1F480E0F8
:1011E00090E00E94DF0F8093100369E3E62E63E036
:1011F000F62E01E010E0C8010E94DF0FF701819395
:101200007F010F5F1F4F08301105A9F709C08091BA
:101210003F0381115CC488E0809310030E949F0506
:10122000809110030E94AB050E94E304E0915103FA
:10123000F091520382E08083E0914D03F0914E03E0
:101240001082E0914F03F091500380E1808310926F
:101250005903E0915503F091560386E08083E091B5
:101260005303F0915403808180618083E0915303A4
:10127000F0915403808188608083E0915303F09162
:101280005403808180688083E0915303F09154037C
:1012900080818F7D80830E94C106892B09F0CCC09C
:1012A00060E080E00E9433040E94E506812C912CCE
:1012B000540100E0F12C50E8E52E0E94E506FF20E5
:1012C00069F1823091F018F4813029F093C08530B3
:1012D00008F4FFC38FC00530B9F490913E03992301
:1012E00081F0990F90933E03F8C3053069F4809123
:1012F0003E03811103C0E0923E03EFC390E0959559
:10130000879580933E03E9C3E02FF0E0E75CFC4F54
:1013100081E09081911180E08083DFC3823069F0A9
:1013200018F4813021F068C0853060F065C00F5F2F
:101330000A3009F0D4C300E0D2C3002309F4CBC3C0
:101340000150CDC3093009F462C0083019F40E947D
:101350009F05C5C3073009F0C0C313E080913E0369
:1013600090E00E943A0768EC70E080E090E00E9414
:10137000080380E090E00E943A0768EB7BE080E0A1
:1013800090E00E940803115049F713E080913E035A
:1013900090E00E943A0764E670E080E090E00E94EE
:1013A000080380E090E00E943A0768EE73E080E076
:1013B00090E00E940803115049F713E080913E032A
:1013C00090E00E943A0762E370E080E090E00E94C3
:1013D000080380E090E00E943A0768EC70E080E04B
:1013E00090E00E940803115049F780E090E00E94CD
:1013F0003A070EC0FF24F394811171C30E94420387
:1014000086169706A806B90608F469C356CF11E0F8
:101410000E9442034B015C01F8EE8F0EF3E09F1E29
:10142000A11CB11C6F2D802F0E943304112309F4DD
:1014300044CF0E947E0530C080913A03882361F139
:101440000E9442034B015C0128E5820E2BE1921EB3
:10145000A11CB11CC12CD12C76010E94420368153D
:1014600079058A059B05C0F40E94C106892BA1F06D
:101470000E944203C616D706E806F90670F70E94D6
:1014800042036B017C01E4EFCE0EE1E0DE1EE11CC5
:10149000F11C0E940504E1CF82E00E9422040E9418
:1014A0004203DC01CB018059984EAF4FBF4F809370
:1014B000220390932303A0932403B093250334E1E4
:1014C000A32EB12C0E94E50680932B03823009F4F1
:1014D000BFC120F4813009F4ADC1E0C1833009F40B
:1014E00029C1843009F0DAC182E00E94220480918F
:1014F00010030E94AB05D82EE92E60E08EE00E941A
:10150000EC036BE08FE00E94EC030EE110E088E159
:101510000E94D90301501109D1F760E08EE00E94CA
:10152000EC036CE08FE00E94EC0380913F03882382
:1015300019F081E191E002C08DE291E00E949803F0
:1015400086E00E942204C12C0D2D1E2D29E3822E3F
:1015500027E1922E0E94E5068111B9C020E080911A
:101560003F03811103C045E050E002C04AE050E073
:10157000040F151F0A33F7E11F0738F0811103C06C
:101580000DE016E102C001EE14E1C8012D830E94B6
:10159000E30469E170E080E090E00E94080384E1E8
:1015A0000E9457058C5891092D81B5010E94E80DC4
:1015B000211103C0C62E21E0D2CF6C832130D9F790
:1015C000C401801B910B20913F03211103C06AE0ED
:1015D00070E002C064E170E00E94E80D8DE1382EF9
:1015E000361A412C512CF12C609113038EE00E948D
:1015F000EC039BE0292E2F18622D8FE00E94EC0354
:101600008091120390E0320122E0620E711C209161
:10161000110330E061E0261537050CF460E051E07D
:10162000481659060CF050E041E0421653060CF003
:1016300040E08615970544F0662371F0552321F1AB
:10164000442311F187E125C0662361F05523C1F0E1
:101650004423D1F086E11DC05523B1F0442371F03D
:1016600085E117C0552321F0442331F084E111C0F6
:10167000442351F082E10DC080E10BC081E109C03B
:10168000442311F083E105C0FF2011F080E201C086
:1016900088E10E94D903632D8EE00E94EC03622D45
:1016A0008FE00E94EC03FF2011F080E201C08FE088
:1016B0000E94D903F39423018CE0F81295CF309265
:1016C0001303C09212032C812093110343CF4801CE
:1016D00084E1881A91080C5E1F4F612C712CC401A3
:1016E0000E94E30469E170E080E090E00E9408035A
:1016F00084E10E9457056816790618F4D82CE92C65
:101700003C0192E0890E911C8016910641F785E01C
:101710000E9422048D2D9E2D0E94E3048D2D9E2D6E
:101720000E947706182F8093100382E00E94220403
:10173000812F77C082E00E9422040E94A40789E1E1
:101740000E94EA07809110030E94AB058C0186E09D
:101750000E94220480913F03811103C085E090E044
:1017600002C08AE090E0080F191F00FD02C00F5F61
:101770001F4F78018CE3D82E812C912C0033E7E1A8
:101780001E0718F4065F1F4F09C080913F038111A7
:1017900003C00DE016E102C001EE14E1C8010E9491
:1017A000E30469E170E080E090E00E94080384E1D6
:1017B0000E9457058816990610F478014C01DA94B6
:1017C000D1100AC06701870104511109F4E1EF0E3D
:1017D000F11C812C912C04C08A3F910578F2F2CF44
:1017E000C8010E94E30469E170E080E090E00E949B
:1017F000080384E10E9457058816990610F46801D1
:101800004C010E5F1F4F0E151F0551F785E00E941A
:101810002204C6010E94E304C6010E947706809359
:1018200010030E94B80560EA7FE080E090E00E942B
:10183000080331C0809110038F3230F080913F0354
:10184000811104C088E019C08F5F17C080E015C007
:1018500080911003803380F4482F50E090913F0333
:10186000911103C028E030E002C020E030E04217D0
:10187000530711F0815001C08FE2809310030E9442
:10188000AB050E94E30410922603109227031092E6
:1018900028031092290381E080932A0380912B036F
:1018A000882381F00E944203DC01CB018059984ECD
:1018B000AF4FBF4F8093220390932303A093240341
:1018C000B093250380912A03882369F010922A039C
:1018D00082E00E94220410922603109227031092A5
:1018E000280310922903C0902603D0902703E0908C
:1018F0002803F09029030E944203C616D706E80683
:10190000F90608F054C00E944203DC01CB01885163
:101910009C4FAF4FBF4F8093260390932703A09314
:101920002803B093290380913B03811110C0C0901C
:101930002203D0902303E0902403F09025030E941B
:1019400042036C157D058E059F0508F0F6C0809159
:101950003C03882309F4C5C081E00E94EA0763E0E4
:101960008EE00E94EC0360E08FE00E94EC03BE0179
:101970006F5F7F4F809110030E9431050E94980392
:1019800080E20E94D9038DE00E94D9038091100368
:101990000E94AB050E94AC0380E20E94D9038CE058
:1019A0000E94D90384E10E9457050E94AC039091E4
:1019B000100380912103981781F00E944203009147
:1019C0001D0310911E0320911F0330912003061761
:1019D00017072807390708F4B7C00E94420300918F
:1019E000190310911A0320911B0330911C03061751
:1019F000170728073907B8F481E090910001911189
:101A000080E0809300010E944203DC01CB018C50F6
:101A10009E4FAF4FBF4F8093190390931A03A0932B
:101A20001B03B0931C03609100018DE00E947C02B7
:101A300080913D03882309F443C08091370390913E
:101A40003803892BE9F10E9442030091150310919C
:101A5000160320911703309118030617170728075C
:101A6000390790F581E090911403911180E0809303
:101A70001403882361F080913E0390E00E943A07AE
:101A80000E94420320913703309138030AC080E05E
:101A900090E00E943A070E94420320913503309162
:101AA0003603DC01CB01820F931FA11DB11D809372
:101AB000150390931603A0931703B093180304C063
:101AC00080E090E00E943A070E94CA01FBCC80E0CF
:101AD000A3CBF12C04C009E002C0FF24F39410E072
:101AE00097CC6CE08EE00E94EC0360E08FE00E94F7
:101AF000EC03BE016F5F7F4F809110030E943105A0
:101B00000E94980380E20E94D9038DE00E94D903CD
:101B1000809110030E94AB050E94AC0380E20E94FA
:101B2000D9038CE00E94D90384E10E9457050E94EA
:101B3000AC0389E10E94EA073ACF82E00E942204C6
:101B400081E08093400333CF0E947E058091100393
:101B5000809321030E944203DC01CB01805F984DFA
:101B6000AF4FBF4F80931D0390931E03A0931F039D
:101B7000B093200332CFE1E4F3E01382128288EEC7
:101B800093E0A0E0B0E084839583A683B78385E0EB
:101B900091E09183808385EC90E09587848784EC45
:101BA00090E09787868780EC90E0918B808B81EC2A
:101BB00090E0938B828B82EC90E0958B848B86EC0B
:101BC00090E0978B868B118E128E138E148E089553
:101BD000AA1BBB1B51E107C0AA1FBB1FA617B70753
:101BE00010F0A61BB70B881F991F5A95A9F780956F
:101BF0009095BC01CD010895EE0FFF1F0590F49163
:101C0000E02D09940E94160E0C94F70E0E94F00E1F
:101C100058F00E94E90E40F029F45F3F29F00C943F
:101C2000E00E51110C942B0F0C94E60E0E94080F3D
:101C300068F39923B1F3552391F3951B550BBB27FB
:101C4000AA2762177307840738F09F5F5F4F220F40
:101C5000331F441FAA1FA9F335D00E2E3AF0E0E837
:101C600032D091505040E695001CCAF72BD0FE2F81
:101C700029D0660F771F881FBB1F26173707480715
:101C8000AB07B0E809F0BB0B802DBF01FF279358CD
:101C90005F4F3AF09E3F510578F00C94E00E0C94A3
:101CA0002B0F5F3FE4F3983ED4F3869577956795C5
:101CB000B795F7959F5FC9F7880F911D9695879502
:101CC00097F90895E1E0660F771F881FBB1F621721
:101CD00073078407BA0720F0621B730B840BBA0BDF
:101CE000EE1F88F7E09508950E94100F88F09F5727
:101CF00098F0B92F9927B751B0F0E1F0660F771F30
:101D0000881F991F1AF0BA95C9F714C0B13091F025
:101D10000E942A0FB1E008950C942A0F672F782FA4
:101D20008827B85F39F0B93FCCF3869577956795EA
:101D3000B395D9F73EF490958095709561957F4F56
:101D40008F4F9F4F0895E89409C097FB3EF49095FC
:101D50008095709561957F4F8F4F9F4F9923A9F084
:101D6000F92F96E9BB279395F69587957795679513
:101D7000B795F111F8CFFAF4BB0F11F460FF1BC057
:101D80006F5F7F4F8F4F9F4F16C0882311F096E9EA
:101D900011C0772321F09EE8872F762F05C0662398
:101DA00071F096E8862F70E060E02AF09A95660F51
:101DB000771F881FDAF7880F9695879597F908950A
:101DC00097F99F6780E870E060E008959FEF80ECEE
:101DD000089500240A941616170618060906089591
:101DE00000240A9412161306140605060895092EF7
:101DF0000394000C11F4882352F0BB0F40F4BF2B66
:101E000011F460FF04C06F5F7F4F8F4F9F4F0895A5
:101E100057FD9058440F551F59F05F3F71F047959B
:101E2000880F97FB991F61F09F3F79F08795089580
:101E3000121613061406551FF2CF4695F1DF08C09F
:101E4000161617061806991FF1CF869571056105BC
:101E500008940895E894BB2766277727CB0197F964
:101E600008950E94440F0C94F70E0E94E90E38F07A
:101E70000E94F00E20F0952311F00C94E00E0C94CB
:101E8000E60E11240C942B0F0E94080F70F3959FFF
:101E9000C1F3950F50E0551F629FF001729FBB2761
:101EA000F00DB11D639FAA27F00DB11DAA1F649FFD
:101EB0006627B00DA11D661F829F2227B00DA11DB0
:101EC000621F739FB00DA11D621F839FA00D611D36
:101ED000221F749F3327A00D611D231F849F600D57
:101EE000211D822F762F6A2F11249F5750409AF080
:101EF000F1F088234AF0EE0FFF1FBB1F661F771F0C
:101F0000881F91505040A9F79E3F510580F00C94D6
:101F1000E00E0C942B0F5F3FE4F3983ED4F38695CC
:101F200077956795B795F795E7959F5FC1F7FE2B76
:101F3000880F911D9695879597F9089581E090E017
:101F4000F8940C94F50FFB01DC0101900D92002038
:101F5000E1F70895BB274A3031F4992322F4BDE21A
:101F6000909581959F4F0C94B60FBB27FB01552789
:101F7000AA27880F991FAA1FA41710F0A41B8395E6
:101F80005051B9F7A05DAA3308F0A95DA19300975D
:101F900079F7B111B1931192CB010C94CF0FDC0101
:101FA000FC01672F71917723E1F7329704C07C9190
:101FB0006D9370836291AE17BF07C8F30895F999C6
:101FC000FECF92BD81BDF89A992780B50895262F3E
:101FD000F999FECF1FBA92BD81BD20BD0FB6F8940E
:0E1FE000FA9AF99A0FBE01960895F894FFCF71
:101FEE0001000000006101DD002A0108011C01A8AA
:101FFE000120352E333520202020202020352E366E
:10200E003020202020202020352E39350020352E5E
:10201E00363520202020202020352E38302020203C
:10202E0020202020352E393500323031372D3033F7
:10203E002D31300076322E322062792044766F6751
:10204E006F6E656E003273206C69706F0033732093
:10205E006C69706F0079657320202020006E6F20F0
:10206E0020202020006C6566742020200072696795
:10207E0068742020006261747465727920747970BE
:10208E0065202020202020200073686F7720737435
:10209E006172742073637265656E202000636F6ECB
:1020AE007374616E7420696E666F206C696E652044
:1020BE0000696E666F206C696E6520706F7369744F
:1020CE00696F6E20006261747465727920616C6153
:1020DE00726D20202020202000616C61726D206CBA
:1020EE006576656C202020202020202000646973F6
:1020FE00706C6179206C6F772062616E6420202095
:10210E000072657365742073657474696E677320ED
:10211E0020202020007465737420616C61726D2024
:10212E002020202020202020006578697420202087
:10213E0020202020202020202020202000657865CF
:10214E006375746500202020202020202020202070
:10215E002020202020202020202020202020002091
:10216E004672657175656E63793A202020202020B5
:10217E00202020202020202000204D487A002043BF
:10218E0068616E6E656C20203A2020202020202071
:10219E002020202020202000204E616D6520202050
:1021AE0020203A2020202020202020202020202007
:1021BE002000426F7363616D204100426F73636153
:1021CE006D204200466F78746563682F444A49203B
:1021DE0000466174536861726B2000526163654200
:1021EE00616E6420004C6F7742616E6420200000A7
:00000001FF
