:100000000C94A5000C94CD000C94CD000C94CD0064
:100010000C94CD000C94CD000C94CD000C94CD002C
:100020000C94CD000C94CD000C94CD000C94CD001C
:100030000C94CD000C94CD000C94CD000C94CD000C
:100040000C9413030C94CD000C94E6010C94C001A5
:100050000C94CD000C94CD000C94CD000C94CD00EC
:100060000C94CD000C94CD0037043C0441044604AC
:100070004E044B045104E916D516C116AD16991657
:10008000851671165D16651678168B169E16B116B6
:10009000C416D716EA164916351621160D16FD1682
:1000A0001117251739176C1680169416A816BC164A
:1000B000D016E416F8161A163F1664168916AE16F0
:1000C000D316F8161D171312201121100722081835
:1000D00006091905230A1A040B1B03240C1C020D24
:1000E0001D25010E1E000F1F2614152716170000D0
:1000F0000000240027002A0000000000250028003E
:100100002B00000000002300260029000404040442
:1001100004040404020202020202030303030303B1
:10012000010204081020408001020408102001028E
:10013000040810200000000800020100000304076A
:100140000000000000000000360811241FBECFEFA1
:10015000D8E0DEBFCDBF12E0A0E0B1E0E2EAFEE110
:1001600002C005900D92A23CB107D9F723E0A2ECA2
:10017000B2E001C01D92AE38B207E1F710E0C5EA67
:10018000D0E004C02197FE010E94560DC43AD10769
:10019000C9F70E9463080C944F0F0C940000FC01F7
:1001A000918D828D981761F0828DDF01A80FB11DAE
:1001B0005D968C91928D9F5F9F73928F90E00895D2
:1001C0008FEF9FEF0895FC01918D828D981731F08C
:1001D000828DE80FF11D858D90E008958FEF9FEFE0
:1001E0000895FC01918D228D892F90E0805C9F4FB6
:1001F000821B91098F739927089581EF92E00E94E5
:10020000F10021E0892B09F420E0822F0895FC0100
:10021000848DDF01A80FB11DA35ABF4F2C91848D8F
:1002200090E001968F739927848FA689B7892C93C4
:10023000A089B1898C9180648C93938D848D98135F
:1002400006C00288F389E02D80818F7D8083089528
:10025000EF92FF920F931F93CF93DF93EC0181E016
:10026000888F9B8D8C8D981305C0E889F9898081D2
:1002700085FD24C0F62E0B8D10E00F5F1F4F0F730E
:100280001127E02E8C8DE8120CC00FB607FCFACFB8
:10029000E889F989808185FFF5CFCE010E940701A9
:1002A000F1CF8B8DFE01E80FF11DE35AFF4FF08275
:1002B0000B8FEA89FB898081806207C0EE89FF8904
:1002C0006083E889F98980818064808381E090E09F
:1002D000DF91CF911F910F91FF90EF900895CF93F1
:1002E000DF93EC01888D8823C9F0EA89FB8980813E
:1002F00085FD05C0A889B9898C9186FD0FC00FB610
:1003000007FCF5CF808185FFF2CFA889B9898C9150
:1003100085FFEDCFCE010E940701E7CFDF91CF919E
:10032000089580E090E0892B29F00E94FD00811162
:100330000C94000008953FB7F8948091C702909103
:10034000C802A091C902B091CA0226B5A89B05C0F7
:100350002F3F19F00196A11DB11D3FBFBA2FA92F44
:10036000982F8827820F911DA11DB11DBC01CD01C1
:1003700043E0660F771F881F991F4A95D1F70895AC
:100380001F920F920FB60F9211242F933F934F930A
:100390005F936F937F938F939F93AF93BF93EF93ED
:1003A000FF9381EF92E00E940701FF91EF91BF91CF
:1003B000AF919F918F917F916F915F914F913F91FD
:1003C0002F910F900FBE0F901F9018951F920F92B4
:1003D0000FB60F9211242F938F939F93EF93FF9358
:1003E000E0910103F09102038081E0910703F09115
:1003F000080382FD12C0908180910A038F5F8F7382
:1004000020910B03821751F0E0910A03F0E0EF50C6
:10041000FD4F958F80930A0301C08081FF91EF917A
:100420009F918F912F910F900FBE0F901F90189555
:10043000833081F028F4813099F08230A1F0089562
:100440008730A9F08830B9F08430D1F480918000F1
:100450008F7D03C0809180008F7780938000089506
:1004600084B58F7702C084B58F7D84BD0895809157
:10047000B0008F7703C08091B0008F7D8093B00073
:1004800008951F93CF93DF93282F30E0F901EC5CA0
:10049000FE4F8491F901E05EFE4FD491F901E45FD3
:1004A000FE4FC491CC23C9F0162F81110E9418026F
:1004B000EC2FF0E0EE0FFF1FE850FF4FA591B49135
:1004C0008FB7F894111105C09C91ED2FE095E923A9
:1004D00002C0EC91ED2BEC938FBFDF91CF911F9178
:1004E000089560E082E00E94410260E084E00E94A2
:1004F000410261E082E00E94410260E082E00C94EF
:10050000410260E082E00E94410261E084E00E94DA
:10051000410261E082E00E94410260E082E00C94CE
:100520004102CF93DF9390E0FC01E05EFE4F249107
:10053000FC01E45FFE4F8491882361F190E0880F15
:10054000991FFC01E251FF4FC591D491FC01E85085
:10055000FF4FA591B491611109C09FB7F8948881AC
:10056000209582238883EC912E230BC0623061F4A6
:100570009FB7F8943881822F809583238883EC91EC
:100580002E2B2C939FBF06C08FB7F894E8812E2B9B
:1005900028838FBFDF91CF9108958F929F92AF9262
:1005A000BF92CF92DF92EF92FF926B017C010E948B
:1005B0009B014B015C01C114D104E104F104F1F091
:1005C0000E949B01DC01CB0188199909AA09BB098A
:1005D000883E9340A105B10570F321E0C21AD1080D
:1005E000E108F10888EE880E83E0981EA11CB11C7A
:1005F000C114D104E104F10419F7DDCFFF90EF90AD
:10060000DF90CF90BF90AF909F908F9008952FB7BD
:10061000F8946091C3027091C4028091C5029091D8
:10062000C6022FBF08951F920F920FB60F9211248A
:100630002F933F938F939F93AF93BF938091C30268
:100640009091C402A091C502B091C6023091C2023D
:1006500026E0230F2D3720F40296A11DB11D05C001
:1006600029E8230F0396A11DB11D2093C202809398
:10067000C3029093C402A093C502B093C6028091B6
:10068000C7029091C802A091C902B091CA02019616
:10069000A11DB11D8093C7029093C802A093C90207
:1006A000B093CA02BF91AF919F918F913F912F91CB
:1006B0000F900FBE0F901F901895CF93DF93EC0112
:1006C0000E944B07FE0101900020E9F73197EC1BD7
:1006D000FD0B8E179F07A0F3CE01DF91CF910C94F5
:1006E00066060F931F93CF93DF93CDB7DEB7619765
:1006F0000FB6F894DEBF0FBECDBF4AE08E010F5F8C
:100700001F4FB8010E94040F0E944B07F80101908F
:100710000020E9F73197E01BF10B8E179F07A0F33C
:10072000C8010E94660661960FB6F894DEBF0FBE40
:10073000CDBFDF91CF911F910F910895CF93DF939C
:100740001F92CDB7DEB7682F69830E944B0769817E
:10075000892BD1F381EF92E00F90DF91CF910C9430
:100760002801CF93DF93D82FC62F0E944B07039702
:10077000E4F36FEF81EF92E00E9428016D2F81EF8B
:1007800092E00E9428016C2F81EF92E0DF91CF91DF
:100790000C9428010E945B076AE08EE00E94B1037E
:1007A00060E08FE00E94B10381E191E00E945D036F
:1007B0006AE08EE00E94B10361E08FE00E94B10325
:1007C0008CE191E00E945D0389E10C94A107CF9335
:1007D000C82F0E944B070297E4F36FEF81EF92E07E
:1007E0000E9428016C2F81EF92E0CF910C94280198
:1007F0001F93CF93DF93182F0E94CA03112319F080
:10080000CFEFC10F01C0C7E0D3E06D2F8FE00E9492
:10081000B10360E08EE00E94B103C83008F0C0E090
:10082000C11305C08BE00E94E70389E004C08CE09F
:100830000E94E7038AE00E94E7034C2F50E0FA0190
:100840003197E730F10520F4EC5CFF4F0C94560D26
:100850008DE591E00E945D03C230B9F118F4C1301A
:1008600039F530C0C330A1F1C43011F53BC081E788
:1008700091E00E945D0326C085E891E00E945D033F
:1008800024C089E991E00E945D0322C08DEA91E0D5
:100890000E945D0327C081EC91E005C085ED91E0E9
:1008A00002C089EE91E00E945D038DEF91E023C0CC
:1008B0008091EB02811103C085E391E01CC08DE2C1
:1008C00091E019C08091EC0205C08091ED0202C058
:1008D0008091EE02811103C085E491E00CC08DE3AC
:1008E00091E009C08091EF02811103C085E591E09C
:1008F00002C08DE491E00E945D03CF5FDF5FDB30DB
:1009000009F083CF8AE0DF91CF911F910C94E70328
:100910001F93CF93DF938F5D91409C013695279570
:100920002F71EC0156E0D695C7955A95E1F7D6950B
:10093000DC2FCC27D795C795C22B61E083E00E94BE
:10094000410260E083E00E9441020E9481020E9415
:1009500071020E9471020E9471020E94810210E1E4
:10096000C0FF03C00E94810202C00E947102D6959E
:10097000C7951150A9F70E9471020E9471020E944E
:1009800071020E94710261E083E00E94410260E016
:1009900083E00E94410260E082E00E94410260E048
:1009A00084E0DF91CF911F910C944102DB01E82F8D
:1009B000F0E0EA53FF4FE491E83010F481E60DC017
:1009C000E03110F482E609C0E83110F485E605C094
:1009D000E03210F486E601C082E78C93E770EF5CAA
:1009E0001196EC93119712961C921297CD010895CF
:1009F00092EF980F8E3008F0892F8770982F9064AF
:100A000080E240E050E090937C0020917A002064E6
:100A100020937A0020917A0026FDFCCF2091780067
:100A20006091790030E0362B420F531F815059F707
:100A3000CA0125E0969587952A95E1F708950F93C9
:100A40001F93CF93DF936091CB0280E090E00E94F0
:100A5000410F0BEE12E0C0E0D0E0F80161918F0190
:100A60002196CE010E94410FC530D105B1F76EEE3F
:100A700086E090E0DF91CF911F910F910C94410F90
:100A8000E82FF0E0EA53FF4FE491F0E0EE0FFF1F94
:100A9000EA58FF4F859194910895EF92FF921F932A
:100AA000CF93DF93CDB7DEB766970FB6F894DEBF6E
:100AB0000FBECDBF182F0E945B0789E10E94A107DE
:100AC0008BE00E94E70389E00E94E70361E08EE08B
:100AD0000E94B10363E08FE00E94B10385E092E0E1
:100AE0000E945D0361E08EE00E94B10364E08FE04C
:100AF0000E94B1038FE192E00E945D036DE08EE001
:100B00000E94B103812F0E9440050E94710389E376
:100B100092E00E945D0361E08EE00E94B10365E017
:100B20008FE00E94B1038EE392E00E945D036DE0CE
:100B30008EE00E94B103CE0101967C01BC01812FA1
:100B40000E94D6040E945D0361E08EE00E94B10322
:100B500066E08FE00E94B10388E592E00E945D03A9
:100B60006DE08EE00E94B103E12FF0E0EA53FF4F09
:100B70001491183018F462E772E011C0103118F4C3
:100B80006BE772E00CC0183118F464E872E007C03B
:100B9000103218F461E972E002C06BE972E0C7013B
:100BA0000E94FD0EF70101900020E9F73197EE1940
:100BB000FF09CF019927D701A80FB91FE12FE770CF
:100BC000EF5CEC93FE01E80FF91F1282C7010E944F
:100BD0005D0361E08EE00E94B10367E08FE00E9458
:100BE000B10385E092E00E945D038AE00E94E70382
:100BF0008CE00E94E70366960FB6F894DEBF0FBE46
:100C0000CDBFDF91CF911F91FF90EF900895EF92AC
:100C1000FF920F931F93CF93DF938C01C0E0D0E03E
:100C20008CE2E82EFF24F3948C2F0E944005801B59
:100C3000910B1816190634F48C2F0E944005801B66
:100C4000910B07C08C2F0E9440059801281B390B7F
:100C5000C9018E159F0514F4DC2F7C01CF5FC832CB
:100C600019F78D2FDF91CF911F910F91FF90EF908A
:100C70000895CF92DF92EF92FF920F931F93CF933D
:100C8000DF936C017A018B01C0E0D0E0CE15DF0567
:100C900089F0D8016D918D01D601ED91FC91019003
:100CA000F081E02DC6010995892B11F47E0102C067
:100CB0002196ECCFC701DF91CF911F910F91FF904B
:100CC000EF90DF90CF9008950E94F80E009769F0A2
:100CD000FC0101900020E9F73197AF01481B590B47
:100CE000BC0181EF92E00C94390680E090E0089519
:100CF000CF93DF93E9E3F1E08491E5E2F1E0D49171
:100D0000E1E1F1E0C491CC2391F081110E9418023D
:100D1000EC2FF0E0EE0FFF1FEE5FFE4FA591B491B8
:100D2000EC91ED2381E090E021F480E002C080E0CE
:100D300090E0DF91CF9108950F931F93CF930E947E
:100D400078060197D1F100E010E00E947806892B27
:100D500049F40F5F1F4F65E070E080E090E00E9473
:100D6000CD02F3CFC801805591098C3D910528F043
:100D70000C32114020F0C4E003C0C3E001C0C1E068
:100D80008091F002811103C000E010E011C01092C8
:100D9000F002C130C9F785E020C00F5F1F4F093254
:100DA0001105A1F065E070E080E090E00E94CD02C6
:100DB0000E947806019719F4F0CF80E00EC0083247
:100DC000110521F00E947806892B11F08C2F05C0A7
:100DD0000E947806892BE1F382E0CF911F910F9159
:100DE0000895CF93DF93EC0161E086E00E949102C9
:100DF000209711F460E004C0CF3FD10531F461E0E9
:100E000086E0DF91CF910C944102EAE3F1E0E491B6
:100E1000E330F9F048F4E130B9F0E230A1F584B5FF
:100E2000806284BDC8BD34C0E730E9F0E83019F114
:100E3000E43049F580918000806280938000D093F7
:100E40008B00C0938A0024C084B5806884BDC7BD70
:100E50001FC080918000806880938000D0938900BB
:100E6000C093880015C08091B00080688093B00066
:100E7000C093B3000DC08091B00080628093B00039
:100E8000C093B40005C0C038D1050CF0B8CFB2CFC4
:100E9000DF91CF91089550910C0340910D03252FC0
:100EA00030E0842F90E0821B930B541710F0CF9604
:100EB00008950197089561E08EE00E94B10360E01B
:100EC0008FE00E94B10389E00E94E70380E80E945E
:100ED0009E0381E80E949E0382E80E949E0383E8AD
:100EE0000E949E0384E80E949E0385E80E949E0360
:100EF00086E80E949E0387E80E949E0361E08EE0E0
:100F00000E94B10361E08FE00E94B10388E80E9473
:100F10009E0389E80E949E038AE80E949E038BE854
:100F20000E949E038CE80E949E038DE80E949E030F
:100F30008EE80E949E038FE80E949E038AE00C9434
:100F4000E7038F929F92AF92BF92FF920F931F93EE
:100F5000CF93DF93F82E8091EB02811105C0CFE78C
:100F6000D2E002E212E004C0CBE9D1E007E611E0F2
:100F70008FE00E94F8048C179D0708F04AC00817FC
:100F8000190718F5BC01601B710B80E090E00E940E
:100F9000FD0D4B015C01AE01401B510BBA0180E01D
:100FA00090E00E94FD0D9B01AC01C501B4010E94BF
:100FB0005C0D20E030E048EC52E40E948B0E0E9471
:100FC000CE0DC62F653010F00AC0C0E082E390E07D
:100FD0009093EA028093E90288EC90E00AC06F30B7
:100FE00068F484E690E09093EA028093E90288EE48
:100FF00093E09093E8028093E70214C0693150F4C3
:1010000088EC90E09093EA028093E90288EB9BE001
:10101000F0CFC3E61092EA021092E9021092E802C1
:101020001092E7026F2D8EE00E94B10360E08FE026
:101030000E94B103C83510F081E00DC0CF3310F02D
:1010400082E009C0C63210F083E005C0CD3010F058
:1010500084E001C085E0DF91CF911F910F91FF9057
:10106000BF90AF909F908F900C949E03E1EFF2E0C1
:101070001382128288EE93E0A0E0B0E0848395832F
:10108000A683B78385E091E09183808385EC90E02F
:101090009587848784EC90E09787868780EC90E042
:1010A000918B808B81EC90E0938B828B82EC90E033
:1010B000958B848B86EC90E0978B868B118E128EAD
:1010C000138E148E0895CF93DF9300D01F92CDB767
:1010D000DEB7789484B5826084BD84B5816084BDB8
:1010E00085B5826085BD85B5816085BD80916E00C6
:1010F000816080936E0010928100809181008260F7
:101100008093810080918100816080938100809133
:1011100080008160809380008091B1008460809322
:10112000B1008091B00081608093B00080917A001E
:10113000846080937A0080917A00826080937A0044
:1011400080917A008E7F80937A0080917A00806807
:1011500080937A001092C10061E08DE00E949102BC
:1011600061E08DE00E94410260E085E00E94910212
:1011700062E085E00E94410261E086E00E94910207
:1011800061E083E00E94910261E084E00E949102AC
:1011900061E082E00E94910286E090E00E94390FB7
:1011A0008E3E09F015C480E090E00E94390F8093D4
:1011B000CB024BEEE42E42E0F42E01E010E0C80139
:1011C0000E94390FF70181937F010F5F1F4F063097
:1011D0001105A9F78091CB020E9440050E94880466
:1011E000E0910103F091020382E08083E091FD022F
:1011F000F091FE021082E091FF02F091000380E185
:10120000808310920903E0910503F091060386E0C4
:101210008083E0910303F0910403808180618083E7
:10122000E0910303F0910403808188608083E09162
:101230000303F0910403808180688083E0910303BD
:10124000F091040380818F7D80830E947806892B32
:1012500009F0A7C080E00E94F8030E949C06C12C00
:10126000D12C760110E0BB24B3940E949C068230FE
:1012700069F018F4813021F075C0853060F072C0DB
:101280001F5F183009F0B3C310E0B1C3112309F494
:10129000ADC31150ACC3173009F46FC0163059F408
:1012A0001092EB02B092EC02B092ED02B092EE021C
:1012B0001092EF029CC3153009F04AC003E080E2AF
:1012C00090E00E94F10668EC70E080E090E00E94FF
:1012D000CD0280E090E00E94F10668EB7BE080E0C8
:1012E00090E00E94CD02015051F703E080E290E0CF
:1012F0000E94F10664E670E080E090E00E94CD027A
:1013000080E090E00E94F10668EE73E080E090E0FB
:101310000E94CD02015051F703E080E290E00E946C
:10132000F10662E370E080E090E00E94CD0280E090
:1013300090E00E94F10668EC70E080E090E00E948E
:10134000CD02015051F780E090E00E94F10616C0F6
:10135000E12FF0E0E551FD4F81E09081911180E0B7
:10136000808345C3811143C30E940703C616D70675
:10137000E806F90608F43BC378CF01E00E940703B2
:101380006B017C01F8EECF0EF3E0DF1EE11CF11CD7
:10139000812F0E94F803002309F467CF0E941F05E4
:1013A00030C08091ED02882361F10E9407034B0158
:1013B0005C0128E5820E2BE1921EA11CB11CC12C00
:1013C000D12C76010E940703681579058A059B05D3
:1013D000C0F40E947806892BA1F00E940703C6166C
:1013E000D706E806F90670F70E9407036B017C0137
:1013F000E4EFCE0EE1E0DE1EE11CF11C0E94CA0308
:10140000E1CF82E00E94E7030E940703DC01CB01E9
:101410008059984EAF4FBF4F8093DD029093DE020C
:10142000A093DF02B093E002EE24E39434E1832E34
:10143000912C0E949C068093E602823009F49AC1A6
:1014400020F4813009F48EC1ABC1833009F413C19B
:10145000843009F0A5C182E00E94E7038091CB02AD
:101460000E9440056C0160E08EE00E94B1036BE0D9
:101470008FE00E94B1030EE110E088E10E949E031C
:1014800001501109D1F760E08EE00E94B1036CE0D9
:101490008FE00E94B10385EA92E00E945D0386E03E
:1014A0000E94E70386010E949C068111B4C00B5F75
:1014B0001F4F0A3387E1180710F00DE016E1C8014D
:1014C0000E94880469E170E080E090E00E94CD0213
:1014D00084E10E94F8048C589109B4010E94420DE5
:1014E000462E0B5F1F4F0A33E7E11E0710F00DE099
:1014F00016E1C8010E94880469E170E080E090E094
:101500000E94CD0284E10E94F8048C589109B40134
:101510000E94420D362E89E397E1801B910B6AE011
:1015200070E00E94420D8DE1282E261A612C712C4C
:10153000F12C6091CE028EE00E94B1032BE0522E7E
:101540005F18652D8FE00E94B1038091CD0290E07D
:101550005301F2E0AF0EB11C2091CC0230E061E00B
:101560002A153B050CF460E051E0681679060CF092
:1015700050E041E0621673060CF040E08A159B05CE
:1015800044F0662371F0552321F1442311F187E1E2
:1015900025C0662361F05523C1F04423D1F086E1D4
:1015A0001DC05523B1F0442371F085E117C05523C8
:1015B00021F0442331F084E111C0442351F082E151
:1015C0000DC080E10BC081E109C0442311F083E12B
:1015D00005C0FF2011F080E201C088E10E949E0357
:1015E000622D8EE00E94B103652D8FE00E94B10351
:1015F000FF2011F080E201C08FE00E949E03F3946F
:1016000035012CE0F21295CF2092CE024092CD020D
:101610003092CC0248CF5801F4E1AF1AB1080C5E09
:101620001F4F612C712CC5010E94880469E170E094
:1016300080E090E00E94CD0284E10E94F8046816E8
:10164000790610F465013C0122E0A20EB11CA0163F
:10165000B10649F785E00E94E703C6010E948804AD
:10166000C6010E940706182F8093CB0282E00E94D9
:10167000E703812F6EC082E00E94E7030E945B07B0
:1016800089E10E94A1078091CB020E9440056C0174
:1016900086E00E94E7038601065F1F4F00FD02C03F
:1016A0000F5F1F4F68019CE3F92EA12CB12C85E33D
:1016B000C81687E1D80620F4E5E0CE0ED11C04C0A0
:1016C0008DE0C82E86E1D82EC6010E94880469E10B
:1016D00070E080E090E00E94CD0284E10E94F80476
:1016E000A816B90610F486015C01FA94F1100BC03B
:1016F0006801F4E1CF1AD108580124E1A20EB11C0F
:10170000612C712C04C08A3F910588F2F1CFC6018B
:101710000E94880469E170E080E090E00E94CD02C0
:1017200084E10E94F8046816790610F486013C01F1
:1017300082E0C80ED11CCA14DB0449F785E00E9480
:10174000E703C8010E948804C8010E94070680932D
:10175000CB020E944D0560EA7FE080E090E00E94AD
:10176000CD021CC08091CB02873210F48F5F08C07D
:1017700080E006C08091CB028150873208F087E27A
:101780008093CB020E9440050E9488041092E102DF
:101790001092E2021092E3021092E402E092E5025B
:1017A0008091E602882381F00E940703DC01CB01CF
:1017B0008059984EAF4FBF4F8093DD029093DE0269
:1017C000A093DF02B093E0028091E502882369F0E4
:1017D0001092E50282E00E94E7031092E10210926B
:1017E000E2021092E3021092E4024090E102509073
:1017F000E2026090E3027090E4020E940703461642
:1018000057066806790608F054C00E940703DC01F9
:10181000CB0188519C4FAF4FBF4F8093E102909313
:10182000E202A093E302B093E4028091EE02811100
:1018300010C04090DD025090DE026090DF02709098
:10184000E0020E940703641575058605970508F0F8
:10185000FCC08091EF02882309F4CBC081E00E9494
:10186000A10763E08EE00E94B10360E08FE00E9478
:10187000B103BE016F5F7F4F8091CB020E94D604FF
:101880000E945D0380E20E949E038DE00E949E0301
:101890008091CB020E9440050E94710380E20E9469
:1018A0009E038CE00E949E0384E10E94F8040E9443
:1018B00071039091CB028091DC02981781F00E9415
:1018C00007030091D8021091D9022091DA023091D9
:1018D000DB02061717072807390708F4BCC00E9467
:1018E00007030091D4021091D5022091D6023091C5
:1018F000D7020617170728073907B8F481E0909137
:101900000001911180E0809300010E940703DC0137
:10191000CB018C509E4FAF4FBF4F8093D40290931A
:10192000D502A093D602B093D702609100018DE05A
:101930000E9441028091EC02882309F442C0809108
:10194000E9029091EA02892BE1F10E9407030091DC
:10195000D0021091D1022091D2023091D302061709
:1019600017072807390788F581E09091CF02911178
:1019700080E08093CF02882359F080E290E00E94BB
:10198000F1060E9407032091E9023091EA020AC0A1
:1019900080E090E00E94F1060E9407032091E70298
:1019A0003091E802DC01CB01820F931FA11DB11D14
:1019B0008093D0029093D102A093D202B093D3022D
:1019C00004C080E090E00E94F1060E94910131CDB8
:1019D0001092CB021092EB0281E08093EC02809394
:1019E000ED028093EE021092EF02F4CB17E000E0DC
:1019F000C5CC6CE08EE00E94B10360E08FE00E94F5
:101A0000B103BE016F5F7F4F8091CB020E94D6046D
:101A10000E945D0380E20E949E038DE00E949E036F
:101A20008091CB020E9440050E94710380E20E94D7
:101A30009E038CE00E949E0384E10E94F8040E94B1
:101A4000710389E10E94A10734CF82E00E94E7037D
:101A5000E092F0022ECF0E941F058091CB0280936E
:101A6000DC020E940703DC01CB01805F984DAF4F81
:101A7000BF4F8093D8029093D902A093DA02B0931B
:101A8000DB022DCFAA1BBB1B51E107C0AA1FBB1F46
:101A9000A617B70710F0A61BB70B881F991F5A95FA
:101AA000A9F780959095BC01CD010895EE0FFF1F19
:101AB0000590F491E02D09940E94700D0C94510E44
:101AC0000E944A0E58F00E94430E40F029F45F3FF6
:101AD00029F00C943A0E51110C94850E0C94400E82
:101AE0000E94620E68F39923B1F3552391F3951B7D
:101AF000550BBB27AA2762177307840738F09F5F2F
:101B00005F4F220F331F441FAA1FA9F335D00E2E9B
:101B10003AF0E0E832D091505040E695001CCAF708
:101B20002BD0FE2F29D0660F771F881FBB1F2617CB
:101B300037074807AB07B0E809F0BB0B802DBF01A2
:101B4000FF2793585F4F3AF09E3F510578F00C9471
:101B50003A0E0C94850E5F3FE4F3983ED4F38695DD
:101B600077956795B795F7959F5FC9F7880F911D92
:101B70009695879597F90895E1E0660F771F881F7E
:101B8000BB1F621773078407BA0720F0621B730B31
:101B9000840BBA0BEE1F88F7E09508950E946A0E39
:101BA00088F09F5798F0B92F9927B751B0F0E1F01E
:101BB000660F771F881F991F1AF0BA95C9F714C0CE
:101BC000B13091F00E94840EB1E008950C94840E1F
:101BD000672F782F8827B85F39F0B93FCCF3869507
:101BE00077956795B395D9F73EF490958095709564
:101BF00061957F4F8F4F9F4F0895E89409C097FBE1
:101C00003EF490958095709561957F4F8F4F9F4FD3
:101C10009923A9F0F92F96E9BB279395F695879517
:101C200077956795B795F111F8CFFAF4BB0F11F4DA
:101C300060FF1BC06F5F7F4F8F4F9F4F16C0882381
:101C400011F096E911C0772321F09EE8872F762FB7
:101C500005C0662371F096E8862F70E060E02AF0F8
:101C60009A95660F771F881FDAF7880F96958795E4
:101C700097F9089597F99F6780E870E060E008950C
:101C80009FEF80EC089500240A9416161706180694
:101C90000906089500240A94121613061406050670
:101CA0000895092E0394000C11F4882352F0BB0F01
:101CB00040F4BF2B11F460FF04C06F5F7F4F8F4F64
:101CC0009F4F089557FD9058440F551F59F05F3F9F
:101CD00071F04795880F97FB991F61F09F3F79F04E
:101CE00087950895121613061406551FF2CF4695D0
:101CF000F1DF08C0161617061806991FF1CF869552
:101D00007105610508940895E894BB276627772735
:101D1000CB0197F908950E949E0E0C94510E0E94DB
:101D2000430E38F00E944A0E20F0952311F00C94D7
:101D30003A0E0C94400E11240C94850E0E94620EF3
:101D400070F3959FC1F3950F50E0551F629FF0010E
:101D5000729FBB27F00DB11D639FAA27F00DB11D27
:101D6000AA1F649F6627B00DA11D661F829F2227B0
:101D7000B00DA11D621F739FB00DA11D621F839F37
:101D8000A00D611D221F749F3327A00D611D231F0D
:101D9000849F600D211D822F762F6A2F11249F575B
:101DA00050409AF0F1F088234AF0EE0FFF1FBB1F5E
:101DB000661F771F881F91505040A9F79E3F51051D
:101DC00080F00C943A0E0C94850E5F3FE4F3983E3D
:101DD000D4F3869577956795B795F795E7959F5FC7
:101DE000C1F7FE2B880F911D9695879597F9089559
:101DF00081E090E0F8940C944F0FFB01DC0101901E
:101E00000D920020E1F70895BB274A3031F4992361
:101E100022F4BDE2909581959F4F0C94100FBB2743
:101E2000FB015527AA27880F991FAA1FA41710F096
:101E3000A41B83955051B9F7A05DAA3308F0A95DA2
:101E4000A193009779F7B111B1931192CB010C9442
:101E5000290FDC01FC01672F71917723E1F732979D
:101E600004C07C916D9370836291AE17BF07C8F375
:101E70000895F999FECF92BD81BDF89A992780B552
:101E80000895262FF999FECF1FBA92BD81BD20BDBE
:101E90000FB6F894FA9AF99A0FBE01960895F8943D
:021EA000FFCF72
:101EA200010000000028013906F100CF00E3006FB5
:101EB20001323031362D31302D31330076322E3130
:101EC2002062792044766F676F6E656E00327320F0
:101ED2006C69706F003373206C69706F0079657381
:101EE20020202020006E6F2020202020006C6566BC
:101EF2007420202000726967687420200062617477
:101F02007465727920747970652020202020202049
:101F1200006261747465727920616C61726D202057
:101F2200202020200073686F772073746172742000
:101F320073637265656E202000636F6E7374616EE9
:101F42007420696E666F206C696E652000696E662A
:101F52006F206C696E6520706F736974696F6E2093
:101F62000072657365742073657474696E6773209B
:101F720020202020007465737420616C61726D20D2
:101F82002020202020202020006578697420202035
:101F9200202020202020202020202020006578657D
:101FA200637574650020202020202020202020201E
:101FB200202020202020202020202020202000203F
:101FC2004672657175656E63793A20202020202063
:101FD200202020202020202000204D487A0020436D
:101FE20068616E6E656C20203A202020202020201F
:101FF2002020202020202000204E616D65202020FE
:1020020020203A20202020202020202020202020B4
:102012002000426F7363616D204100426F73636100
:102022006D204200466F78746563682F444A4920E8
:1020320000466174536861726B200052616365628D
:10204200616E6420002020352E363520202020208D
:102052002020352E383020202020202020352E39F7
:02206200350047
:00000001FF
