:100000000C94A5000C94CD000C94CD000C94CD0064
:100010000C94CD000C94CD000C94CD000C94CD002C
:100020000C94CD000C94CD000C94CD000C94CD001C
:100030000C94CD000C94CD000C94CD000C94CD000C
:100040000C9440030C94CD000C94EE010C94C80168
:100050000C94CD000C94CD000C94CD000C94CD00EC
:100060000C94CD000C94CD00640469046E047304F8
:100070007B0478047E0400000000240027002A008E
:1000800000000000250028002B00E916D516C11637
:10009000AD169916851671165D16651678168B16AF
:1000A0009E16B116C416D716EA164916351621162D
:1000B0000D16FD161117251739176C168016941694
:1000C000A816BC16D016E416F8161A163F166416B3
:1000D0008916AE16D316F8161D171312201121100B
:1000E0000722081806091905230A1A040B1B032402
:1000F0000C1C020D1D25010E1E000F1F26141527B6
:100100001617000000002300260029000404040440
:1001100004040404020202020202030303030303B1
:10012000010204081020408001020408102001028E
:10013000040810200000000800020100000304076A
:100140000000000000000000400811241FBECFEF97
:10015000D8E0DEBFCDBF12E0A0E0B1E0EEE5FEE109
:1001600002C005900D92A23CB107D9F723E0A2ECA2
:10017000B2E001C01D92AE38B207E1F710E0C5EA67
:10018000D0E004C02197FE010E94340DC43AD1078B
:10019000C9F70E946D080C942D0F0C940000CF92AB
:1001A000DF92EF92FF920F931F93CF93DF936C0137
:1001B0007A018B01C0E0D0E0CE15DF0589F0D801CF
:1001C0006D918D01D601ED91FC910190F081E02DB2
:1001D000C6010995892B11F47E0102C02196ECCF4E
:1001E000C701DF91CF911F910F91FF90EF90DF90AA
:1001F000CF900895FC01918D828D981761F0828DCA
:10020000DF01A80FB11D5D968C91928D9F5F9F734A
:10021000928F90E008958FEF9FEF0895FC01918DEC
:10022000828D981731F0828DE80FF11D858D90E059
:1002300008958FEF9FEF0895FC01918D228D892FF6
:1002400090E0805C9F4F821B91098F7399270895DE
:1002500081EF92E00E941C0121E0892B09F420E04B
:10026000822F0895FC01848DDF01A80FB11DA35AD0
:10027000BF4F2C91848D90E001968F739927848FC6
:10028000A689B7892C93A089B1898C9180648C93BD
:10029000938D848D981306C00288F389E02D8081A8
:1002A0008F7D80830895EF92FF920F931F93CF93DA
:1002B000DF93EC0181E0888F9B8D8C8D981305C0B6
:1002C000E889F989808185FD24C0F62E0B8D10E028
:1002D0000F5F1F4F0F731127E02E8C8DE8120CC09B
:1002E0000FB607FCFACFE889F989808185FFF5CF41
:1002F000CE010E943201F1CF8B8DFE01E80FF11D7E
:10030000E35AFF4FF0820B8FEA89FB89808180627C
:1003100007C0EE89FF896083E889F989808180645C
:10032000808381E090E0DF91CF911F910F91FF904A
:10033000EF900895CF93DF93EC01888D8823C9F067
:10034000EA89FB89808185FD05C0A889B9898C91DE
:1003500086FD0FC00FB607FCF5CF808185FFF2CF79
:10036000A889B9898C9185FFEDCFCE010E94320119
:10037000E7CFDF91CF91089580E090E0892B29F0BD
:100380000E94280181110C94000008950E94D60E4D
:100390001F920F920FB60F9211242F933F934F93FA
:1003A0005F936F937F938F939F93AF93BF93EF93DD
:1003B000FF9381EF92E00E943201FF91EF91BF9194
:1003C000AF919F918F917F916F915F914F913F91ED
:1003D0002F910F900FBE0F901F9018951F920F92A4
:1003E0000FB60F9211242F938F939F93EF93FF9348
:1003F000E0910103F09102038081E0910703F09105
:10040000080382FD12C0908180910A038F5F8F7371
:1004100020910B03821751F0E0910A03F0E0EF50B6
:10042000FD4F958F80930A0301C08081FF91EF916A
:100430009F918F912F910F900FBE0F901F90189545
:10044000833081F028F4813099F08230A1F0089552
:100450008730A9F08830B9F08430D1F480918000E1
:100460008F7D03C0809180008F77809380000895F6
:1004700084B58F7702C084B58F7D84BD0895809147
:10048000B0008F7703C08091B0008F7D8093B00063
:1004900008951F93CF93DF93282F30E0F901EC5C90
:1004A000FE4F8491F901E05EFE4FD491F901E45FC3
:1004B000FE4FC491CC23C9F0162F81110E94200257
:1004C000EC2FF0E0EE0FFF1FE058FF4FA591B49125
:1004D0008FB7F894111105C09C91ED2FE095E92399
:1004E00002C0EC91ED2BEC938FBFDF91CF911F9168
:1004F0000895CF93DF9390E0FC01E05EFE4F2491DE
:10050000FC01E45FFE4F8491882361F190E0880F45
:10051000991FFC01EA58FF4FC591D491FC01E058A6
:10052000FF4FA591B491611109C09FB7F8948881DC
:10053000209582238883EC912E230BC0623061F4D6
:100540009FB7F8943881822F809583238883EC911C
:100550002E2B2C939FBF06C08FB7F894E8812E2BCB
:1005600028838FBFDF91CF9108958F929F92AF9292
:10057000BF92CF92DF92EF92FF926B017C010E94BB
:100580000F034B015C01C114D104E104F104F1F04B
:100590000E940F03DC01CB0188199909AA09BB0944
:1005A000883E9340A105B10570F321E0C21AD1083D
:1005B000E108F10888EE880E83E0981EA11CB11CAA
:1005C000C114D104E104F10419F7DDCFFF90EF90DD
:1005D000DF90CF90BF90AF909F908F90089560E094
:1005E00082E00E94490260E084E00E94490261E0EA
:1005F00082E00E94490260E082E00C94490260E0DF
:1006000082E00E94490261E084E00E94490261E0C8
:1006100082E00E94490260E082E00C9449023FB708
:10062000F8948091E3029091E402A091E502B091E8
:10063000E60226B5A89B05C02F3F19F00196A11D23
:10064000B11D3FBFBA2FA92F982F8827820F911D68
:10065000A11DB11DBC01CD0143E0660F771F881FAE
:10066000991F4A95D1F708952FB7F8946091DF024A
:100670007091E0028091E1029091E2022FBF089513
:100680001F920F920FB60F9211242F933F938F93C7
:100690009F93AF93BF938091DF029091E002A0916E
:1006A000E102B091E2023091DE0226E0230F2D3705
:1006B00020F40296A11DB11D05C029E8230F039661
:1006C000A11DB11D2093DE028093DF029093E00212
:1006D000A093E102B093E2028091E3029091E402E0
:1006E000A091E502B091E6020196A11DB11D809393
:1006F000E3029093E402A093E502B093E602BF9177
:10070000AF919F918F913F912F910F900FBE0F90BE
:100710001F901895CF93DF93EC010E944B07FE01C9
:1007200001900020E9F73197EC1BFD0B8E179F0716
:10073000A0F3CE01DF91CF910C9466060F931F9327
:10074000CF93DF93CDB7DEB761970FB6F894DEBFD6
:100750000FBECDBF4AE08E010F5F1F4FB8010E9450
:10076000E20E0E944B07F80101900020E9F7319753
:10077000E01BF10B8E179F07A0F3C8010E946606CD
:1007800061960FB6F894DEBF0FBECDBFDF91CF915B
:100790001F910F910895CF93DF931F92CDB7DEB7CE
:1007A000682F69830E944B076981892BD1F381EF00
:1007B00092E00F90DF91CF910C945301CF93DF9390
:1007C000D82FC62F0E944B070397E4F36FEF81EFFA
:1007D00092E00E9453016D2F81EF92E00E9453013D
:1007E0006C2F81EF92E0DF91CF910C9453010E9426
:1007F0005B076AE08EE00E94DE0360E08FE00E940B
:10080000DE038EE291E00E948A036AE08EE00E949D
:10081000DE0361E08FE00E94DE0389E391E00E9445
:100820008A0380E00C94A107CF93C82F0E944B0746
:100830000297E4F36FEF81EF92E00E9453016C2F77
:1008400081EF92E0CF910C9453011F93CF93DF93EC
:10085000182F0E94F703112319F0CFEFC10F01C029
:10086000C7E0D3E06D2F8FE00E94DE0360E08EE0F2
:100870000E94DE03C83008F0C0E0C11305C08BE061
:100880000E94140489E004C08CE00E9414048AE0F1
:100890000E9414044C2F50E0FA013197E730F10523
:1008A00020F4EC5CFF4F0C94340D8AE791E00E9439
:1008B0008A03C230B9F118F4C13039F530C0C33001
:1008C000A1F1C43011F53BC08EE891E00E948A038B
:1008D00026C082EA91E00E948A0324C086EB91E060
:1008E0000E948A0322C08AEC91E00E948A0327C0FA
:1008F0008EED91E005C082EF91E002C086E092E0CB
:100900000E948A038AE192E023C08091EB02811168
:1009100003C082E591E01CC08AE491E019C0809197
:10092000EC0205C08091ED0202C08091EE028111BF
:1009300003C082E691E00CC08AE591E009C0809195
:10094000EF02811103C082E791E002C08AE691E0E4
:100950000E948A03CF5FDF5FDB3009F083CF8AE03C
:10096000DF91CF911F910C9414041F93CF93DF93C9
:100970008F5D91409C01369527952F71EC0156E0D3
:10098000D695C7955A95E1F7D695DC2FCC27D79504
:10099000C795C22B61E083E00E94490260E083E0DA
:1009A0000E9449020E94FF020E94EF020E94EF0291
:1009B0000E94EF020E94FF0210E1C0FF03C00E94EC
:1009C000FF0202C00E94EF02D695C7951150A9F709
:1009D0000E94EF020E94EF020E94EF020E94EF02CB
:1009E00061E083E00E94490260E083E00E944902E6
:1009F00060E082E00E94490260E084E0DF91CF91F4
:100A00001F910C944902DB01E82FF0E0E652FF4F02
:100A1000E491E83010F481E60DC0E03110F482E694
:100A200009C0E83110F485E605C0E03210F486E62E
:100A300001C082E78C93E770EF5C1196EC931197FD
:100A400012961C921297CD01089592EF980F8E3056
:100A500008F0892F8770982F906480E240E050E082
:100A600090937C0020917A00206420937A0020915A
:100A70007A0026FDFCCF209178006091790030E06B
:100A8000362B420F531F815059F7CA0125E0969526
:100A900087952A95E1F708950F931F93CF93DF93DE
:100AA0006091C20280E090E00E941F0F0BEE12E006
:100AB000C0E0D0E0F80161918F012196CE010E9443
:100AC0001F0FC530D105B1F76EEE86E090E0DF91E3
:100AD000CF911F910F910C941F0FE82FF0E0E65279
:100AE000FF4FE491F0E0EE0FFF1FE657FF4F8591B7
:100AF00094910895EF92FF921F93CF93DF93CDB718
:100B0000DEB766970FB6F894DEBF0FBECDBF182FC5
:100B10000E945B0780E00E94A1078BE00E94140402
:100B200089E00E94140461E08EE00E94DE0363E02D
:100B30008FE00E94DE0382E292E00E948A0361E07D
:100B40008EE00E94DE0364E08FE00E94DE038CE30F
:100B500092E00E948A036DE08EE00E94DE03812F06
:100B60000E946D050E949E0386E592E00E948A0322
:100B700061E08EE00E94DE0365E08FE00E94DE030C
:100B80008BE592E00E948A036DE08EE00E94DE0316
:100B9000CE0101967C01BC01812F0E9403050E94B9
:100BA0008A0361E08EE00E94DE0366E08FE00E942F
:100BB000DE0385E792E00E948A036DE08EE00E94EA
:100BC000DE03E12FF0E0E652FF4F1491183018F4E5
:100BD0006FE872E011C0103118F468E972E00CC0DF
:100BE000183118F461EA72E007C0103218F46EEAA6
:100BF00072E002C068EB72E0C7010E94DB0EF701F1
:100C000001900020E9F73197EE19FF09CF019927EC
:100C1000D701A80FB91FE12FE770EF5CEC93FE013D
:100C2000E80FF91F1282C7010E948A0361E08EE07B
:100C30000E94DE0367E08FE00E94DE0382E292E022
:100C40000E948A038AE00E9414048CE00E9414042B
:100C500066960FB6F894DEBF0FBECDBFDF91CF9181
:100C60001F91FF90EF900895EF92FF920F931F93C3
:100C7000CF93DF938C01C0E0D0E08CE2E82EFF241C
:100C8000F3948C2F0E946D05801B910B181619068A
:100C900034F48C2F0E946D05801B910B07C08C2FA4
:100CA0000E946D059801281B390BC9018E159F05FF
:100CB00014F4DC2F7C01CF5FC83219F78D2FDF9140
:100CC000CF911F910F91FF90EF900895009769F0D9
:100CD000FC0101900020E9F73197AF01481B590B47
:100CE000BC0181EF92E00C94CF0080E090E0089589
:100CF000CF93DF93E9E3F1E08491E5E2F1E0D49171
:100D0000E1E1F1E0C491CC2391F081110E94200235
:100D1000EC2FF0E0EE0FFF1FEE5FFE4FA591B491B8
:100D2000EC91ED2381E090E021F480E002C080E0CE
:100D300090E0DF91CF9108950F931F93CF930E947E
:100D400078060197D1F100E010E00E947806892B27
:100D500049F40F5F1F4F65E070E080E090E00E9473
:100D6000B502F3CFC801805591098C3D910528F05B
:100D70000C32114020F0C4E003C0C3E001C0C1E068
:100D80008091F002811103C000E010E011C01092C8
:100D9000F002C130C9F785E020C00F5F1F4F093254
:100DA0001105A1F065E070E080E090E00E94B502DE
:100DB0000E947806019719F4F0CF80E00EC0083247
:100DC000110521F00E947806892B11F08C2F05C0A7
:100DD0000E947806892BE1F382E0CF911F910F9159
:100DE0000895CF93DF93EC0161E086E00E947902E1
:100DF000209711F460E004C0CF3FD10531F461E0E9
:100E000086E0DF91CF910C944902EAE3F1E0E491AE
:100E1000E330F9F048F4E130B9F0E230A1F584B5FF
:100E2000806284BDC8BD34C0E730E9F0E83019F114
:100E3000E43049F580918000806280938000D093F7
:100E40008B00C0938A0024C084B5806884BDC7BD70
:100E50001FC080918000806880938000D0938900BB
:100E6000C093880015C08091B00080688093B00066
:100E7000C093B3000DC08091B00080628093B00039
:100E8000C093B40005C0C038D1050CF0B8CFB2CFC4
:100E9000DF91CF91089550910C0340910D03252FC0
:100EA00030E0842F90E0821B930B541710F0CF9604
:100EB00008950197089561E08EE00E94DE0360E0EE
:100EC0008FE00E94DE0389E00E94140480E80E9403
:100ED000CB0381E80E94CB0382E80E94CB0383E826
:100EE0000E94CB0384E80E94CB0385E80E94CB03D9
:100EF00086E80E94CB0387E80E94CB0361E08EE086
:100F00000E94DE0361E08FE00E94DE0388E80E9419
:100F1000CB0389E80E94CB038AE80E94CB038BE8CD
:100F20000E94CB038CE80E94CB038DE80E94CB0388
:100F30008EE80E94CB038FE80E94CB038AE00C94DA
:100F400014048F929F92AF92BF92FF920F931F93C0
:100F5000CF93DF93F82E8091EB02811105C0C3E897
:100F6000D2E007E212E004C0CDEAD1E00FE611E0E2
:100F70008FE00E9425058C179D0708F04AC00817CE
:100F8000190718F5BC01601B710B80E090E00E940E
:100F9000DB0D4B015C01AE01401B510BBA0180E03F
:100FA00090E00E94DB0D9B01AC01C501B4010E94E1
:100FB0003A0D20E030E048EC52E40E94690E0E94B5
:100FC000AC0DC62F653010F00AC0C0E082E390E09F
:100FD0009093EA028093E90288EC90E00AC06F30B7
:100FE00068F484E690E09093EA028093E90288EE48
:100FF00093E09093E8028093E70214C0693150F4C3
:1010000088EC90E09093EA028093E90288EB9BE001
:10101000F0CFC3E61092EA021092E9021092E802C1
:101020001092E70269E18EE00E94DE036F2D8FE0EF
:101030000E94DE03C83510F081E017C0CF3310F0F6
:1010400082E013C0C63210F083E00FC0CD3060F0F4
:1010500084E0DF91CF911F910F91FF90BF90AF90EF
:101060009F908F900C94140485E0DF91CF911F9195
:101070000F91FF90BF90AF909F908F900C94CB03F7
:10108000E1EFF2E01382128288EE93E0A0E0B0E09C
:1010900084839583A683B78385E091E091838083E1
:1010A00085EC90E09587848784EC90E0978786872D
:1010B00080EC90E0918B808B81EC90E0938B828B25
:1010C00082EC90E0958B848B86EC90E0978B868BFE
:1010D000118E128E138E148E0895CF93DF9300D04D
:1010E0001F92CDB7DEB7789484B5826084BD84B595
:1010F000816084BD85B5826085BD85B5816085BD13
:1011000080916E00816080936E00109281008091CA
:101110008100826080938100809181008160809352
:101120008100809180008160809380008091B10077
:1011300084608093B1008091B00081608093B000A2
:1011400080917A00846080937A0080917A00826036
:1011500080937A0080917A008E7F80937A008091CC
:101160007A00806880937A001092C10061E08DE07F
:101170000E94790261E08DE00E94490260E085E012
:101180000E94790262E085E00E94490261E086E007
:101190000E94790261E083E00E94790261E084E0CC
:1011A0000E94790261E082E00E94790286E090E08C
:1011B0000E94170F8E3E09F0E9C380E090E00E9484
:1011C000170F8093C2024BEEE42E42E0F42E01E0B2
:1011D00010E0C8010E94170FF70181937F010F5F94
:1011E0001F4F06301105A9F78091C2020E946D05BC
:1011F0000E94B504E0910103F091020382E0808334
:10120000E091FD02F091FE021082E091FF02F09168
:10121000000380E1808310920903E0910503F091BF
:10122000060386E08083E0910303F091040380814C
:1012300080618083E0910303F091040380818860E2
:101240008083E0910303F0910403808180688083B0
:10125000E0910303F091040380818F7D80830E94DD
:101260007806892B09F0A7C080E00E9425040E941F
:101270009C06C12CD12C760110E0BB24B3940E94B3
:101280009C06823069F018F4813021F075C08530F9
:1012900060F072C01F5F183009F087C310E085C38B
:1012A000112309F481C3115080C3173009F46FC0B2
:1012B000163059F41092EB02B092EC02B092ED02AB
:1012C000B092EE021092EF0270C3153009F04AC0DE
:1012D00003E080E290E00E94F10668EC70E080E0BC
:1012E00090E00E94B50280E090E00E94F10668EB79
:1012F0007BE080E090E00E94B502015051F703E0EE
:1013000080E290E00E94F10664E670E080E090E008
:101310000E94B50280E090E00E94F10668EE73E062
:1013200080E090E00E94B502015051F703E080E2B6
:1013300090E00E94F10662E370E080E090E00E949D
:10134000B50280E090E00E94F10668EC70E080E079
:1013500090E00E94B502015051F780E090E00E94B9
:10136000F10616C0E12FF0E0E551FD4F81E09081DC
:10137000911180E0808319C3811117C30E94340347
:10138000C616D706E806F90608F40FC378CF01E0C1
:101390000E9434036B017C01F8EECF0EF3E0DF1EF8
:1013A000E11CF11C812F0E942504002309F467CF62
:1013B0000E944C0530C08091ED02882361F10E94AB
:1013C00034034B015C0128E5820E2BE1921EA11C27
:1013D000B11CC12CD12C76010E943403681579050B
:1013E0008A059B05C0F40E947806892BA1F00E9413
:1013F0003403C616D706E806F90670F70E943403D0
:101400006B017C01E4EFCE0EE1E0DE1EE11CF11C7D
:101410000E94F703E1CF82E00E9414040E9434038B
:10142000DC01CB018059984EAF4FBF4F8093D4025F
:101430009093D502A093D602B093D702EE24E39402
:1014400034E1832E912C0E949C068093DD02823031
:1014500009F49AC120F4813009F48EC1ABC1833004
:1014600009F413C1843009F0A5C182E00E9414047C
:101470008091C2020E946D056C0160E08EE00E94C6
:10148000DE036BE08FE00E94DE030EE110E088E1F6
:101490000E94CB0301501109D1F760E08EE00E9459
:1014A000DE036CE08FE00E94DE0381E191E00E94A8
:1014B0008A0386E00E94140486010E949C06811122
:1014C000B4C00B5F1F4F0A3387E1180710F00DE01F
:1014D00016E1C8010E94B50469E170E080E090E087
:1014E0000E94B50284E10E9425058C589109B4013F
:1014F0000E94200D462E0B5F1F4F0A33E7E11E07A7
:1015000010F00DE016E1C8010E94B50469E170E039
:1015100080E090E00E94B50284E10E9425058C588D
:101520009109B4010E94200D362E89E397E1801BBA
:10153000910B6AE070E00E94200D8DE1282E261AA2
:10154000612C712CF12C6091C5028EE00E94DE03AB
:101550002BE0522E5F18652D8FE00E94DE038091F4
:10156000C40290E05301F2E0AF0EB11C2091C3021F
:1015700030E061E02A153B050CF460E051E06816AC
:1015800079060CF050E041E0621673060CF040E082
:101590008A159B0544F0662371F0552321F14423FD
:1015A00011F187E125C0662361F05523C1F0442382
:1015B000D1F086E11DC05523B1F0442371F085E1DF
:1015C00017C0552321F0442331F084E111C0442396
:1015D00051F082E10DC080E10BC081E109C04423DC
:1015E00011F083E105C0FF2011F080E201C088E125
:1015F0000E94CB03622D8EE00E94DE03652D8FE0FA
:101600000E94DE03FF2011F080E201C08FE00E9403
:10161000CB03F39435012CE0F21295CF2092C50252
:101620004092C4023092C30248CF5801F4E1AF1A8D
:10163000B1080C5E1F4F612C712CC5010E94B504CE
:1016400069E170E080E090E00E94B50284E10E94D0
:1016500025056816790610F465013C0122E0A20E0A
:10166000B11CA016B10649F785E00E941404C6011A
:101670000E94B504C6010E943406182F8093C2024E
:1016800082E00E941404812F6EC082E00E94140444
:101690000E945B0780E00E94A1078091C2020E9425
:1016A0006D056C0186E00E9414048601065F1F4FE1
:1016B00000FD02C00F5F1F4F68019CE3F92EA12CB3
:1016C000B12C85E3C81687E1D80620F4E5E0CE0EFC
:1016D000D11C04C08DE0C82E86E1D82EC6010E9420
:1016E000B50469E170E080E090E00E94B50284E119
:1016F0000E942505A816B90610F486015C01FA942B
:10170000F1100BC06801F4E1CF1AD108580124E1AF
:10171000A20EB11C612C712C04C08A3F910588F285
:10172000F1CFC6010E94B50469E170E080E090E06D
:101730000E94B50284E10E9425056816790610F41E
:1017400086013C0182E0C80ED11CCA14DB0449F7B3
:1017500085E00E941404C8010E94B504C8010E94DB
:1017600034068093C2020E947A0560EA7FE080E03E
:1017700090E00E94B5021CC08091C202873210F432
:101780008F5F08C080E006C08091C202815087321E
:1017900008F087E28093C2020E946D050E94B504A2
:1017A0001092D8021092D9021092DA021092DB0243
:1017B000E092DC028091DD02882381F00E943403F4
:1017C000DC01CB018059984EAF4FBF4F8093D402BC
:1017D0009093D502A093D602B093D7028091DC02F9
:1017E000882369F01092DC0282E00E9414041092B7
:1017F000D8021092D9021092DA021092DB024090C5
:10180000D8025090D9026090DA027090DB020E94F8
:101810003403461657066806790648F50E943403D5
:10182000DC01CB0188519C4FAF4FBF4F8093D80252
:101830009093D902A093DA02B093DB028091EE027A
:101840008111B5C04090D4025090D5026090D6026C
:101850007090D7020E9434036415750586059705BC
:1018600008F4A5C082E00E941404E092F002909176
:10187000C2028091D302981781F00E943403009134
:10188000CF021091D0022091D1023091D2020617DE
:1018900017072807390708F4BCC00E9434030091D9
:1018A000CB021091CC022091CD023091CE020617CE
:1018B000170728073907B8F481E0909100019111CA
:1018C00080E0809300010E943403DC01CB018C5046
:1018D0009E4FAF4FBF4F8093CB029093CC02A0930B
:1018E000CD02B093CE02609100018DE00E944902CA
:1018F0008091EC02882309F442C08091E902909122
:10190000EA02892BE1F10E9434030091C702109191
:10191000C8022091C9023091CA020617170728078A
:10192000390788F581E09091C602911180E080939B
:10193000C602882359F080E290E00E94F1060E94DE
:1019400034032091E9023091EA020AC080E090E07D
:101950000E94F1060E9434032091E7023091E802D0
:10196000DC01CB01820F931FA11DB11D8093C70223
:101970009093C802A093C902B093CA0204C080E049
:1019800090E00E94F1060E94BC015DCD1092C2025F
:101990001092EB0281E08093EC028093ED02809341
:1019A000EE021092EF0220CC17E000E0F1CC6CE0E8
:1019B0008EE00E94DE036091EF0261116CE08FE027
:1019C0000E94DE03BE016F5F7F4F8091C2020E94C2
:1019D00003050E948A0380E20E94CB038DE00E94EF
:1019E000CB038091C2020E946D050E949E0380E29B
:1019F0000E94CB038CE00E94CB0384E10E9425056A
:101A00000E949E038091EF0281118CE00E94A10749
:101A10002ECF0E944C058091C2028093D3020E9477
:101A20003403DC01CB01805F984DAF4FBF4F8093F3
:101A3000CF029093D002A093D102B093D2022DCFC7
:101A4000AA1BBB1B51E107C0AA1FBB1FA617B707E4
:101A500010F0A61BB70B881F991F5A95A9F7809500
:101A60009095BC01CD010895EE0FFF1F0590F491F4
:101A7000E02D09940E944E0D0C942F0E0E94280E0A
:101A800058F00E94210E40F029F45F3F29F00C9499
:101A9000180E51110C94630E0C941E0E0E94400EF1
:101AA00068F39923B1F3552391F3951B550BBB278D
:101AB000AA2762177307840738F09F5F5F4F220FD2
:101AC000331F441FAA1FA9F335D00E2E3AF0E0E8C9
:101AD00032D091505040E695001CCAF72BD0FE2F13
:101AE00029D0660F771F881FBB1F261737074807A7
:101AF000AB07B0E809F0BB0B802DBF01FF2793585F
:101B00005F4F3AF09E3F510578F00C94180E0C94FC
:101B1000630E5F3FE4F3983ED4F38695779567951F
:101B2000B795F7959F5FC9F7880F911D9695879593
:101B300097F90895E1E0660F771F881FBB1F6217B2
:101B400073078407BA0720F0621B730B840BBA0B70
:101B5000EE1F88F7E09508950E94480E88F09F5781
:101B600098F0B92F9927B751B0F0E1F0660F771FC1
:101B7000881F991F1AF0BA95C9F714C0B13091F0B7
:101B80000E94620EB1E008950C94620E672F782FC8
:101B90008827B85F39F0B93FCCF38695779567957C
:101BA000B395D9F73EF490958095709561957F4FE8
:101BB0008F4F9F4F0895E89409C097FB3EF490958E
:101BC0008095709561957F4F8F4F9F4F9923A9F016
:101BD000F92F96E9BB279395F695879577956795A5
:101BE000B795F111F8CFFAF4BB0F11F460FF1BC0E9
:101BF0006F5F7F4F8F4F9F4F16C0882311F096E97C
:101C000011C0772321F09EE8872F762F05C0662329
:101C100071F096E8862F70E060E02AF09A95660FE2
:101C2000771F881FDAF7880F9695879597F908959B
:101C300097F99F6780E870E060E008959FEF80EC7F
:101C4000089500240A941616170618060906089522
:101C500000240A9412161306140605060895092E88
:101C60000394000C11F4882352F0BB0F40F4BF2BF7
:101C700011F460FF04C06F5F7F4F8F4F9F4F089537
:101C800057FD9058440F551F59F05F3F71F047952D
:101C9000880F97FB991F61F09F3F79F08795089512
:101CA000121613061406551FF2CF4695F1DF08C031
:101CB000161617061806991FF1CF8695710561054E
:101CC00008940895E894BB2766277727CB0197F9F6
:101CD00008950E947C0E0C942F0E0E94210E38F065
:101CE0000E94280E20F0952311F00C94180E0C94ED
:101CF0001E0E11240C94630E0E94400E70F3959FEB
:101D0000C1F3950F50E0551F629FF001729FBB27F2
:101D1000F00DB11D639FAA27F00DB11DAA1F649F8E
:101D20006627B00DA11D661F829F2227B00DA11D41
:101D3000621F739FB00DA11D621F839FA00D611DC7
:101D4000221F749F3327A00D611D231F849F600DE8
:101D5000211D822F762F6A2F11249F5750409AF011
:101D6000F1F088234AF0EE0FFF1FBB1F661F771F9D
:101D7000881F91505040A9F79E3F510580F00C9468
:101D8000180E0C94630E5F3FE4F3983ED4F38695EF
:101D900077956795B795F795E7959F5FC1F7FE2B08
:101DA000880F911D9695879597F9089581E090E0A9
:101DB000F8940C942D0FFB01DC0101900D92002092
:101DC000E1F70895BB274A3031F4992322F4BDE2AC
:101DD000909581959F4F0C94EE0EBB27FB015527E4
:101DE000AA27880F991FAA1FA41710F0A41B839578
:101DF0005051B9F7A05DAA3308F0A95DA1930097EF
:101E000079F7B111B1931192CB010C94070FDC015A
:101E1000FC01672F71917723E1F7329704C07C9121
:101E20006D9370836291AE17BF07C8F30895F99957
:101E3000FECF92BD81BDF89A992780B50895262FCF
:101E4000F999FECF1FBA92BD81BD20BD0FB6F8949F
:0E1E5000FA9AF99A0FBE01960895F894FFCF02
:101E5E0001000000005301CF001C01FA000E019A90
:101E6E00012020352E363520202020202020352E12
:101E7E00383020202020202020352E3935003230D9
:101E8E0031362D31302D3033004265746120627948
:101E9E002044766F676F6E656E003273206C6970CA
:101EAE006F003373206C69706F007965732020208A
:101EBE0020006E6F2020202020006C6F77202020C5
:101ECE002000686967682020200062617474657262
:101EDE0079207479706520202020202020006261F6
:101EEE00747465727920616C61726D2020202020DF
:101EFE00200073686F77207374617274207363723D
:101F0E0065656E202000636F6E7374616E74206958
:101F1E006E666F206C696E652000696E666F206C50
:101F2E00696E6520706F736974696F6E20007265DB
:101F3E007365742073657474696E67732020202036
:101F4E0020007465737420616C61726D20202020F6
:101F5E002020202020006578697420202020202059
:101F6E0020202020202020202000657865637574B5
:101F7E00650020202020202020202020202020202E
:101F8E0020202020202020202020200020467265A6
:101F9E007175656E63793A20202020202020202044
:101FAE00202020202000204D487A00204368616EBA
:101FBE006E656C20203A202020202020202020201A
:101FCE002020202000204E616D6520202020203A08
:101FDE0020202020202020202020202020200042F1
:101FEE006F7363616D204100426F7363616D2042B8
:101FFE0000466F78746563682F444A492000466135
:10200E0074536861726B20005261636562616E6425
:02201E002000A0
:00000001FF
