:100000000C94BB000C94E3000C94E3000C94E3000C
:100010000C94E3000C94E3000C94E3000C94E300D4
:100020000C94E3000C94E3000C94E3000C94E300C4
:100030000C94E3000C94E3000C94E3000C94E300B4
:100040000C9456030C94E3000C9404020C94DE010F
:100050000C94E3000C94E3000C94E3000C94E30094
:100060000C94E3000C94E3003B053E054105440578
:1000700047054A054D055305500556057905810587
:100080008B0598059B059E05A805E916D516C11692
:10009000AD169916851671165D16651678168B16AF
:1000A0009E16B116C416D716EA164916351621162D
:1000B0000D16FD161117251739176C168016941694
:1000C000A816BC16D016E416F8161A163F166416B3
:1000D0008916AE16D316F8161D17F21417153C150F
:1000E00061158615AB15D015F51528292A2B2C2D51
:1000F0002E2F1320121121100722081806091905A6
:10010000230A1A040B1B03240C1C020D1D25010ECF
:100110001E000F1F261415271617000000002400CC
:1001200027002A0000000000250028002B00000006
:10013000000023002600290004040404040404042D
:100140000202020202020303030303030102040882
:100150001020408001020408102001020408102031
:100160000000000800020100000304070000000076
:1001700000000000320E11241FBECFEFD8E0DEBF1A
:10018000CDBF13E0A0E0B1E0ECEDF0E202C00590DD
:100190000D92AE31B107D9F723E0AEE1B3E001C073
:1001A0001D92AD3EB207E1F710E0CBEBD0E004C00A
:1001B0002197FE010E94730ECA3BD107C9F70E9426
:1001C000D0080C946C100C940000CF92DF92EF9248
:1001D000FF920F931F93CF93DF936C017A018B01F2
:1001E000C0E0D0E0CE15DF0589F0D8016D918D011A
:1001F000D601ED91FC910190F081E02DC6010995A9
:10020000892B11F47E0102C02196ECCFC701DF914A
:10021000CF911F910F91FF90EF90DF90CF900895B5
:10022000FC01918D828D981761F0828DDF01A80FFE
:10023000B11D5D968C91928D9F5F9F73928F90E020
:1002400008958FEF9FEF0895FC01918D828D98178F
:1002500031F0828DE80FF11D858D90E008958FEFCC
:100260009FEF0895FC01918D228D892F90E0805C95
:100270009F4F821B91098F739927089580E593E022
:100280000E94320121E0892B09F420E0822F089599
:10029000FC01848DDF01A80FB11DA35ABF4F2C9123
:1002A000848D90E001968F739927848FA689B789F2
:1002B0002C93A089B1898C9180648C93938D848DCB
:1002C000981306C00288F389E02D80818F7D80839A
:1002D0000895EF92FF920F931F93CF93DF93EC015A
:1002E00081E0888F9B8D8C8D981305C0E889F989F2
:1002F000808185FD24C0F62E0B8D10E00F5F1F4F0F
:100300000F731127E02E8C8DE8120CC00FB607FC7E
:10031000FACFE889F989808185FFF5CFCE010E9467
:100320004801F1CF8B8DFE01E80FF11DE35AFF4F1D
:10033000F0820B8FEA89FB898081806207C0EE8999
:10034000FF896083E889F98980818064808381E006
:1003500090E0DF91CF911F910F91FF90EF90089562
:10036000CF93DF93EC01888D8823C9F0EA89FB895C
:10037000808185FD05C0A889B9898C9186FD0FC053
:100380000FB607FCF5CF808185FFF2CFA889B98928
:100390008C9185FFEDCFCE010E944801E7CFDF9120
:1003A000CF91089580E090E0892B29F00E943E01D2
:1003B00081110C94000008950E9415101F920F9255
:1003C0000FB60F9211242F933F934F935F936F9328
:1003D0007F938F939F93AF93BF93EF93FF9380E5AA
:1003E00093E00E944801FF91EF91BF91AF919F91DF
:1003F0008F917F916F915F914F913F912F910F90CE
:100400000FBE0F901F9018951F920F920FB60F926C
:1004100011242F938F939F93EF93FF93E0916003A9
:10042000F09161038081E0916603F091670382FDA2
:1004300012C09081809169038F5F8F7320916A034E
:10044000821751F0E0916903F0E0E05BFC4F958F7B
:100450008093690301C08081FF91EF919F918F91FB
:100460002F910F900FBE0F901F9018953FB7F894E3
:1004700080913F0390914003A0914103B0914203CA
:1004800026B5A89B05C02F3F19F00196A11DB11DEF
:100490003FBFBA2FA92F982F8827820F911DA11D2A
:1004A000B11DBC01CD0143E0660F771F881F991F66
:1004B0004A95D1F70895833081F028F4813099F07E
:1004C0008230A1F008958730A9F08830B9F08430E7
:1004D000D1F4809180008F7D03C0809180008F7760
:1004E00080938000089584B58F7702C084B58F7D96
:1004F00084BD08958091B0008F7703C08091B000D3
:100500008F7D8093B00008951F93CF93DF93282FA2
:1005100030E0F901E05AFE4F8491F901E45BFE4FAF
:10052000D491F901E85CFE4FC491CC23C9F0162F99
:1005300081110E945B02EC2FF0E0EE0FFF1FEC5DDB
:10054000FE4FA591B4918FB7F894111105C09C91FD
:10055000ED2FE095E92302C0EC91ED2BEC938FBFDA
:10056000DF91CF911F91089560E082E00E948402A4
:1005700060E084E00E94840261E082E00E948402E4
:1005800060E082E00C94840260E082E00E948402D9
:1005900061E084E00E94840261E082E00E948402C3
:1005A00060E082E00C948402CF93DF9390E0FC0142
:1005B000E45BFE4F2491FC01E85CFE4F84918823AC
:1005C00061F190E0880F991FFC01E65EFE4FC59136
:1005D000D491FC01EC5DFE4FA591B491611109C06D
:1005E0009FB7F8948881209582238883EC912E23ED
:1005F0000BC0623061F49FB7F8943881822F8095E8
:1006000083238883EC912E2B2C939FBF06C08FB73A
:10061000F894E8812E2B28838FBFDF91CF91089526
:100620008F929F92AF92BF92CF92DF92EF92FF9202
:100630006B017C010E9436024B015C01C114D104A4
:10064000E104F104F1F00E943602DC01CB018819CB
:100650009909AA09BB09883E9340A105B10570F329
:1006600021E0C21AD108E108F10888EE880E83E083
:10067000981EA11CB11CC114D104E104F10419F7A6
:10068000DDCFFF90EF90DF90CF90BF90AF909F9025
:100690008F9008952FB7F89460913B0370913C03BD
:1006A00080913D0390913E032FBF08951F920F92BA
:1006B0000FB60F9211242F933F938F939F93AF9375
:1006C000BF9380913B0390913C03A0913D03B09177
:1006D0003E0330913A0326E0230F2D3720F4029693
:1006E000A11DB11D05C029E8230F0396A11DB11D51
:1006F00020933A0380933B0390933C03A0933D03E4
:10070000B0933E0380913F0390914003A091410339
:10071000B09142030196A11DB11D80933F039093B8
:100720004003A0934103B0934203BF91AF919F91C7
:100730008F913F912F910F900FBE0F901F901895A2
:10074000CF93DF93EC010E94E607FE0101900020A9
:10075000E9F73197EC1BFD0B8E179F07A0F3CE0135
:10076000DF91CF910C9401070F931F93CF93DF93E9
:10077000CDB7DEB761970FB6F894DEBF0FBECDBF21
:100780004AE08E010F5F1F4FB8010E9421100E94A6
:10079000E607F80101900020E9F73197E01BF10B23
:1007A0008E179F07A0F3C8010E94010761960FB63C
:1007B000F894DEBF0FBECDBFDF91CF911F910F9197
:1007C0000895CF93DF931F92CDB7DEB7682F69836B
:1007D0000E94E6076981892BD1F380E593E00F90B1
:1007E000DF91CF910C946901CF93DF93D82FC62F5F
:1007F0000E94E6070397E4F36FEF80E593E00E9421
:1008000069016D2F80E593E00E9469016C2F80E5FE
:1008100093E0DF91CF910C9469010E94F6076AE0A2
:100820008EE00E94F40360E08FE00E94F40389E40C
:1008300091E00E94A0036AE08EE00E94F40361E070
:100840008FE00E94F40384E591E00E94A00389E117
:100850000C943C08CF93C82F0E94E6070297E4F35C
:100860006FEF80E593E00E9469016C2F80E593E0D3
:10087000CF910C9469011F93CF93DF938F5D9140CB
:100880009C01369527952F71EC0156E0D695C795BA
:100890005A95E1F7D695DC2FCC27D795C795C22B73
:1008A00061E083E00E94840260E083E00E948402B1
:1008B0000E94C4020E94B4020E94B4020E94B402C8
:1008C0000E94C40210E1C0FF03C00E94C40202C023
:1008D0000E94B402D695C7951150A9F70E94B402A0
:1008E0000E94B4020E94B4020E94B40261E083E05C
:1008F0000E94840260E083E00E94840260E082E063
:100900000E94840260E084E0DF91CF911F910C94FB
:100910008402DB01E82FF0E0E651FF4FE491E8307C
:1009200010F481E611C0E03110F482E60DC0E83128
:1009300010F485E609C0E03210F486E605C0E8321E
:1009400010F482E701C08CE68C93E770EF5C11969F
:10095000EC93119712961C921297CD01089592EF85
:10096000980F8E3008F0892F8770982F906480E25E
:1009700040E050E090937C0020917A002064209326
:100980007A0020917A0026FDFCCF209178006091BA
:10099000790030E0362B420F531F815059F7CA01BE
:1009A00025E0969587952A95E1F708958FE00E94B6
:1009B000AF0420914A0330E02A573140820F931F41
:1009C00065E070E00E945F0ECB01C29608956F92C1
:1009D0007F928F929F92AF92BF92CF92DF92EF92CF
:1009E000FF920F931F93CF93DF9300D0CDB7DEB765
:1009F000982E862E0E94D60489839A830E940D0425
:100A000089819A81992021F077247A94790C02C007
:100A10002AE0722E6AE070E00E945F0E8B015C019A
:100A200083E0682E662D8FE00E94F40360E08EE084
:100A30000E94F4038AE0871508F4712C791007C02E
:100A4000811005C08BE00E942A0489E004C08CE07C
:100A50000E942A048AE00E942A04C72CD12CF601A5
:100A60003197EA30F10520F4EC5CFF4F0C94730EE3
:100A700085E991E01DC089EA91E01AC08DEB91E013
:100A800017C081ED91E014C085EE91E011C089EFAF
:100A900091E00EC08DE092E00BC081E292E008C0D0
:100AA00085E392E005C089E492E002C08DE592E022
:100AB0000E94A003791007C0882029F08BE00E94D3
:100AC0002A0489E004C08CE00E942A048AE00E9483
:100AD0002A0487E0871508F445C0F6013197E7300E
:100AE000F10520F4E25CFF4F0C94730E80914703F4
:100AF00031C08091480390E00E94B40386E892E000
:100B000033C080914903811103C08DE791E02CC06F
:100B100085E791E029C0C8010E94B40381E792E013
:100B20000E94A003C5010E94B40389E892E01CC0A2
:100B300080914B030FC080914C030CC080914D03FA
:100B4000811103C08DE891E00FC085E891E00CC0F1
:100B500080914E03811103C08DE691E005C085E6CA
:100B600091E002C085E892E00E94A0037394639430
:100B70008CE0681257CF8AE00F900F90DF91CF91F1
:100B80001F910F91FF90EF90DF90CF90BF90AF90AB
:100B90009F908F907F906F900C942A040F931F93D7
:100BA000CF93DF9360911E0380E090E00E945E107F
:100BB00007E413E0C0E0D0E0F80161918F012196D5
:100BC000CE010E945E10C830D105B1F76FEE89E00A
:100BD00090E0DF91CF911F910F910C945E10E7E4AC
:100BE000F3E081E0808395E09183128290E8938323
:100BF00084838583168287830895E82FF0E0E65189
:100C0000FF4FE491F0E0EE0FFF1FE657FF4F859195
:100C100094910895EF92FF921F93CF93DF93CDB7F6
:100C2000DEB766970FB6F894DEBF0FBECDBF182FA4
:100C30000E94F60789E10E943C088BE00E942A048A
:100C400089E00E942A0461E08EE00E94F40363E0E0
:100C50008FE00E94F40383E792E00E94A00361E02A
:100C60008EE00E94F40364E08FE00E94F4038DE8BC
:100C700092E00E94A0036DE08EE00E94F403812FB9
:100C80000E94FD050E94B40387EA92E00E94A0033F
:100C900061E08EE00E94F40365E08FE00E94F403BF
:100CA0008CEA92E00E94A0036DE08EE00E94F403C3
:100CB000CE0101967C01BC01812F0E9489040E9413
:100CC000A00361E08EE00E94F40366E08FE00E94E2
:100CD000F40386EC92E00E94A0036DE08EE00E9497
:100CE000F403E12FF0E0E651FF4F1491183018F4AF
:100CF00060EE72E016C0103118F469EE72E011C0B7
:100D0000183118F462EF72E00CC0103218F46FEF73
:100D100072E007C0183218F469E073E002C063E1C2
:100D200073E0C7010E941A10F70101900020E9F753
:100D30003197EE19FF09CF019927D701A80FB91FE5
:100D4000E12FE770EF5CEC93FE01E80FF91F1282D0
:100D5000C7010E94A00361E08EE00E94F40367E0F7
:100D60008FE00E94F40383E792E00E94A0038AE0F0
:100D70000E942A048CE00E942A0466960FB6F8941A
:100D8000DEBF0FBECDBFDF91CF911F91FF90EF90DF
:100D90000895EF92FF920F931F93CF93DF938C01EF
:100DA00080914E03882311F0D0E001C0D8E0CD2F10
:100DB0008CE2E82EFF24F3948C2F0E94FD05801B0B
:100DC000910B1816190634F48C2F0E94FD05801B18
:100DD000910B07C08C2F0E94FD059801281B390B31
:100DE000C9018E159F0514F4DC2F7C01CF5FC03341
:100DF00019F78D2FDF91CF911F910F91FF90EF90F9
:100E00000895009769F0FC0101900020E9F73197FF
:100E1000AF01481B590BBC0180E593E00C94E50041
:100E200080E090E00895CF93DF93E5E6F1E08491D0
:100E3000E1E5F1E0D491EDE3F1E0C491CC2391F050
:100E400081110E945B02EC2FF0E0EE0FFF1FE25DCC
:100E5000FE4FA591B491EC91ED2381E090E021F457
:100E600080E002C080E090E0DF91CF9108950F9381
:100E70001F93CF930E9413070197D1F100E010E078
:100E80000E941307892B49F40F5F1F4F65E070E044
:100E900080E090E00E941003F3CFC80180559109D3
:100EA0008C3D910528F00C32114020F0C4E003C0C5
:100EB000C3E001C0C1E080914F03811103C000E095
:100EC00010E011C010924F03C130C9F785E020C077
:100ED0000F5F1F4F09321105A1F065E070E080E05F
:100EE00090E00E9410030E941307019719F4F0CFBD
:100EF00080E00EC00832110521F00E941307892BF3
:100F000011F08C2F05C00E941307892BE1F382E0BA
:100F1000CF911F910F910895CF93DF93EC0161E082
:100F200086E00E94D402209711F460E004C0CF3F15
:100F3000D10531F461E086E0DF91CF910C94840219
:100F4000E6E6F1E0E491E330F9F048F4E130B9F09D
:100F5000E230A1F584B5806284BDC8BD34C0E730FD
:100F6000E9F0E83019F1E43049F5809180008062C1
:100F700080938000D0938B00C0938A0024C084B5F6
:100F8000806884BDC7BD1FC0809180008068809349
:100F90008000D0938900C093880015C08091B00074
:100FA00080688093B000C093B3000DC08091B00002
:100FB00080628093B000C093B40005C0C038D105F2
:100FC0000CF0B8CFB2CFDF91CF91089550916B0361
:100FD00040916C03252F30E0842F90E0821B930B0F
:100FE000541710F0CF9608950197089561E08EE0B0
:100FF0000E94F40360E08FE00E94F40389E00E9405
:101000002A0480E80E94E10381E80E94E10382E86B
:101010000E94E10383E80E94E10384E80E94E10367
:1010200085E80E94E10386E80E94E10387E80E94C8
:10103000E10361E08EE00E94F40361E08FE00E9432
:10104000F40388E80E94E10389E80E94E1038AE84A
:101050000E94E1038BE80E94E1038CE80E94E10317
:101060008DE80E94E1038EE80E94E1038FE80E9470
:10107000E1038AE00C942A048F929F92AF92BF9270
:10108000FF920F931F93CF93DF93F82E8091490324
:10109000811105C0CEE7D0E006E610E004C0C4E54B
:1010A000D0E004E410E00E94D6048C179D0708F0FD
:1010B0004AC00817190718F5BC01601B710B80E0C6
:1010C00090E00E941A0F4B015C01AE01401B510BD6
:1010D000BA0180E090E00E941A0F9B01AC01C501AB
:1010E000B4010E94790E20E030E048EC52E40E9406
:1010F000A80F0E94EB0EC62F653010F00AC0C0E0AA
:1011000082E390E0909346038093450388EC90E05F
:101110000AC06F3068F484E690E0909346038093B1
:10112000450388EE93E0909344038093430314C0F7
:10113000693150F488EC90E0909346038093450326
:1011400088EB9BE0F0CFC3E6109246031092450374
:1011500010924403109243036F2D8EE00E94F4031B
:1011600060E08FE00E94F403C83510F081E00DC00C
:10117000CF3310F082E009C0C63210F083E005C022
:10118000CD3010F084E001C085E0DF91CF911F9158
:101190000F91FF90BF90AF909F908F900C94E103C0
:1011A000CF93DF9300D000D01F92CDB7DEB77894F5
:1011B00084B5826084BD84B5816084BD85B582605C
:1011C00085BD85B5816085BD80916E00816080930D
:1011D0006E00109281008091810082608093810076
:1011E0008091810081608093810080918000816086
:1011F000809380008091B10084608093B1008091E1
:10120000B00081608093B00080917A008460809308
:101210007A0080917A00826080937A0080917A00CF
:101220008E7F80937A0080917A00806880937A0024
:101230001092C10061E08DE00E94D40261E08DE077
:101240000E94840260E085E00E94D40262E085E0B2
:101250000E94840261E086E00E94D40261E083E0A3
:101260000E94D40261E084E00E94D40261E082E046
:101270000E94D40289E090E00E9456108F3EC1F493
:1012800080E090E00E94561080931E0357E4E52E04
:1012900053E0F52E01E010E0C8010E945610F7015E
:1012A00081937F010F5F1F4F09301105A9F709C016
:1012B00080914E03811182C488E080931E030E94B6
:1012C000EF0580911E030E94FD050E943B04E09102
:1012D0006003F091610382E08083E0915C03F09110
:1012E0005D031082E0915E03F0915F0380E18083F3
:1012F00010926803E0916403F091650386E08083B7
:10130000E0916203F0916303808180618083E091CA
:101310006203F0916303808188608083E0916203BF
:10132000F0916303808180688083E0916203F09193
:10133000630380818F7D80830E941307892B09F0CE
:10134000EBC060E080E00E94E7040E943707812C38
:10135000912C540100E0F12CCC24C394D12C0E9498
:101360003707FF20E1F18230D1F018F4813029F005
:10137000B1C0853008F424C4ADC0013039F4809187
:101380004803883008F020C48F5F11C00330E9F4AF
:1013900080914A038A3F08F017C48B5F13C0013065
:1013A00049F480914803823008F40EC48150809340
:1013B00048030AC4033049F480914A03863008F494
:1013C00003C4855080934A03FFC3E02FF0E0E95B3C
:1013D000FC4F81E09081911180E08083F5C38230E1
:1013E00069F018F4813021F077C0853060F074C066
:1013F0000F5F0B3009F0EAC300E0E8C3002309F4F3
:10140000E1C30150E3C30A3009F471C0093019F493
:101410000E94EF05DBC3083009F0D6C313E0C60114
:101420000090480302C0880F991F0A94E2F70E94B7
:101430008C0768EC70E080E090E00E94100380E090
:1014400090E00E948C0768EB7BE080E090E00E94D7
:101450001003115021F713E0C6010090480302C0A9
:10146000880F991F0A94E2F70E948C0764E670E0E7
:1014700080E090E00E94100380E090E00E948C07E2
:1014800068EE73E080E090E00E941003115021F7B5
:1014900013E0C6010090480302C0880F991F0A9408
:1014A000E2F70E948C0762E370E080E090E00E9427
:1014B000100380E090E00E948C0768EC70E080E010
:1014C00090E00E941003115021F780E090E00E940C
:1014D0008C070EC0FF24F394811178C30E944A0345
:1014E00086169706A806B90608F470C338CF11E02F
:1014F0000E944A034B015C01F8EE8F0EF3E09F1E41
:10150000A11CB11C6F2D802F0E94E704112309F448
:1015100026CF0E94CE0530C080914B03882361F115
:101520000E944A034B015C0128E5820E2BE1921ECA
:10153000A11CB11CC12CD12C76010E944A03681554
:1015400079058A059B05C0F40E941307892BA1F039
:101550000E944A03C616D706E806F90670F70E94ED
:101560004A036B017C01E4EFCE0EE1E0DE1EE11CDC
:10157000F11C0E940D04E1CF82E00E942A040E9427
:101580004A03DC01CB018059984EAF4FBF4F809387
:10159000300390933103A0933203B093330334E1CB
:1015A000A32EB12C0E94370780933903823009F4AF
:1015B000BFC120F4813009F4ADC1E0C1833009F42A
:1015C00029C1843009F0DAC182E00E942A048091A6
:1015D0001E030E94FD05D82EE92E60E08EE00E94D9
:1015E000F4036BE08FE00E94F4030EE110E088E169
:1015F0000E94E10301501109D1F760E08EE00E94E2
:10160000F4036CE08FE00E94F40380914E03882382
:1016100019F081E191E002C08DE291E00E94A00307
:1016200086E00E942A04C12C0D2D1E2D29E3822E56
:1016300027E1922E0E9437078111B9C020E08091E6
:101640004E03811103C045E050E002C04AE050E083
:10165000040F151F0A33F7E11F0738F0811103C08B
:101660000DE016E102C001EE14E1C8012D830E94D5
:101670003B0469E170E080E090E00E94100384E1A7
:101680000E94AF048C5891092D81B5010E945F0E14
:10169000211103C0C62E21E0D2CF6C832130D9F7AF
:1016A000C401801B910B20914E03211103C06AE0FD
:1016B00070E002C064E170E00E945F0E8DE1382EA0
:1016C000361A412C512CF12C609121038EE00E949E
:1016D000F4039BE0292E2F18622D8FE00E94F40363
:1016E0008091200390E0320122E0620E711C209173
:1016F0001F0330E061E0261537050CF460E051E08F
:10170000481659060CF050E041E0421653060CF022
:1017100040E08615970544F0662371F0552321F1CA
:10172000442311F187E125C0662361F05523C1F000
:101730004423D1F086E11DC05523B1F0442371F05C
:1017400085E117C0552321F0442331F084E111C015
:10175000442351F082E10DC080E10BC081E109C05A
:10176000442311F083E105C0FF2011F080E201C0A5
:1017700088E10E94E103632D8EE00E94F403622D54
:101780008FE00E94F403FF2011F080E201C08FE09F
:101790000E94E103F39423018CE0F81295CF30927C
:1017A0002103C09220032C8120931F0343CF4801C3
:1017B00084E1881A91080C5E1F4F612C712CC401C2
:1017C0000E943B0469E170E080E090E00E94100319
:1017D00084E10E94AF046816790618F4D82CE92C2D
:1017E0003C0192E0890E911C8016910641F785E03C
:1017F0000E942A048D2D9E2D0E943B048D2D9E2D2E
:101800000E94C906182F80931E0382E00E942A04BA
:10181000812F77C082E00E942A040E94F60789E1A6
:101820000E943C0880911E030E94FD058C0186E009
:101830000E942A0480914E03811103C085E090E04C
:1018400002C08AE090E0080F191F00FD02C00F5F80
:101850001F4F78018CE3D82E812C912C0033E7E1C7
:101860001E0718F4065F1F4F09C080914E038111B7
:1018700003C00DE016E102C001EE14E1C8010E94B0
:101880003B0469E170E080E090E00E94100384E195
:101890000E94AF048816990610F478014C01DA947E
:1018A000D1100AC06701870104511109F4E1EF0E5C
:1018B000F11C812C912C04C08A3F910578F2F2CF63
:1018C000C8010E943B0469E170E080E090E00E9462
:1018D000100384E10E94AF048816990610F4680191
:1018E0004C010E5F1F4F0E151F0551F785E00E943A
:1018F0002A04C6010E943B04C6010E94C9068093C7
:101900001E030E940A0660EA7FE080E090E00E94E9
:10191000100331C080911E038F3230F080914E034E
:10192000811104C088E019C08F5F17C080E015C026
:1019300080911E03803380F4482F50E090914E0335
:10194000911103C028E030E002C020E030E04217EF
:10195000530711F0815001C08FE280931E030E9453
:10196000FD050E943B04109234031092350310923F
:1019700036031092370381E0809338038091390356
:10198000882381F00E944A03DC01CB018059984EE4
:10199000AF4FBF4F8093300390933103A093320336
:1019A000B093330380913803882369F01092380391
:1019B00082E00E942A0410923403109235031092A0
:1019C000360310923703C0903403D0903503E09073
:1019D0003603F09037030E944A03C616D706E8067E
:1019E000F90608F054C00E944A03DC01CB0188517B
:1019F0009C4FAF4FBF4F8093340390933503A09318
:101A00003603B093370380914C03811110C0C0900E
:101A10003003D0903103E0903203F09033030E9402
:101A20004A036C157D058E059F0508F0FDC0809169
:101A30004D03882309F4CCC081E00E943C0863E098
:101A40008EE00E94F40360E08FE00E94F403BE0188
:101A50006F5F7F4F80911E030E9489040E94A00344
:101A600080E20E94E1038DE00E94E10380911E0369
:101A70000E94FD050E94B40380E20E94E1038CE015
:101A80000E94E10384E10E94AF040E94B40390919C
:101A90001E0380912F03981781F00E944A03009142
:101AA0002B0310912C0320912D0330912E03061748
:101AB00017072807390708F4BEC00E944A0300919F
:101AC0002703109128032091290330912A03061738
:101AD000170728073907B8F481E0909100019111A8
:101AE00080E0809300010E944A03DC01CB018C500E
:101AF0009E4FAF4FBF4F8093270390932803A0932F
:101B00002903B0932A03609100018DE00E948402B2
:101B100080914703882309F44AC08091450390913E
:101B20004603892B09F443C00E944A030091230312
:101B300010912403209125033091260306171707DF
:101B400028073907C0F581E090912203911180E0C8
:101B500080932203882391F081E090E00090480375
:101B600002C0880F991F0A94E2F70E948C070E9416
:101B70004A0320914503309146030AC080E090E07B
:101B80000E948C070E944A03209143033091440332
:101B9000DC01CB01820F931FA11DB11D8093230394
:101BA00090932403A0932503B093260304C080E000
:101BB00090E00E948C070E94D201F4CC80E07DCBA3
:101BC000F12C04C00AE002C0FF24F39410E090CC92
:101BD0006CE08EE00E94F40360E08FE00E94F4036A
:101BE000BE016F5F7F4F80911E030E9489040E9497
:101BF000A00380E20E94E1038DE00E94E103809156
:101C00001E030E94FD050E94B40380E20E94E103CE
:101C10008CE00E94E10384E10E94AF040E94B403BF
:101C200089E10E943C0833CF82E00E942A0481E0CF
:101C300080934F032CCF0E94CE0580911E0380938A
:101C40002F030E944A03DC01CB01805F984DAF4F08
:101C5000BF4F80932B0390932C03A0932D03B0933D
:101C60002E032BCFE0E5F3E01382128288EE93E09F
:101C7000A0E0B0E084839583A683B78385E091E0FC
:101C80009183808385EC90E09587848784EC90E055
:101C90009787868780EC90E0918B808B81EC90E039
:101CA000938B828B82EC90E0958B848B86EC90E01A
:101CB000978B868B118E128E138E148E0895AA1B0D
:101CC000BB1B51E107C0AA1FBB1FA617B70710F027
:101CD000A61BB70B881F991F5A95A9F78095909559
:101CE000BC01CD010895EE0FFF1F0590F491E02D8A
:101CF00009940E948D0E0C946E0F0E94670F58F08D
:101D00000E94600F40F029F45F3F29F00C94570FB8
:101D100051110C94A20F0C945D0F0E947F0F68F379
:101D20009923B1F3552391F3951B550BBB27AA2794
:101D300062177307840738F09F5F5F4F220F331FCE
:101D4000441FAA1FA9F335D00E2E3AF0E0E832D096
:101D500091505040E695001CCAF72BD0FE2F29D099
:101D6000660F771F881FBB1F261737074807AB076B
:101D7000B0E809F0BB0B802DBF01FF2793585F4FE0
:101D80003AF09E3F510578F00C94570F0C94A20F37
:101D90005F3FE4F3983ED4F3869577956795B795C2
:101DA000F7959F5FC9F7880F911D9695879597F9CD
:101DB0000895E1E0660F771F881FBB1F6217730746
:101DC0008407BA0720F0621B730B840BBA0BEE1F5B
:101DD00088F7E09508950E94870F88F09F5798F044
:101DE000B92F9927B751B0F0E1F0660F771F881F20
:101DF000991F1AF0BA95C9F714C0B13091F00E943A
:101E0000A10FB1E008950C94A10F672F782F8827B8
:101E1000B85F39F0B93FCCF3869577956795B39560
:101E2000D9F73EF490958095709561957F4F8F4FCF
:101E30009F4F0895E89409C097FB3EF490958095D4
:101E4000709561957F4F8F4F9F4F9923A9F0F92F80
:101E500096E9BB279395F695879577956795B795FE
:101E6000F111F8CFFAF4BB0F11F460FF1BC06F5FE4
:101E70007F4F8F4F9F4F16C0882311F096E911C0F6
:101E8000772321F09EE8872F762F05C0662371F017
:101E900096E8862F70E060E02AF09A95660F771F2B
:101EA000881FDAF7880F9695879597F9089597F91F
:101EB0009F6780E870E060E008959FEF80EC0895F0
:101EC00000240A9416161706180609060895002419
:101ED0000A9412161306140605060895092E039493
:101EE000000C11F4882352F0BB0F40F4BF2B11F407
:101EF00060FF04C06F5F7F4F8F4F9F4F089557FD66
:101F00009058440F551F59F05F3F71F04795880F67
:101F100097FB991F61F09F3F79F0879508951216FE
:101F200013061406551FF2CF4695F1DF08C01616AA
:101F300017061806991FF1CF86957105610508945B
:101F40000895E894BB2766277727CB0197F9089572
:101F50000E94BB0F0C946E0F0E94600F38F00E941D
:101F6000670F20F0952311F00C94570F0C945D0F20
:101F700011240C94A20F0E947F0F70F3959FC1F360
:101F8000950F50E0551F629FF001729FBB27F00D27
:101F9000B11D639FAA27F00DB11DAA1F649F66277C
:101FA000B00DA11D661F829F2227B00DA11D621FCB
:101FB000739FB00DA11D621F839FA00D611D221F85
:101FC000749F3327A00D611D231F849F600D211D69
:101FD000822F762F6A2F11249F5750409AF0F1F0EC
:101FE00088234AF0EE0FFF1FBB1F661F771F881F55
:101FF00091505040A9F79E3F510580F00C94570F27
:102000000C94A20F5F3FE4F3983ED4F38695779546
:102010006795B795F795E7959F5FC1F7FE2B880FFA
:10202000911D9695879597F9089581E090E0F89431
:102030000C946C10FB01DC0101900D920020E1F783
:102040000895BB274A3031F4992322F4BDE29095DC
:1020500081959F4F0C942D10BB27FB015527AA2774
:10206000880F991FAA1FA41710F0A41B8395505125
:10207000B9F7A05DAA3308F0A95DA193009779F79D
:10208000B111B1931192CB010C944610DC01FC010B
:10209000672F71917723E1F7329704C07C916D939C
:1020A00070836291AE17BF07C8F30895F999FECF08
:1020B00092BD81BDF89A992780B50895262FF99988
:1020C000FECF1FBA92BD81BD20BD0FB6F894FA9A1B
:0C20D000F99A0FBE01960895F894FFCF16
:1020DC0001000000006901E500320110012401B08B
:1020EC000120352E333520202020202020352E367F
:1020FC003020202020202020352E39350020352E70
:10210C00363520202020202020352E38302020204D
:10211C0020202020352E393500323031372D303308
:10212C002D31300076322E322062792044766F6762
:10213C006F6E656E0079657320202020006E6F2015
:10214C0020202020003273206C69706F00337320C4
:10215C006C69706F006C6566742020200072696772
:10216C0068742020006261747465727920616C61FE
:10217C00726D20202020202000616C61726D206C1B
:10218C006576656C20202020202020200062617460
:10219C0074657279207479706520202020202020AD
:1021AC0000766F6C742063616C6962726174696F24
:1021BC006E2020200073686F772073746172742016
:1021CC0073637265656E202000636F6E7374616E4D
:1021DC007420696E666F206C696E652000696E668E
:1021EC006F206C696E6520706F736974696F6E20F7
:1021FC0000646973706C6179206C6F772062616E1A
:10220C006420202000726573657420736574746992
:10221C006E67732020202020007465737420616C1D
:10222C0061726D20202020202020202000657869FC
:10223C00742020202020202020202020202020203E
:10224C00002E0020202020202020202020202020B4
:10225C00202020202020202020202020002046721A
:10226C00657175656E63793A20202020202020202E
:10227C0020202020202000204D487A002043686137
:10228C006E6E656C20203A202020202020202020FB
:10229C00202020202000204E616D65202020202051
:1022AC003A20202020202020202020202020200028
:1022BC00426F7363616D204100426F7363616D20E7
:1022CC004200466F78746563682F444A4920004683
:1022DC006174536861726B20005261636542616E78
:0E22EC006420004C6F7742616E642020000079
:00000001FF
