:100000000C94FF000C946F080C9448080C94E507BE
:100010000C9482070C9411070C9427010C9427016F
:100020000C9427010C9427010C9427010C942701B0
:100030000C9427010C9427010C9427010C942701A0
:100040000C9488030C9427010C943A090C9414091D
:100050000C9427010C9427010C9427010C94270180
:100060000C9427010C9427013305360539053C050E
:100070003F054205450548054B054E05510554050C
:100080005A0557055D058005880592059F05A2055F
:10009000AC05B605B905BC05BF05C205C505E91621
:1000A000D516C116AD169916851671165D1665160C
:1000B00078168B169E16B116C416D716EA16491670
:1000C000351621160D16FD161117251739176C1642
:1000D00080169416A816BC16D016E416F8161A1632
:1000E0003F1664168916AE16D316F8161D17F214AD
:1000F00017153C1561158615AB15D015F51527009C
:10010000240020001C001900150012000E00100031
:10011000130017001A001E002100250028000D0002
:100120000B000A0008002B002C002E002F001100ED
:10013000140018001B001F002200260029000900DF
:100140000C000F0016001D0023002A002D000000E7
:100150000100020003000400050006000700282932
:100160002A2B2C2D2E2F13201211211007220818B4
:1001700006091905230A1A040B1B03240C1C020D83
:100180001D25010E1E000F1F26141527161700002F
:100190000000240027002A0000000000250028009D
:1001A0002B000001020304050607000102030405F9
:1001B00000010203040500000000230026002900BE
:1001C00004040404040404040202020202020303FD
:1001D0000303030301020408102040800102040805
:1001E0001020010204081020000000080002010095
:1001F0000003040700000000000000004E1111245D
:100200001FBECFEFD8E0DEBFCDBF13E0A0E0B1E06E
:10021000E0E4F7E202C005900D92AA34B107D9F7E5
:1002200024E0AAE4B3E001C01D92A439B207E1F7CB
:1002300010E0CFEFD0E004C02197FE010E94AC1186
:10024000CE3FD107C9F70E94980B0C949E130C94D3
:100250000000FC01918D828D981761F0828DDF0185
:10026000A80FB11D5D968C91928D9F5F9F73928FA9
:1002700090E008958FEF9FEF0895FC01918D828D9E
:10028000981731F0828DE80FF11D858D90E008956B
:100290008FEF9FEF0895FC01918D228D892F90E0C3
:1002A000805C9F4F821B91098F739927089580E08E
:1002B00090E0892B29F00E94C30881110C94000062
:1002C00008953FB7F8948091530390915403A091FF
:1002D0005503B091560326B5A89B05C02F3F19F0D2
:1002E0000196A11DB11D3FBFBA2FA92F982F8827B6
:1002F000820F911DA11DB11DBC01CD0143E0660F10
:10030000771F881F991F4A95D1F70895E82FF0E0CD
:10031000EE0FFF1FE250FF4F859194910895CF9308
:10032000DF93ACE8B3E0EEE5F1E080E38E0F91916E
:100330009D938E13FCCF8091E603882329F0809152
:10034000E703882371F019C0C0E0DFEF8C2F0E9413
:10035000860184579C4FFC01D083CF5FC830B1F732
:10036000EECFC8E0DFEF8C2F0E94860184579C4FB0
:10037000FC01D083CF5FC031B1F78091E8038111D8
:100380000CC0C0E1DFEF8C2F0E94860184579C4F88
:10039000FC01D083CF5FC831B1F78091E9038111AF
:1003A0000CC0C8E1DFEF8C2F0E94860184579C4F60
:1003B000FC01D083CF5FC032B1F78091EA03811195
:1003C0000CC0C0E2DFEF8C2F0E94860184579C4F47
:1003D000FC01D083CF5FC832B1F78091EB0381116C
:1003E0000CC0C8E2DFEF8C2F0E94860184579C4F1F
:1003F000FC01D083CF5FC033B1F7DF91CF91089577
:10040000FC01848DDF01A80FB11DA35ABF4F2C91B1
:10041000848D90E001968F739927848FA689B78980
:100420002C93A089B1898C9180648C93938D848D59
:10043000981306C00288F389E02D80818F7D808328
:100440000895CF93DF93EC01888D8823C9F0EA8962
:10045000FB89808185FD05C0A889B9898C9186FDBD
:100460000FC00FB607FCF5CF808185FFF2CFA889BA
:10047000B9898C9185FFEDCFCE010E940002E7CFB4
:10048000DF91CF910895833081F028F4813099F085
:100490008230A1F008958730A9F08830B9F0843017
:1004A000D1F4809180008F7D03C0809180008F7790
:1004B00080938000089584B58F7702C084B58F7DC6
:1004C00084BD08958091B0008F7703C08091B00003
:1004D0008F7D8093B00008951F93CF93DF93282FD3
:1004E00030E0F901E851FE4F8491F901EC52FE4FE2
:1004F000D491F901E054FE4FC491CC23C9F0162FDA
:1005000081110E944302EC2FF0E0EE0FFF1FE8562E
:10051000FE4FA591B4918FB7F894111105C09C912D
:10052000ED2FE095E92302C0EC91ED2BEC938FBF0A
:10053000DF91CF911F910895CF93DF9390E0FC015D
:10054000EC52FE4F2491FC01E054FE4F849188232D
:1005500061F190E0880F991FFC01E257FE4FC591B1
:10056000D491FC01E856FE4FA591B491611109C0E8
:100570009FB7F8948881209582238883EC912E235D
:100580000BC0623061F49FB7F8943881822F809558
:1005900083238883EC912E2B2C939FBF06C08FB7AB
:1005A000F894E8812E2B28838FBFDF91CF91089597
:1005B0008F929F92AF92BF92CF92DF92EF92FF9273
:1005C0006B017C010E9461014B015C01C114D104EB
:1005D000E104F104F1F00E946101DC01CB01881912
:1005E0009909AA09BB09883E9340A105B10570F39A
:1005F00021E0C21AD108E108F10888EE880E83E0F4
:10060000981EA11CB11CC114D104E104F10419F716
:10061000DDCFFF90EF90DF90CF90BF90AF909F9095
:100620008F9008952FB7F89460914F037091500305
:1006300080915103909152032FBF08950F931F9300
:100640000E949809892B59F40E94120360934A036F
:1006500070934B0380934C0390934D0356C080914D
:10066000ED039091EE03A091EF03B091F003892B7D
:100670008A2B8B2BA1F082E08093EC0310924A032B
:1006800010924B0310924C0310924D031092ED0305
:100690001092EE031092EF031092F00336C0809197
:1006A000BC03882331F084E08093EC031092BC03F8
:1006B0001AC00E94120300914A0310914B0320912B
:1006C0004C0330914D03DC01CB01801B910BA20B3D
:1006D000B30B8F359140A105B10510F083E001C047
:1006E00081E08093EC0310924A0310924B03109226
:1006F0004C0310924D030E9412036093ED0370931C
:10070000EE038093EF039093F0031F910F910895F0
:100710001F920F920FB60F9211242F933F938F9336
:100720009F93AF93BF9380914F0390915003A091FB
:100730005103B091520330914E0326E0230F2D3721
:1007400020F40296A11DB11D05C029E8230F0396D0
:10075000A11DB11D20934E0380934F03909350032E
:10076000A0935103B093520380915303909154038B
:10077000A0915503B09156030196A11DB11D809320
:10078000530390935403A0935503B0935603BF9122
:10079000AF919F918F913F912F910F900FBE0F902E
:1007A0001F901895CF93DF93EC010E945A0AFE0127
:1007B00001900020E9F73197EC1BFD0B8E179F0786
:1007C000A0F3CE01DF91CF910C94EE090F931F930C
:1007D000CF93DF93CDB7DEB761970FB6F894DEBF46
:1007E0000FBECDBF4AE08E010F5F1F4FB8010E94C0
:1007F00053130E945A0AF80101900020E9F731973B
:10080000E01BF10B8E179F07A0F3C8010E94EE09B1
:1008100061960FB6F894DEBF0FBECDBFDF91CF91CA
:100820001F910F910895CF93DF931F92CDB7DEB73D
:10083000682F69830E945A0A6981892BD1F381EF5D
:1008400093E00F90DF91CF910C94CD08CF93DF937D
:10085000D82FC62F0E945A0A0397E4F36FEF81EF57
:1008600093E00E94CD086D2F81EF93E00E94CD08A8
:100870006C2F81EF93E0DF91CF910C94CD080E9413
:10088000BE0A6AE08EE00E94260460E08FE00E94CB
:10089000260481E191E00E94D2036AE08EE00E948A
:1008A000260461E08FE00E9426048CE191E00E9422
:1008B000D20389E10C94040BCF93C82F0E945A0AEB
:1008C0000297E4F36FEF81EF93E00E94CD086C2F65
:1008D00081EF93E0CF910C94CD08EFEDF3E081E050
:1008E000808395E09183128290E89383848385834B
:1008F00016828783808781878287838784870C9489
:100900008F01DB01E82FF0E0E25AFE4FE491E8307E
:1009100010F481E611C0E03110F482E60DC0E83138
:1009200010F485E609C0E03210F486E605C0E8322E
:1009300010F483E601C08CE68C93E770EF5C1196AF
:10094000EC93119712961C921297CD01089592EF95
:10095000980F8E3008F0892F8770982F906480E26E
:1009600040E050E090937C0020917A002064209336
:100970007A0020917A0026FDFCCF209178006091CA
:10098000790030E0362B420F531F815059F7CA01CE
:1009900025E0969587952A95E1F708958FE00E94C6
:1009A000A7042091E20330E02A573140820F931FC1
:1009B00065E070E00E949811CB01C29608956F9295
:1009C0007F928F929F92AF92BF92CF92DF92EF92DF
:1009D000FF920F931F93CF93DF9300D0CDB7DEB775
:1009E000982E862E0E94CE0489839A830E943F040B
:1009F00089819A81992021F077247A94790C02C018
:100A00002FE0722E6AE070E00E9498118B015C0169
:100A100083E0682E662D8FE00E94260460E08EE061
:100A20000E9426048FE0871508F4712C791007C006
:100A3000811005C08BE00E945C0489E004C08CE05A
:100A40000E945C048AE00E945C04C72CD12CF60151
:100A50003197EF30F10520F4EC5CFF4F0C94AC11B2
:100A60008DE691E02CC081E891E029C085E991E014
:100A700026C089EA91E023C08DEB91E020C081ED92
:100A800091E01DC085EE91E01AC089EF91E017C09A
:100A90008DE092E014C081E292E011C085E392E023
:100AA0000EC089E492E00BC08DE592E008C081E7BA
:100AB00092E005C085E892E002C089E992E00E94D8
:100AC000D203791007C0882029F08BE00E945C04D3
:100AD00089E004C08CE00E945C048AE00E945C040F
:100AE0008CE0871508F45BC0F6013197EC30F10516
:100AF00020F4ED5BFF4F0C94AC118091DF0324C018
:100B00008091E00390E00E94E60386EA92E049C00B
:100B10008091E103811103C085E491E042C08DE33F
:100B200091E03FC0C8010E94E6038DEA92E00E9476
:100B3000D203C5010E94E60389EA92E032C08091A7
:100B4000E30302C08091E403811103C085E391E0D7
:100B500028C08DE291E025C08091E503811103C09A
:100B600085E591E01EC08DE491E01BC08091E60315
:100B70000EC08091E7030BC08091E80308C080910C
:100B8000E90305C08091EA0302C08091EB03811163
:100B900003C085E691E005C08DE591E002C085EADD
:100BA00092E00E94D203739463948CE0681232CF77
:100BB0008AE00F900F90DF91CF911F910F91FF90DE
:100BC000EF90DF90CF90BF90AF909F908F907F90ED
:100BD0006F900C945C048F929F92AF92BF92EF92B1
:100BE000FF921F93CF93DF9360E080E00E94DF04C9
:100BF0000E94BC09812C912C540110E0D0E0EE241D
:100C0000E394F12C0E94BC091123D1F18230C1F090
:100C1000833009F47BC0813009F06DC0D13039F4E4
:100C20008091E003883008F073C08F5F11C0D3302B
:100C3000E9F48091E2038A3F08F06AC08B5F13C039
:100C4000D13049F48091E003823008F461C08150D2
:100C50008093E0035DC0D33049F48091E203863095
:100C600008F456C085508093E20352C0ED2FF0E0A7
:100C7000E152FC4F81E09081911180E0808348C077
:100C8000823051F0833061F08130B1F5DF5FD031D7
:100C900009F05FC0D0E05DC0DD23E1F1D15059C063
:100CA000DF30D1F1DE3019F40E946D0452C0DD3026
:100CB00079F50E94BC0981114CC0C3E0C7010090C6
:100CC000E00302C0880F991F0A94E2F70E94000A0D
:100CD00062E370E080E090E00E94D80280E090E063
:100CE0000E94000A68EC70E080E090E00E94D80268
:100CF000C15021F7DECF11E081112BC00E941203F9
:100D000086169706A806B90620F17CCF10E021C010
:100D100011E01FC0DFE01DC0C1E00E9412034B01C3
:100D20005C0128EE820E23E0921EA11CB11C612FF3
:100D30008D2F0E94DF04CC2309F464CFDF91CF9183
:100D40001F91FF90EF90BF90AF909F908F900C9469
:100D50008F01C0E0E2CF0F931F93CF93DF93609199
:100D6000BD0380E090E00E9490130FED13E0C0E01F
:100D7000D0E0F80161918F012196CE010E9490137D
:100D8000CD30D105B1F760EF8EE090E0DF91CF91EB
:100D90001F910F910C949013E82FF0E0E25AFE4F50
:100DA000E491F0E0EE0FFF1FE256FF4F8591949122
:100DB0000895EF92FF920F931F93CF93DF938C01CF
:100DC0008091EB03882311F0D0E001C0D8E0CD2F53
:100DD0008CE2E82EFF24F3948C2F0E94CC06801B1B
:100DE000910B1816190634F48C2F0E94CC06801B28
:100DF000910B07C08C2F0E94CC069801281B390B41
:100E0000C9018E159F0514F4DC2F7C01CF5FC03320
:100E100019F78D2FDF91CF911F910F91FF90EF90D8
:100E200008951F920F920FB60F9211242F933F93A4
:100E30004F935F936F937F938F939F93AF93BF93E2
:100E4000CF93EF93FF9329B1C0915B0390918903F6
:100E500080918603322F309583239223892B9091A2
:100E60006D00C227C923C82320935B03CC23C1F1A3
:100E7000C0FF05C0E0915C03F0915D030995C1FFDF
:100E800005C0E0915E03F0915F030995C2FF05C0C4
:100E9000E0916003F09161030995C3FF05C0E09103
:100EA0006203F09163030995C4FF05C0E0916403F8
:100EB000F09165030995C5FF05C0E0916603F091C7
:100EC00067030995C6FF05C0E0916803F0916903C7
:100ED0000995C7FF05C0E0916A03F0916B0309957E
:100EE000FF91EF91CF91BF91AF919F918F917F91A2
:100EF0006F915F914F913F912F910F900FBE0F9087
:100F00001F9018951F920F920FB60F9211242F93D6
:100F10003F934F935F936F937F938F939F93AF9381
:100F2000BF93CF93EF93FF9326B1C0916C03909141
:100F30008A0380918703322F309583239223892B54
:100F400090916C00C227C923C82320936C03CC2343
:100F500051F1C0FF05C0E0916D03F0916E0309955A
:100F6000C1FF05C0E0916F03F09170030995C2FFC6
:100F700005C0E0917103F09172030995C3FF05C0AC
:100F8000E0917303F09174030995C4FF05C0E091EB
:100F90007503F09176030995C5FF05C0E0917703CD
:100FA000F09178030995FF91EF91CF91BF91AF91A7
:100FB0009F918F917F916F915F914F913F912F9171
:100FC0000F900FBE0F901F9018951F920F920FB6A3
:100FD0000F9211242F933F934F935F936F937F93BF
:100FE0008F939F93AF93BF93CF93EF93FF9323B1CF
:100FF000C091790390918B0380918803322F3095B3
:1010000083239223892B90916B00C227C923C82385
:1010100020937903CC2351F1C0FF05C0E0917A03FE
:10102000F0917B030995C1FF05C0E0917C03F0912D
:101030007D030995C2FF05C0E0917E03F0917F0317
:101040000995C3FF05C0E0918003F09181030995E4
:10105000C4FF05C0E0918203F09183030995C5FFA9
:1010600005C0E0918403F09185030995FF91EF910C
:10107000CF91BF91AF919F918F917F916F915F9130
:101080004F913F912F910F900FBE0F901F90189589
:101090001F920F920FB60F9211242F933F934F93ED
:1010A0005F936F937F938F939F93AF93BF93EF93D0
:1010B000FF93E0915903F0915A030995FF91EF9145
:1010C000BF91AF919F918F917F916F915F914F9160
:1010D0003F912F910F900FBE0F901F9018951F9268
:1010E0000F920FB60F9211242F933F934F935F935C
:1010F0006F937F938F939F93AF93BF93EF93FF93E0
:10110000E0915703F09158030995FF91EF91BF913A
:10111000AF919F918F917F916F915F914F913F918F
:101120002F910F900FBE0F901F901895CF92DF92C6
:10113000EF92FF920F931F93CF93DF936C017A018D
:101140008B01C0E0D0E0CE15DF0589F0D8016D91AC
:101150008D01D601ED91FC910190F081E02DC60149
:101160000995892B11F47E0102C02196ECCFC701AD
:10117000DF91CF911F910F91FF90EF90DF90CF9073
:1011800008950E944E1381EF93E00E944B0121E0ED
:10119000892B09F420E0822F0895EF92FF920F939C
:1011A0001F93CF93DF93EC0181E0888F9B8D8C8D13
:1011B000981305C0E889F989808185FD24C0F62E41
:1011C0000B8D10E00F5F1F4F0F731127E02E8C8DDA
:1011D000E8120CC00FB607FCFACFE889F9898081C4
:1011E00085FFF5CFCE010E940002F1CF8B8DFE016D
:1011F000E80FF11DE35AFF4FF0820B8FEA89FB895C
:101200008081806207C0EE89FF896083E889F9895F
:1012100080818064808381E090E0DF91CF911F9195
:101220000F91FF90EF9008951F920F920FB60F92BB
:1012300011242F933F934F935F936F937F938F93DB
:101240009F93AF93BF93EF93FF9381EF93E00E943F
:101250000002FF91EF91BF91AF919F918F917F918C
:101260006F915F914F913F912F910F900FBE0F9013
:101270001F9018951F920F920FB60F9211242F9363
:101280008F939F93EF93FF93E0910104F0910204F9
:101290008081E0910704F091080482FD12C09081E2
:1012A00080910A048F5F8F7320910B04821751F095
:1012B000E0910A04F0E0EF50FC4F958F80930A0410
:1012C00001C08081FF91EF919F918F912F910F909D
:1012D0000FBE0F901F901895CF93DF93CEE8D4E008
:1012E00060E088810E946C0260E08C810E946C0248
:1012F00061E088810E946C0260E08881DF91CF917B
:101300000C946C02CF93DF93CEE8D4E060E0888148
:101310000E946C0261E08C810E946C0261E0888115
:101320000E946C0260E08881DF91CF910C946C0286
:10133000CF93DF93EDEEF1E08491E9EDF1E0D4910C
:10134000E5ECF1E0C491CC2391F081110E944302BD
:10135000EC2FF0E0EE0FFF1FEA54FE4FA591B49181
:10136000EC91ED2381E090E021F480E002C080E088
:1013700090E0DF91CF910895CF92DF92EF92FF92AC
:10138000C090ED03D090EE03E090EF03F090F003F7
:10139000C114D104E104F10479F00E941203DC01CC
:1013A000CB018C199D09AE09BF098E359140A1056D
:1013B000B10510F480E00DC01092ED031092EE0321
:1013C0001092EF031092F0038091EC0381111092C0
:1013D000EC03FF90EF90DF90CF900895009769F0B5
:1013E000FC0101900020E9F73197AF01481B590B30
:1013F000BC0181EF93E00C94960880E090E00895A2
:10140000CF93DF93EC0161E086E00E949C0220977D
:1014100011F460E004C0CF3FD10531F461E086E013
:10142000DF91CF910C946C02EEEEF1E0E491E330A9
:10143000F9F048F4E130B9F0E230A1F584B580620A
:1014400084BDC8BD34C0E730E9F0E83019F1E430BC
:1014500049F580918000806280938000D0938B005A
:10146000C0938A0024C084B5806884BDC7BD1FC0F6
:1014700080918000806880938000D0938900C09321
:10148000880015C08091B00080688093B000C09340
:10149000B3000DC08091B00080628093B000C09313
:1014A000B40005C0C038D1050CF0B8CFB2CFDF9181
:1014B000CF91089550910C0440910D04252F30E0F8
:1014C000842F90E0821B930B541710F0CF96089551
:1014D000019708951F93CF93DF938F5D91409C01F7
:1014E000369527952F71EC0156E0D695C7955A95FC
:1014F000E1F7D695DC2FCC27D795C795C22B61E0B5
:10150000809190040E946C0260E0809190040E949F
:101510006C020E9482090E946C090E946C090E9460
:101520006C090E94820910E1C0FF03C00E94820979
:1015300002C00E946C09D695C7951150A9F70E9468
:101540006C090E946C090E946C090E946C0961E0A0
:10155000809190040E946C0260E0809190040E944F
:101560006C0260E080918E040E946C0260E08091C9
:101570009204DF91CF911F910C946C0261E08EE098
:101580000E94260460E08FE00E94260489E00E9409
:101590005C0480E80E94130481E80E94130482E83E
:1015A0000E94130483E80E94130484E80E94130439
:1015B00085E80E94130486E80E94130487E80E94CD
:1015C000130461E08EE00E94260461E08FE00E9437
:1015D000260488E80E94130489E80E9413048AE81C
:1015E0000E9413048BE80E9413048CE80E941304E9
:1015F0008DE80E9413048EE80E9413048FE80E9475
:1016000013048AE00C945C048F929F92AF92BF9275
:10161000FF920F931F93CF93DF93F82E8091E103F6
:10162000811105C0CEE7D0E006E610E004C0C4E5B5
:10163000D0E004E410E00E94CE048C179D0708F06F
:101640004AC00817190718F5BC01601B710B80E030
:1016500090E00E9453124B015C01AE01401B510B04
:10166000BA0180E090E00E9453129B01AC01C501D9
:10167000B4010E94B21120E030E048EC52E40E9434
:10168000E1120E942412C62F653010F00AC0C0E09B
:1016900082E390E09093DE038093DD0388EC90E09A
:1016A0000AC06F3068F484E690E09093DE03809384
:1016B000DD0388EE93E09093DC038093DB0314C09A
:1016C000693150F488EC90E09093DE038093DD0361
:1016D00088EB9BE0F0CFC3E61092DE031092DD03AF
:1016E0001092DC031092DB036F2D8EE00E94260423
:1016F00060E08FE00E942604C83510F081E00DC044
:10170000CF3310F082E009C0C63210F083E005C08C
:10171000CD3010F084E001C085E0DF91CF911F91C2
:101720000F91FF90BF90AF909F908F900C941304F7
:10173000CF93DF9300D000D000D0CDB7DEB7789440
:1017400084B5826084BD84B5816084BD85B58260C6
:1017500085BD85B5816085BD80916E008160809377
:101760006E001092810080918100826080938100E0
:1017700080918100816080938100809180008160F0
:10178000809380008091B10084608093B10080914B
:10179000B00081608093B00080917A008460809373
:1017A0007A0080917A00826080937A0080917A003A
:1017B0008E7F80937A0080917A00806880937A008F
:1017C0001092C10061E08DE00E949C0261E08DE01A
:1017D0000E946C0262E085E00E949C02E9EDF1E06B
:1017E0008491E5ECF1E09491923059F420918B03CF
:1017F000282B20938B0320918803282B2093880388
:1018000019C0933059F420918A03282B20938A031E
:1018100020918703282B209387030CC0943051F428
:1018200020918903282B2093890320918603282B5C
:1018300020938603E7EAF1E0A4919230D1F4B0E07E
:10184000AA0FBB1FA658BC4F2EE133E02D933C934B
:10185000EAEBF1E0A591B4919C91909379032BE68A
:1018600030E03093BF032093BE03909168009160F5
:1018700037C09330D1F4B0E0AA0FBB1FA359BC4FBF
:101880002EE133E02D933C93ECEBF1E0A591B49184
:101890009C9190936C032CE630E03093BF0320932F
:1018A000BE039091680092601BC09430D9F4B0E000
:1018B000AA0FBB1FA45ABC4F2EE133E02D933C93DB
:1018C000EEEBF1E0A591B4919C9190935B032DE632
:1018D00030E03093BF032093BE0390916800946082
:1018E00090936800A091BE03B091BF03EC918E2B42
:1018F0008C9361E086E00E949C028EE090E00E9462
:101900008813803FC1F480E090E00E9488138093A8
:10191000BD034FEDE42E43E0F42E01E010E0C801DA
:101920000E948813F70181937F010F5F1F4F0E30D4
:101930001105A9F709C08091EB03811134C488E037
:101940008093BD030E946D048091BD030E94CC066C
:101950000E946A0AE0910104F091020482E080830F
:10196000E091FD03F091FE031082E091FF03F091FE
:10197000000480E1808310920904E0910504F09155
:10198000060486E08083E0910304F09104048081E2
:1019900080618083E0910304F09104048081886079
:1019A0008083E0910304F091040480818068808347
:1019B000E0910304F091040480818F7D80830E9474
:1019C0009809892B29F40E94EB050E94AB0630C0D0
:1019D0008091E303882361F10E9412034B015C01B3
:1019E000F8E58F0EFBE19F1EA11CB11CC12CD12C70
:1019F00076010E941203681579058A059B05C0F4DB
:101A00000E949809892BA1F00E941203C616D706DE
:101A1000E806F90670F70E9412036B017C0124EFBF
:101A2000C20E21E0D21EE11CF11C0E943F04E1CF56
:101A300082E00E945C040E941203DC01CB01805909
:101A4000984EAF4FBF4F8093D1039093D203A09392
:101A5000D303B093D40334E1A32EB12C0E94BC096C
:101A60008093DA03823009F451C2833041F081302F
:101A700009F079C28091BD032091EB0341C210E0CF
:101A80000E94BE0A89E10E94040B65E08EE00E947C
:101A9000260464E08FE00E942604111105C089E04D
:101AA0000E945C048BE004C08AE00E945C048CE02D
:101AB0000E945C048FEA92E00E94D20365E08EE00F
:101AC0000E94260465E08FE00E942604113029F46C
:101AD00089E00E945C048BE004C08AE00E945C0400
:101AE0008CE00E945C0481EC92E00E94D20365E0ED
:101AF0008EE00E94260466E08FE00E9426041230E9
:101B000029F489E00E945C048BE004C08AE00E9412
:101B10005C048CE00E945C0483ED92E00E94D2039E
:101B200065E08EE00E94260467E08FE00E942604B4
:101B3000133029F489E00E945C048BE004C08AE041
:101B40000E945C048CE00E945C0485EE92E00E949E
:101B5000D2030E94BC09813029F4133009F48FCFDD
:101B60001F5F8ECF823029F4112309F41EC3115058
:101B700087CF833009F084CF123009F433C113309A
:101B800009F4ACC1113009F0EBC182E00E945C04A1
:101B90008091BD030E94CC066C0160E08EE00E9443
:101BA00026046BE08FE00E9426040EE110E088E13D
:101BB0000E94130401501109D1F760E08EE00E94E9
:101BC00026046CE08FE00E9426048091EB038823BA
:101BD00019F087EF92E002C083E193E00E94D20304
:101BE00086E00E945C041C82860129E3822E27E1A4
:101BF000922E0E949809892B09F4BBC0EC8020E04A
:101C00008091EB03811103C045E050E002C04AE03F
:101C100050E0040F151F0A3397E1190738F08111BE
:101C200003C00DE016E102C001EE14E1C8012E83ED
:101C30000E946A0A69E170E080E090E00E94D802A8
:101C400084E10E94A7048C5891092E81B5010E945D
:101C50009811211103C0E62E21E0D2CF6D832130EF
:101C6000D9F7EC82C401801B910B2091EB03211169
:101C700003C06AE070E002C064E170E00E94981165
:101C80008DE1382E361A412C512CF12C6091C20373
:101C90008EE00E9426049BE0292E2F18622D8FE0F3
:101CA0000E9426048091C10390E03201E2E06E0EB2
:101CB000711C2091C00330E061E0261537050CF45B
:101CC00060E051E0481659060CF050E041E0421641
:101CD00053060CF040E08615970544F0662371F03A
:101CE000552321F1442311F187E125C0662361F0DA
:101CF0005523C1F04423D1F086E11DC05523B1F036
:101D0000442371F085E117C0552321F0442331F0BD
:101D100084E111C0442351F082E10DC080E10BC089
:101D200081E109C0442311F083E105C0FF2011F0D7
:101D300080E201C088E10E941304632D8EE00E94BE
:101D40002604622D8FE00E942604FF2011F080E21D
:101D500001C08FE00E941304F3942301FCE0FF1202
:101D600095CF3092C203E092C1032D812093C0032E
:101D700040CF8091EB03811103C084E190E002C069
:101D800088E290E0081B190B812C912CF12C2F2D4F
:101D900030E08091EB03811103C084E190E002C048
:101DA00088E290E028173907ACF4C8010E946A0A5B
:101DB00069E170E080E090E00E94D80284E10E9436
:101DC000A7048816990610F468014C01F3940E5F7D
:101DD0001F4FDDCF85E00E945C04C6010E946A0AA5
:101DE000C60177C082E00E945C040E94BE0A89E1BD
:101DF0000E94040B8BE00E945C0489E00E945C045A
:101E000061E08EE00E94260465E08FE00E942604D7
:101E10008FE293E00E94D2038AE00E945C048CE08F
:101E20000E945C048091BD030E94CC068C0186E078
:101E30000E945C0478018AE0E80EF11CE0FC04C01A
:101E400078019BE0E90EF11C87018CE3D82E812CF0
:101E5000912C8091EB03811117C20533E7E11E0736
:101E600008F00FC285E090E0080F191FC8010E941A
:101E70006A0A69E170E080E090E00E94D80284E1A3
:101E80000E94A7048816990610F478014C01DA9490
:101E9000D110D7C18091EB038111D8C184E190E0CA
:101EA0008701081B190B812C912CD12C2D2D30E092
:101EB0008091EB038111CDC184E190E028173907AF
:101EC0000CF4CAC185E00E945C04C7010E946A0A42
:101ED000C7010E94D9068093BD0342C082E00E94E0
:101EE0005C040E94EB050E94AB063AC021110CC0B5
:101EF00088E0E82FF0E0E457FC4F90819F3F11F518
:101F00008F32A0F78F5FF5CF80E0F3CF8091BD03D4
:101F10004091EB03803370F4682F70E0411103C0EF
:101F200028E030E002C020E030E06217730711F0D3
:101F3000815001C08FE2E82FF0E0E457FC4F908120
:101F40009F3F41F38093BD030E94CC060E946A0A22
:101F50001092D5031092D6031092D7031092D80393
:101F600081E08093D9038091DA03882381F00E9475
:101F70001203DC01CB018059984EAF4FBF4F8093C5
:101F8000D1039093D203A093D303B093D403809151
:101F9000D903882369F01092D90382E00E945C047F
:101FA0001092D5031092D6031092D7031092D80343
:101FB000C090D503D090D603E090D703F090D8031B
:101FC0000E941203C616D706E806F90608F054C0A8
:101FD0000E941203DC01CB0188519C4FAF4FBF4FD1
:101FE0008093D5039093D603A093D703B093D803DF
:101FF0008091E403811110C0C090D103D090D2032E
:10200000E090D303F090D4030E9412036C157D0579
:102010008E059F0508F0F7C08091E503882309F439
:10202000C6C081E00E94040B63E08EE00E9426049B
:1020300060E08FE00E942604BE016F5F7F4F8091B9
:10204000BD030E9481040E94D20380E20E94130417
:102050008DE00E9413048091BD030E94CC060E9473
:10206000E60380E20E9413048CE00E94130484E1E2
:102070000E94A7040E94E6039091BD038091D003C3
:10208000981781F00E9412030091CC031091CD03A8
:102090002091CE033091CF03061717072807390781
:1020A00008F4B8C00E9412030091C8031091C9033C
:1020B0002091CA033091CB03061717072807390769
:1020C000B8F481E090910001911180E080930001CB
:1020D0000E941203DC01CB018C509E4FAF4FBF4FCB
:1020E0008093C8039093C903A093CA03B093CB0312
:1020F000609100018DE00E946C028091DF038823D3
:1021000009F44AC08091DD039091DE03892B09F424
:1021100043C00E9412030091C4031091C503209193
:10212000C6033091C7030617170728073907C0F5FC
:1021300081E09091C303911180E08093C3038823D1
:1021400091F081E090E00090E00302C0880F991FB9
:102150000A94E2F70E94000A0E9412032091DD0314
:102160003091DE030AC080E090E00E94000A0E94E5
:1021700012032091DB033091DC03DC01CB01820FE1
:10218000931FA11DB11D8093C4039093C503A09319
:10219000C603B093C70304C080E090E00E94000A29
:1021A0000E9457015BCC80E0CBCB13E069CC6CE0A4
:1021B0008EE00E94260460E08FE00E942604BE01AB
:1021C0006F5F7F4F8091BD030E9481040E94D20304
:1021D00080E20E9413048DE00E9413048091BD03ED
:1021E0000E94CC060E94E60380E20E9413048CE069
:1021F0000E94130484E10E94A7040E94E60389E17F
:102200000E94040B39CF82E00E945C0481E080933D
:10221000BC0332CF0E94AB068091BD038093D003F4
:102220000E941203DC01CB01805F984DAF4FBF4F7E
:102230008093CC039093CD03A093CE03B093CF03B0
:1022400031CF8A3F910508F404CE24CE88E290E095
:1022500027CE88E290E032CEC8010E946A0A69E186
:1022600070E080E090E00E94D80284E10E94A70420
:102270008816990610F478014C01D3940E5F1F4F15
:1022800015CE0DE016E1F2CD0033F7E11F0718F48B
:102290008AE090E0E9CD01EE14E1E8CDCF93DF9341
:1022A000E1EFF3E01382128288EE93E0A0E0B0E069
:1022B00084839583A683B78385E091E091838083AF
:1022C00085EC90E09587848784EC90E097878687FB
:1022D00080EC90E0918B808B81EC90E0938B828BF3
:1022E00082EC90E0958B848B86EC90E0978B868BCC
:1022F000118E128E138E148ECEE8D4E082E090E020
:102300009983888383E090E09B838A8384E090E0D4
:102310009D838C8361E083E00E949C0261E08C815C
:102320000E949C0261E08881DF91CF910C949C0215
:10233000AA1BBB1B51E107C0AA1FBB1FA617B707EB
:1023400010F0A61BB70B881F991F5A95A9F7809507
:102350009095BC01CD010895EE0FFF1F0590F491FB
:10236000E02D09940E94C6110C94A7120E94A0129D
:1023700058F00E94991240F029F45F3F29F00C9424
:10238000901251110C94DB120C9496120E94B81208
:1023900068F39923B1F3552391F3951B550BBB2794
:1023A000AA2762177307840738F09F5F5F4F220FD9
:1023B000331F441FAA1FA9F335D00E2E3AF0E0E8D0
:1023C00032D091505040E695001CCAF72BD0FE2F1A
:1023D00029D0660F771F881FBB1F261737074807AE
:1023E000AB07B0E809F0BB0B802DBF01FF27935866
:1023F0005F4F3AF09E3F510578F00C9490120C9488
:10240000DB125F3FE4F3983ED4F3869577956795AA
:10241000B795F7959F5FC9F7880F911D969587959A
:1024200097F90895E1E0660F771F881FBB1F6217B9
:1024300073078407BA0720F0621B730B840BBA0B77
:10244000EE1F88F7E09508950E94C01288F09F570C
:1024500098F0B92F9927B751B0F0E1F0660F771FC8
:10246000881F991F1AF0BA95C9F714C0B13091F0BE
:102470000E94DA12B1E008950C94DA12672F782FD7
:102480008827B85F39F0B93FCCF386957795679583
:10249000B395D9F73EF490958095709561957F4FEF
:1024A0008F4F9F4F0895E89409C097FB3EF4909595
:1024B0008095709561957F4F8F4F9F4F9923A9F01D
:1024C000F92F96E9BB279395F695879577956795AC
:1024D000B795F111F8CFFAF4BB0F11F460FF1BC0F0
:1024E0006F5F7F4F8F4F9F4F16C0882311F096E983
:1024F00011C0772321F09EE8872F762F05C0662331
:1025000071F096E8862F70E060E02AF09A95660FE9
:10251000771F881FDAF7880F9695879597F90895A2
:1025200097F99F6780E870E060E008959FEF80EC86
:10253000089500240A941616170618060906089529
:1025400000240A9412161306140605060895092E8F
:102550000394000C11F4882352F0BB0F40F4BF2BFE
:1025600011F460FF04C06F5F7F4F8F4F9F4F08953E
:1025700057FD9058440F551F59F05F3F71F0479534
:10258000880F97FB991F61F09F3F79F08795089519
:10259000121613061406551FF2CF4695F1DF08C038
:1025A000161617061806991FF1CF86957105610555
:1025B00008940895E894BB2766277727CB0197F9FD
:1025C00008950E94F4120C94A7120E94991238F0F8
:1025D0000E94A01220F0952311F00C9490120C94FC
:1025E000961211240C94DB120E94B81270F3959F7E
:1025F000C1F3950F50E0551F629FF001729FBB27FA
:10260000F00DB11D639FAA27F00DB11DAA1F649F95
:102610006627B00DA11D661F829F2227B00DA11D48
:10262000621F739FB00DA11D621F839FA00D611DCE
:10263000221F749F3327A00D611D231F849F600DEF
:10264000211D822F762F6A2F11249F5750409AF018
:10265000F1F088234AF0EE0FFF1FBB1F661F771FA4
:10266000881F91505040A9F79E3F510580F00C946F
:1026700090120C94DB125F3FE4F3983ED4F38695FE
:1026800077956795B795F795E7959F5FC1F7FE2B0F
:10269000880F911D9695879597F9089581E090E0B0
:1026A000F8940C949E13BB274A3031F4992322F4FA
:1026B000BDE2909581959F4F0C945F13BB27FB0162
:1026C0005527AA27880F991FAA1FA41710F0A41B2B
:1026D00083955051B9F7A05DAA3308F0A95DA19385
:1026E000009779F7B111B1931192CB010C94781343
:1026F000DC01FC01672F71917723E1F7329704C069
:102700007C916D9370836291AE17BF07C8F30895F3
:10271000F999FECF92BD81BDF89A992780B50895A9
:10272000262FF999FECF1FBA92BD81BD20BD0FB6ED
:10273000F894FA9AF99A0FBE01960895F894FFCF8B
:102740000100000000CD0896084B0129013D012140
:1027500002323031372D30332D31330076322E3383
:102760002062792044766F676F6E656E00796573BD
:1027700020202020006E6F20202020200032732097
:102780006C69706F003373206C69706F006C6566E4
:10279000742020200072696768742020006F6E200A
:1027A00020202020006F66662020202000626174B7
:1027B0007465727920616C61726D20202020202068
:1027C00000616C61726D20736F756E64206C65764C
:1027D000656C202000626174746572792074797070
:1027E000652020202020202000766F6C74206361FB
:1027F0006C6962726174696F6E2020200073686F6B
:10280000772073746172742073637265656E202023
:1028100000636F6E7374616E7420696E666F206CF6
:10282000696E652000696E666F206C696E65207048
:102830006F736974696F6E2000626F7363616D20DE
:10284000612062616E6420202020202000626F736E
:1028500063616D20622062616E6420202020202050
:1028600000666F78746563682F646A692062616EC0
:102870006420202000666174736861726B2062615D
:102880006E64202020202020007261636520626138
:102890006E6420202020202020202020006C6F77D4
:1028A0002062616E64202020202020202020202013
:1028B0000072657365742073657474696E67732044
:1028C00020202020007465737420616C61726D207B
:1028D00020202020202020200065786974202020DE
:1028E000202020202020202020202020002E00201A
:1028F00045786974202020202020202020202020BE
:10290000002047726170686963205363616E6E6571
:10291000722000204175746F205363616E6E657282
:102920002020202000204F7074696F6E73202020BB
:102930002020202020200020352E3335202020206C
:10294000202020352E363020202020202020352E1B
:1029500039350020352E3635202020202020203506
:102960002E383020202020202020352E3935002000
:1029700020202020204175746F205363616E6E69A2
:0A2980006E672020202020200000B8
:00000001FF
