:100000000C946C1B0C94941B0C94941B0C94941BDC
:100010000C94941B0C94941B0C94941B0C94941BA4
:100020000C94941B0C94941B0C94941B0C94941B94
:100030000C94941B0C94941B0C94941B0C94941B84
:100040000C94E81E0C94941B0C94B61E0C94901EF9
:100050000C94941B0C94941B0C94941B0C94941B64
:100060000C94941B0C94941B512154215721592119
:100070005D215F2163216A21712178217F21862101
:100080008D219A219D2155555555555555555555F7
:100090005555555555555555555555555555555510
:1000A0005555555555555555555555555555555500
:1000B00055555555555555555555555555555555F0
:1000C000005550AA054AAAA14AAAA14AAAA14AAA29
:1000D000A14AAAA14AAAA14AAAA14AAAA14AAAA196
:1000E0004AAAA14AAAA14AAAA14AAAA14AAAA150D7
:1000F000000555555555005550AA054AAAA1480076
:10010000214855214800214AAAA14AAAA14AAAA1E8
:100110004AAAA14AAAA14AAAA14AAAA14AAAA14AAC
:10012000AAA14AAAA150000555555555005550AAF7
:10013000054AAAA148002148552148552148552182
:100140004855214800214AAAA14AAAA14AAAA14A7F
:10015000AAA14AAAA14AAAA14AAAA1500005555596
:100160005555005550AA054AAAA1480021485521D5
:100170004855214855214855214855214855214881
:1001800055214800214AAAA14AAAA14AAAA14AAADD
:10019000A150000555555555005550AA054AAAA12C
:1001A00048002148552148552148552148552148A6
:1001B0005521485521485521485521485521485534
:1001C000214800214AAAA1500005555555555550C2
:1001D00055554A555548555548555548555548550E
:1001E0005548555548555548555548555548555500
:1001F0004855554855554855554A555550555555E6
:10020000555555000000AAAAAA000000AAAAAAAA49
:10021000AAAAAAAAAAAAAAAAAAAAAAAAAAAAAAAA3E
:10022000AAAAAAAAAAAAAAAAAAAA000000AAAAAA2C
:10023000000000555555555555000000AAAAAA00C2
:100240000000AAAA15AAAA15AAAA15AAAA15AAAAB6
:1002500015AAAA15AAAA15AAAA15AAAA15AAAA157C
:10026000000000AAAAAA0000005555555555550092
:100270000000AAAAAA000000AA1555AA1555AA1599
:1002800055AA1555AA1555AA1555AA1555AA1555B5
:10029000AA1555AA1555000000AAAAAA00000055E3
:1002A0005555555555000000AAAAAA0000005555FD
:1002B00055555555555555555555555555555555EE
:1002C000555555555555555555555555000000AA88
:1002D000AAAA000000555555555555055555A15527
:1002E00055215555215555215555215555215555C2
:1002F00021555521555521555521555521555521E6
:100300005555215555A155550555555555552A0550
:100310004180A128800828800281A00285A00821B0
:100320002820084A80084A80024AA00250AA0254A3
:100330008AA854800154855552A1554AA8552AAA25
:100340001500000545455521215528A15522215567
:1003500020215521215545045554821554821554A8
:10036000AA155482155482155514015552A8555496
:10037000215554815552A85554015555555555553B
:1003800055005554AA155296855296855296855415
:10039000AA1555005555555555555555555555554D
:1003A00055555555555555555555555555555555FD
:1003B000AAAAAAAAAAAAAAAAAAAAAAAAAAAAAAAA9D
:1003C000AAAAAAAAAAAAAAAAAAAAAAAAAAAAAAAA8D
:1003D000AAAAAAAAAAAAAAAAAAAAAAAAAAAAAAAA7D
:1003E000AAAAAAAAAAAA55555555555555555555BF
:1003F00055555555555555555555555555555555AD
:100400005511155566455519955566455519955516
:100410006645551995556645551115554445551967
:100420009555664555199555664555199555664531
:100430005519955544455511155566455519955508
:100440006645551995556645551995556645551195
:10045000155555555555555555555555555555558C
:100460005555555555555555555555555555511184
:10047000555664555199555664555199555664557C
:1004800051995556645551115554445551995556E5
:10049000645551995556645551995556645551991D
:1004A00055544455511155566455519955566455F6
:1004B0005199555664555199555664555111555594
:1004C00055555555555555555555555555555555DC
:1004D00055555555555555555511111166466419C3
:1004E0009199664664199199664664199199664690
:1004F0006411111144455519955566455519955581
:1005000066455519955566455519955544455511F6
:100510001111664664199199664664199199664667
:1005200064199199664664111111555444555199B5
:1005300055566455519955566455519955566455BB
:1005400051995554441111116646641991996646A2
:10055000641991996646641991996646641111115E
:100560004444441991996646641991996646641900
:100570009199664664199199444444111111664653
:10058000641991996646641991996646641991991E
:1005900066466411111155555555555555555555C6
:1005A00055555555555555555555555555555555FB
:1005B00055555555555555555555555555555555EB
:1005C0005555551991996646641111116666661163
:1005D0001111666666111111666666111111666663
:1005E00066111111666666111111666666111111A8
:1005F00066666611111166666611111166666611EE
:100600001111555555555555555555555555555522
:10061000555555555555555555555555555555558A
:10062000555555555555555555555555555555557A
:10063000555555555555555555555555555555556A
:10064000555555555555555555555555555555555A
:10065000555555555555555555555555555555554A
:10066000555555555555555555555555555555553A
:10067000555555555555555555555555555555552A
:10068000555555555555555555555555555555551A
:10069000555555555555555555555555555555550A
:1006A00055555555555555555555555555555555FA
:1006B00055555555555555555555555555555555EA
:1006C00055555555555555555555555555555555DA
:1006D00055555555555555555555555555555555CA
:1006E00055555555555555555555555555555555BA
:1006F00055555555555555555555555555555555AA
:100700005555555555555555555555555555555599
:100710005555555555555555555555555555555589
:100720005555555555555555555555555555555579
:100730005555555555555555555555555555555569
:100740005555555555555555555555555555555559
:100750005555555555555555555555555555555549
:100760005555555555555555555555555555555539
:100770005555555555555555555555555555555529
:1007800055555555555541555528555528555528B4
:1007900055552855552855552855552855552855EA
:1007A00055285555415555415555285555285555A8
:1007B00041555555555555555455155214854A8230
:1007C000A15284A154852154852152148554551574
:1007D00055555555555555555555555555555555C9
:1007E00055555555555555555555555555555555B9
:1007F0005555555555555554141552828552828577
:100800004AAAA14AAAA15282855282854AAAA14A2D
:10081000AAA15282855282855414155555555555B5
:10082000555555555555555500555528555028057C
:1008300042AA814AAAA14A28A14A280142AA814083
:1008400028A14A28A14AAAA142AA815028055528D0
:1008500055550055555555555555555555515555A1
:10086000485415221285484A85514A15552A15556E
:10087000285554A85554A15552A1555285154A845E
:10088000854A12214A1485505515555555555555CB
:1008900055555555015554A85552AA15528A155209
:1008A000821552821552AA1554A84552AA214A8A85
:1008B000A14A0A854A02854A8AA152A8A154010583
:1008C000555555555555555155554855552A155554
:1008D0004A155552155552155548555551555555AA
:1008E00055555555555555555555555555555555B8
:1008F00055555555555555555555555555555555A8
:1009000055055554A1555285554A15552855552814
:100910005555285555285555285555285555285568
:10092000554A155552855554A1555505555555559A
:10093000555555555554155552855554A15555285D
:1009400055554A15554A15554A15554A15554A15CE
:10095000554A15554A1555285554A1555285555493
:1009600015555555555555555514555482155428FA
:100970001552AA85542815548215551455555555A8
:100980005555555555555555555555555555555517
:100990005555555555555555555555555555555507
:1009A00055555555555555555555555555555555F7
:1009B00055415555285554281552AA8552AA855493
:1009C0002815552855554155555555555555555585
:1009D00055555555555555555555555555555555C7
:1009E00055555555555555555555555555555555B7
:1009F000555555415555285555285554A15552859D
:100A000055541555555555555555555555555555D7
:100A10005555555555555555555555555555555586
:100A2000555554001552AA8552AA8554001555559E
:100A30005555555555555555555555555555555566
:100A40005555555555555555555555555555555556
:100A50005555555555555555555555555555555546
:100A600055555555554155552855552855554155B8
:100A7000555555555555555555555555555005557B
:100A80004285554A85550A05552A1554281554A8F6
:100A90005550A05552A1554281554A85554A055594
:100AA0004A15554015555555555555555555555596
:100AB000555555555555555554001552AA854AAAB0
:100AC000A14A00A14A14A14A14A14A14A14A14A19E
:100AD0004A00A14AAAA152AA855400155555555558
:100AE00055555555555555555555555555555541CA
:100AF0005555285554A85552A8555428555528558C
:100B000055285555285554281552AA8552AA85545A
:100B1000001555555555555555555555555555551A
:100B20005555555554001552AA854AAAA14A00A107
:100B30004A12A1504A85552A1554A85552A0054A73
:100B4000AAA14AAAA15000055555555555555555C8
:100B5000555555555555555555555000154AAA8565
:100B60004AAAA15000A15500A154AA8554AA8555AE
:100B700000A15000A14AAAA14AAA855000155555C6
:100B80005555555555555555555555555555555515
:100B9000555015554A85552A8554A2855282854A55
:100BA00002854AAAA14AAAA15002855552855552EA
:100BB00085555415555555555555555555555555F6
:100BC0005555555555555000054AAAA14AAAA14A5E
:100BD00000054AAA854AAAA15000A15054A14A0082
:100BE000A14AAAA152AA85540015555555555555E7
:100BF000555555555555555555555555540015523E
:100C0000AA854AAA854A00154A00154AAA854AAA11
:100C1000A14A00A14A00A14AAAA152AA85540015DE
:100C20005555555555555555555555555555555574
:100C300055555000054AAAA14AAAA15000A15552F3
:100C4000A1554A85552A15552855552855552855D5
:100C50005528555541555555555555555555555585
:100C6000555555555555555554001552AA854AAAFE
:100C7000A14A00A14A00A152AA8552AA854A00A110
:100C80004A00A14AAAA152AA8554001555555555A6
:100C9000555555555555555555555555555554005A
:100CA0001552AA854AAAA14A00A14A00A14AAAA1AE
:100CB00052AAA15400A15000A14AAAA14AAA855053
:100CC0000015555555555555555555555555555569
:100CD0005555555555555555415555285555285532
:100CE0005541555555555555555541555528555509
:100CF00028555541555555555555555555555555E5
:100D000055555555555555555555555555554155A7
:100D100055285555285555415555555555555555F1
:100D2000415555285555285554A1555505555555E6
:100D30005555555555555555555555555555555563
:100D4000555415555285554A1555285554A1555297
:100D5000855552855554A155552855554A15555216
:100D60008555541555555555555555555555555544
:100D700055555555555555555555555554001552BC
:100D8000AA8552AA8554001554001552AA8552AA64
:100D90008554001555555555555555555555555569
:100DA0005555555555555555555555555055554A03
:100DB000155552855554A155552855554A15554A2E
:100DC0001555285554A1555285554A155550555518
:100DD00055555555555555555554001552AA854AE2
:100DE000AAA14A00A14A14A15054A15552A1554AA2
:100DF00085552A1555285555415555415555285560
:100E000055285555415555555555555555555554D4
:100E1000001552AA854A00A128552821004820AA79
:100E200008208208208208208AA820A8A120010585
:100E30002855054A00A152AA855400155555555507
:100E4000555555005554AA1552AA854A82A14A14EF
:100E5000A14A14A14A14A14A14A14A00A14AAAA174
:100E60004AAAA14A00A14A14A14A14A14A14A150B5
:100E700055055555555555555000554AAA154AAA78
:100E8000854A02A14A14A14A14A14A02A14AAA858C
:100E90004AAA854A02A14A14A14A14A14A02A14AB7
:100EA000AA854AAA15500055555555555555550012
:100EB0005554AA1552AA854A82A14A14A14A150579
:100EC0004A15554A15554A15554A15554A15054AA4
:100ED00014A14A82A152AA8554AA15550055555508
:100EE000555555555000554AAA154AAA854A02A19A
:100EF0004A14A14A14A14A14A14A14A14A14A14AAD
:100F000014A14A14A14A14A14A02A14AAA854AAAD4
:100F1000155000555555555555555000054AAAA12F
:100F20004AAAA14A00054A15554A15554A00554A8C
:100F3000AA154AAA154A00554A15554A15554A0098
:100F4000054AAAA14AAAA15000055555555555551F
:100F50005000054AAAA14AAAA14A00054A15554AC5
:100F600015554A00554AAA154AAA154A00554A1568
:100F7000554A15554A15554A15554A155550555552
:100F800055555555555554005552AA154AAA854AE6
:100F900082A14A14A14A14A14A15054A00054A0A29
:100FA000A14A0AA14A10A14A14A14A00A14AAAA131
:100FB00052AAA15400055555555555555055054A49
:100FC00014A14A14A14A14A14A14A14A14A14A0026
:100FD000A14AAAA14AAAA14A00A14A14A14A14A15D
:100FE0004A14A14A14A14A14A15055055555555506
:100FF000555554001552AA8552AA855428155528CE
:101000005555285555285555285555285555285571
:1010100055285555285554281552AA8552AA855445
:101020000015555555555555554005552AA1552A74
:10103000A155428555528555528555528555528543
:101040005552855552855052854A12854A02854A25
:10105000AA8552AA15540055555555555555505504
:10106000054A14A14A14A14A12854A12854A0A1552
:101070004A0A154AA8554A28554A0A154A0A154ADD
:1010800012854A12854A14A14A14A1505505555596
:10109000555555555055554A15554A15554A1555E6
:1010A0004A15554A15554A15554A15554A15554A72
:1010B00015554A15554A15554A00054AAAA14AAA86
:1010C000A15000055555555555555055054A14A183
:1010D0004A82A14AAAA14AAAA14A28A14A28A14A09
:1010E00000A14A14A14A14A14A14A14A14A14A1405
:1010F000A14A14A14A14A1505505555555555555A9
:101100005055054A14A14A14A14A14A14A84A14A7F
:1011100084A14AA0A14AA8A14A2AA14A0AA14A1226
:10112000A14A12A14A14A14A14A14A14A15055057A
:1011300055555555555555005554AA1552AA854A29
:1011400082A14A14A14A14A14A14A14A14A14A1422
:10115000A14A14A14A14A14A14A14A82A152AA8503
:1011600054AA155500555555555555555000554AD5
:10117000AA154AAA854A02A14A14A14A14A14A0200
:10118000A14AAA854AAA154A00554A15554A155535
:101190004A15554A15554A155550555555555555E5
:1011A000555555005554AA1552AA854A82A14A148C
:1011B000A14A14A14A14A14A14A14A14A14A00A1A7
:1011C0004A28A14A2AA14A8A8552AAA154A8A1550F
:1011D00001055555555555555000554AAA154AAA69
:1011E000854A02A14A14A14A14A14A02A14AAA8529
:1011F0004AA8154AA8554A2A154A0A854A12A14AF8
:1012000014A14A14A150550555555555555555002D
:101210005554AA1552AA854A82A14A14054A155561
:101220004A815552A815542A855542A15554A150BA
:1012300014A14A82A152AA8554AA155500555555A4
:10124000555555555000054AAAA14AAAA15028054E
:10125000552855552855552855552855552855551F
:10126000285555285555285555285555285555283C
:10127000555541555555555555555055054A14A187
:101280004A14A14A14A14A14A14A14A14A14A14A19
:1012900014A14A14A14A14A14A14A14A14A14A82D1
:1012A000A152AA8554AA1555005555555555555561
:1012B0005055054A14A14A14A14A14A14A14A14A3E
:1012C00014A14A14A14A14A14A14A14A14A14A82A1
:1012D000A152828552AA8554AA15552855554155C3
:1012E0005555555555555055054A14A14A14A14A0E
:1012F00014A14A14A14A00A14A28A14A28A14A28B7
:10130000A14A28A14A28A14A28A14AAAA152AA85ED
:101310005282855414155555555555555055054A05
:1013200014A14A14A14A14A14A14A152828554AAB4
:101330001555285555285554AA155282854A14A189
:101340004A14A14A14A14A14A150550555555555A2
:1013500055555055054A14A14A14A14A14A14A14DE
:10136000A14A14A14A82A152AA8554AA155528550A
:1013700055285555285555285555285555285555FE
:1013800041555555555555555000054AAAA14AAAEB
:10139000A15000A15554A15552A1554A85552A1571
:1013A00054A85552A1554A85554A15554A00054A33
:1013B000AAA14AAAA1500005555555555555555550
:1013C00055554015552A85552A85552815552855B2
:1013D000552855552855552855552855552855559E
:1013E0002855552815552A85552A85554015555592
:1013F000555555555555555555555055554A1555ED
:101400004A855552855552A15554A15554A8555554
:101410002855552A15554A15554A85555285555210
:1014200085555415555555555555555555540155D2
:1014300052A85552A8555428555528555528555544
:10144000285555285555285555285555285554285B
:101450005552A85552A855540155555555555555F1
:1014600055555555415555285554AA155282855202
:10147000148554551555555555555555555555556E
:10148000555555555555555555555555555555550C
:1014900055555555555555555555555555555555FC
:1014A00055555555555555555555555555555555EC
:1014B000555555555555554000012AAAA82AAAA8A0
:1014C0004000015555555555555055554A155552DD
:1014D000855554A155552855554155555555555582
:1014E00055555555555555555555555555555555AC
:1014F000555555555555555555555555555555559C
:1015000055555555555555555555555555555500E0
:101510005554AA1552AA854A82A14A14A14A00A18B
:101520004AAAA14AAAA14A00A14A14A14A14A15058
:1015300055055555555555555555555555555555AB
:10154000555555555000154AAA854AAAA14A00A1E9
:101550004A00A14AAA854AAA854A00A14A00A14A8E
:10156000AAA14AAA855000155555555555555555AA
:101570005555555555555555555554001552AA852F
:101580004AAAA14A00A14A15054A15554A15554AC5
:1015900015054A00A14AAAA152AA8554001555551D
:1015A00055555555555555555555555555555555EB
:1015B0005000554AAA154AAA854A02A14A14A14ACE
:1015C00014A14A14A14A14A14A02A14AAA854AAA0E
:1015D0001550005555555555555555555555555555
:1015E0005555555555555000054AAAA14AAAA14A34
:1015F00000054A00554AAA154AAA154A00554A004C
:10160000054AAAA14AAAA150000555555555555558
:101610005555555555555555555555555000054A2F
:10162000AAA14AAAA14A00054A00154AAA854AAABF
:10163000854A00154A15554A15554A1555505555B0
:10164000555555555555555555555555555555554A
:10165000555554001552AA854AAAA14A80A14A109C
:10166000054A0AA14A0AA14A10A14A80A14AAAA190
:1016700052AA85540015555555555555555555552E
:1016800055555555555555555055054A14A14A14AB
:10169000A14A14A14A00A14AAAA14AAAA14A00A1AA
:1016A0004A14A14A14A14A14A1505505555555553F
:1016B000555555555555555555555555555555002F
:1016C0005554AA1554AA1555285555285555285529
:1016D00055285555285555285554AA1554AA155519
:1016E00000555555555555555555555555555555FF
:1016F00055555555554005552AA1552AA1554285A0
:1017000055528555528555528554128552828552BF
:10171000AA8554AA15550055555555555555555535
:10172000555555555555555555555055054A14A1BE
:101730004A12A14A0A854A2A154AA8554AA8554A72
:10174000AA154A0A854A12A14A14A15055055555B1
:101750005555555555555555555555555555555539
:101760005055554A15554A15554A15554A15554A65
:1017700015554A15554A15554A00054AAAA14AAABF
:10178000A150000555555555555555555555555567
:101790005555555555555055054A14A14A82A14AEB
:1017A000AAA14A28A14A28A14A00A14A14A14A1480
:1017B000A14A14A14A14A1505505555555555555E2
:1017C0005555555555555555555555555055054A29
:1017D00014A14A14A14A84A14AA0A14AA8A14A2A54
:1017E000A14A0AA14A12A14A14A14A14A1505505BE
:1017F0005555555555555555555555555555555599
:10180000555554001552AA854AAAA14A00A14A1466
:10181000A14A14A14A14A14A14A14A00A14AAAA1AA
:1018200052AA85540015555555555555555555557C
:1018300055555555555555555000154AAA854AAA2E
:10184000A14A00A14A00A14AAAA14AAA854A0015B4
:101850004A15554A15554A1555505555555555551E
:10186000555555555555555555555555555554007E
:101870001552AA854AAAA14A00A14A14A14A14A154
:101880004A10A14A0AA14A0A854AAAA152A8A1540B
:10189000010555555555555555555555555555559C
:1018A000555555555000154AAA854AAAA14A00A186
:1018B0004A00A14AAA854AA8154A2A154A0A854A11
:1018C00012A14A14A1505505555555555555555514
:1018D0005555555555555555555554001552AA85CC
:1018E0004AAAA14A00A14A00054AAA8552AAA150C3
:1018F00000A14A00A14AAAA152AA85540015555533
:101900005555555555555555555555555555555587
:101910005000054AAAA14AAAA150280555285555A4
:101920002855552855552855552855552855552875
:10193000555541555555555555555555555555556B
:101940005555555555555055054A14A14A14A14AA7
:1019500014A14A14A14A14A14A14A14A14A14A008C
:10196000A14AAAA152AA8554001555555555555559
:101970005555555555555555555555555055054A77
:1019800014A14A14A14A14A14A14A14A14A14A1448
:10199000A14A82A152AA8554AA15552855554155E8
:1019A00055555555555555555555555555555555E7
:1019B00055555055054A14A14A14A14A14A14A1478
:1019C000A14A00A14A28A14A28A14AAAA152AA854F
:1019D00052828554141555555555555555555555DF
:1019E00055555555555555555055054A14A14A82DA
:1019F000A152AA8554AA1555285555285554AA15FB
:101A000052AA854A82A14A14A150550555555555EB
:101A1000555555555555555555555555555550557B
:101A2000054A14A14A14A14A14A14A82A152AA85C6
:101A300054AA1555285555285555285555285555F6
:101A4000415555555555555555555555555555555A
:101A5000555555555000054AAAA14AAAA15002A1C0
:101A6000554A85552A1554A85552A1554A80054A0C
:101A7000AAA14AAAA1500005555555555555555589
:101A800055554015552A85552A85552815552855EB
:101A900055285554A85552A15554A8555528555563
:101AA0002855552815552A85552A855540155555CB
:101AB0005555555555555555415555285555285544
:101AC00055285555285555285555285555285555A7
:101AD00028555528555528555528555528555528C4
:101AE000555541555555555555555555555401550F
:101AF00052A85552A855542855552855552855557E
:101B00002A15554A85552A155528555528555428BE
:101B10005552A85552A8555401555555555555552A
:101B20005555555555555555555555555555555565
:101B3000555555555554055552A1454AA821482A91
:101B4000A1514A855550155555555555555555551D
:101B50005555555555555555555555555555555535
:101B60005555555555555555555555555555555525
:101B70005555555555555555555555555555555515
:101B8000555555555555568082580000580A0060E5
:101B90000A008009808009808009800009600009AE
:101BA0005A00095500095500095500095500095505
:101BB00000095500096A800980800980800026801C
:101BC0000026A00095A00095A000959800269800FA
:101BD0002698002658002856000856000056000097
:101BE0005600005580005580025580029580029570
:101BF000800200968000980082580A82600A8280E3
:101C0000090980090980090A000926000926000936
:101C10002600099600099600099600095600095603
:101C2000000955800955800982600000A0000098D5
:101C300000009800809800809800809800609800CC
:101C40005A580055580055580055580055580055D9
:101C50005800555800AA98008098008098000955AF
:101C6000560955582555602555802555802556001F
:101C700025560025560025580025580025580025D2
:101C8000580025580025580025580025560025AA3B
:101C9000002602008029560002560A00952580255C
:101CA0002580252580092580092580092580022594
:101CB0008002258002258002258002258002258061
:101CC0000225800925800925800900000200000006
:101CD00080028080026080026080026080026080FA
:101CE0000260800260800260800260800260800288
:101CF000808000008000028002A980025580025589
:101D000095555525555509555502555502555500BA
:101D100095550095550095550095550095550255DA
:101D20005502555509555525555595555555AA559D
:101D3000560095560095600980600A80580A02583E
:101D40000009568025556A95555555555555555593
:101D50005556A95658025858025858025858025811
:101D600056A9565555555555555555559580029575
:101D7000800255800256000056000055AAAA55550B
:101D800055555555555555A956A9025802025802A0
:101D9000025802025802A956A95555555555555590
:101DA000555555600955600955580A5558005556FE
:101DB0008055556A55555555555555555556A9563D
:101DC00058025858025858025858025856A95655A1
:101DD00055555555555555558098008098000258D1
:101DE00000096000256000955AAA5555555555556E
:101DF000555555A956A90258020258020258020226
:101E00005802A956A95555555555555555552602AB
:101E100080260280280260000958000956AAA555AC
:101E200055555555555555555556A9565802585856
:101E3000025858025858025856A9565555555555E6
:101E4000555555552580252580250A0095000256B3
:101E50008029566A9555555555555555555555A989
:101E600056A9025802025802025802025802A95604
:101E7000A95555555555555555558002558002550E
:101E8000800255000095000095AAAA555556A955FF
:101E9000580255580255A802560000560000560038
:101EA0000056000055A8025558025558025556A92B
:101EB0006A00A98000028000028000028000026A9D
:101EC00000A956009556009555AA55A55555095592
:101ED00055095555095555095555A5555555555546
:101EE00055555555555500000000000000000000F4
:101EF00000000000000000000000000000000000E2
:101F000000000000000000000000000000000000D1
:101F100000000000000000000000000000000000C1
:101F200000000000000000000000000000000000B1
:1022800000000000000000000028000028000028D6
:102290000000280000280000280000280000280076
:1022A00000280000000000000000280000280000B6
:1022B00000000000000000000000000200800A8210
:1022C000A00280A00080200080200200800000008A
:1022D00000000000000000000000000000000000FE
:1022E00000000000000000000000000000000000EE
:1022F00000000000000000000000028280028280D6
:102300000AAAA00AAAA00282800282800AAAA00ABF
:10231000AAA002828002828000000000000000006B
:10232000000000000000000000000028000028005D
:1023300002AA800AAAA00A28A00A280002AA8000ED
:1023400028A00A28A00AAAA002AA80002800002823
:10235000000000000000000000000000000000007D
:102360000A02800A0280000A80000A00002A000097
:10237000280000A80000A00002A0000280000A803F
:10238000000A02800A028000000000000000000035
:1023900000000000000000A80002AA00028A00025B
:1023A0000200028200028A0000A80002AA200A8A13
:1023B000A00A0A800A02800A8AA002A8A0000000DF
:1023C000000000000000000000000800002A0000DB
:1023D0000A000002000002000008000000000000E7
:1023E00000000000000000000000000000000000ED
:1023F00000000000000000000000000000000000DD
:1024000000000000A0000280000A00002800002850
:1024100000002800002800002800002800002800F4
:10242000000A000002800000A00000000000000080
:10243000000000000000000002800000A000002852
:1024400000000A00000A00000A00000A00000A005A
:10245000000A00000A0000280000A000028000001E
:1024600000000000000000000000000082000028C2
:102470000002AA8000280000820000000000000086
:10248000000000000000000000000000000000004C
:10249000000000000000000000000000000000003C
:1024A000000000000000000000000000000000002C
:1024B00000000000280000280002AA8002AA800074
:1024C00028000028000000000000000000000000BC
:1024D00000000000000000000000000000000000FC
:1024E00000000000000000000000000000000000EC
:1024F000000000000000280000280000A00002806A
:1025000000000000000000000000000000000000CB
:1025100000000000000000000000000000000000BB
:10252000000000000002AA8002AA80000000000053
:10253000000000000000000000000000000000009B
:10254000000000000000000000000000000000008B
:10255000000000000000000000000000000000007B
:10256000000000000000000028000028000000001B
:1025700000000000000000000000000000028000D9
:102580000280000A80000A00002A0000280000A83B
:102590000000A00002A0000280000A80000A0000E3
:1025A0000A00000000000000000000000000000021
:1025B000000000000000000000000002AA800AAA3B
:1025C000A00A00A00A00A00A00A00A00A00A00A019
:1025D0000A00A00AAAA002AA8000000000000000D1
:1025E00000000000000000000000000000000000EB
:1025F0000000280000A80002A80000280000280011
:1026000000280000280000280002AA8002AA8000FA
:1026100000000000000000000000000000000000BA
:102620000000000000000002AA800AAAA00A00A080
:102630000A02A0000A80002A0000A80002A0000AE6
:10264000AAA00AAAA00000000000000000000000EC
:10265000000000000000000000000000000AAA8046
:102660000AAAA00000A00000A000AA8000AA800082
:1026700000A00000A00AAAA00AAA80000000000092
:10268000000000000000000000000000000000004A
:10269000000000000A80002A8000A2800282800AD6
:1026A00002800AAAA00AAAA00002800002800002FA
:1026B000800000000000000000000000000000009A
:1026C0000000000000000000000AAAA00AAAA00A58
:1026D00000000AAA800AAAA00000A00000A00A0028
:1026E000A00AAAA002AA80000000000000000000CA
:1026F00000000000000000000000000000000002D8
:10270000AA800AAA800A00000A00000AAA800AAA6F
:10271000A00A00A00A00A00AAAA002AA8000000045
:1027200000000000000000000000000000000000A9
:1027300000000000000AAAA00AAAA00000A000024F
:10274000A0000A80002A00002800002800002800BD
:102750000028000000000000000000000000000051
:10276000000000000000000000000002AA800AAA89
:10277000A00A00A00A00A002AA8002AA800A00A063
:102780000A00A00AAAA002AA80000000000000001F
:102790000000000000000000000000000000000039
:1027A0000002AA800AAAA00A00A00A00A00AAAA001
:1027B00002AAA00000A00000A00AAAA00AAA800005
:1027C0000000000000000000000000000000000009
:1027D00000000000000000000000002800002800A9
:1027E00000000000000000000000000000280000C1
:1027F00028000000000000000000000000000000B1
:1028000000000000000000000000000000000000C8
:102810000028000028000000000000000000000068
:10282000000000280000280000A0000000000000B8
:102830000000000000000000000000000000000098
:10284000000000000280000A0000280000A0000232
:10285000800002800000A000002800000A000002A2
:1028600080000000000000000000000000000000E8
:102870000000000000000000000000000000000256
:10288000AA8002AA8000000000000002AA8002AA1A
:1028900080000000000000000000000000000000B8
:1028A0000000000000000000000000000000000A1E
:1028B000000002800000A000002800000A00000ABA
:1028C0000000280000A0000280000A0000000000B4
:1028D00000000000000000000000000002AA800AC2
:1028E000AAA00A00A00A00A00000A00002A0000AFE
:1028F00080002A00002800000000000000002800DE
:10290000002800000000000000000000000000009F
:10291000000002AA800A00A028002820000820AA9F
:1029200008208208208208208AA820A8A020000071
:102930002800000A00A002AA800000000000000099
:10294000000000000000AA0002AA800A82A00A007B
:10295000A00A00A00A00A00A00A00A00A00AAAA0DB
:102960000AAAA00A00A00A00A00A00A00A00A0006B
:1029700000000000000000000000000AAA000AAAEF
:10298000800A02A00A00A00A00A00A02A00AAA80E7
:102990000AAA800A02A00A00A00A00A00A02A00A4D
:1029A000AA800AAA00000000000000000000000049
:1029B0000000AA0002AA800A82A00A00A00A000061
:1029C0000A00000A00000A00000A00000A00000ACB
:1029D00000A00A82A002AA8000AA00000000000055
:1029E000000000000000000AAA000AAA800A02A053
:1029F0000A00A00A00A00A00A00A00A00A00A00A7B
:102A000000A00A00A00A00A00A02A00AAA800AAA3E
:102A1000000000000000000000000000000AAAA062
:102A20000AAAA00A00000A00000A00000A00000A20
:102A3000AA000AAA000A00000A00000A00000A0010
:102A4000000AAAA00AAAA0000000000000000000DE
:102A50000000000AAAA00AAAA00A00000A00000AB0
:102A600000000A00000AAA000AAA000A00000A00E0
:102A7000000A00000A00000A00000A00000000002E
:102A800000000000000000000002AA000AAA800A5C
:102A900082A00A00A00A00A00A00000A00000A0A98
:102AA000A00A0AA00A00A00A00A00A00A00AAAA080
:102AB00002AAA00000000000000000000000000AC0
:102AC00000A00A00A00A00A00A00A00A00A00A00B4
:102AD000A00AAAA00AAAA00A00A00A00A00A00A0B0
:102AE0000A00A00A00A00A00A000000000000000E8
:102AF000000000000002AA8002AA8000280000282E
:102B000000002800002800002800002800002800FD
:102B100000280000280000280002AA8002AA8000E5
:102B20000000000000000000000000002AA0002AB1
:102B3000A00002800002800002800002800002806B
:102B40000002800002800002800A02800A02800ADD
:102B5000AA8002AA0000000000000000000000009F
:102B6000000A00A00A00A00A02800A02800A0A00E5
:102B70000A0A000AA8000A28000A0A000A0A000A2B
:102B800002800A02800A00A00A00A00000000000E3
:102B9000000000000000000A00000A00000A000017
:102BA0000A00000A00000A00000A00000A00000AE9
:102BB00000000A00000A00000A00000AAAA00AAAEF
:102BC000A00000000000000000000000000A00A0BB
:102BD0000A82A00AAAA00AAAA00A28A00A28A00A73
:102BE00000A00A00A00A00A00A00A00A00A00A0093
:102BF000A00A00A00A00A0000000000000000000E1
:102C00000000000A00A00A00A00A00A00A80A00A92
:102C100080A00AA0A00AA8A00A2AA00A0AA00A0264
:102C2000A00A02A00A00A00A00A00A00A00000005A
:102C300000000000000000000000AA0002AA800AB4
:102C400082A00A00A00A00A00A00A00A00A00A00B0
:102C5000A00A00A00A00A00A00A00A82A002AA807E
:102C600000AA000000000000000000000000000AB0
:102C7000AA000AAA800A02A00A00A00A00A00A026A
:102C8000A00AAA800AAA000A00000A00000A00009E
:102C90000A00000A00000A00000000000000000016
:102CA000000000000000AA0002AA800A82A00A0018
:102CB000A00A00A00A00A00A00A00A00A00A00A022
:102CC0000A28A00A2AA00A8A8002AAA000A8A000B6
:102CD00000000000000000000000000AAA000AAA8C
:102CE000800A02A00A00A00A00A00A02A00AAA8084
:102CF0000AA8000AA8000A2A000A0A800A02A00AF2
:102D000000A00A00A0000000000000000000000079
:102D10000000AA0002AA800A82A00A00000A00009D
:102D20000A800002A800002A800002A00000A00083
:102D300000A00A82A002AA8000AA000000000000F1
:102D4000000000000000000AAAA00AAAA0002800B3
:102D500000280000280000280000280000280000AB
:102D60002800002800002800002800002800002873
:102D7000000000000000000000000000000A00A0A9
:102D80000A00A00A00A00A00A00A00A00A00A00AE7
:102D900000A00A00A00A00A00A00A00A00A00A825F
:102DA000A002AA8000AA00000000000000000000AD
:102DB0000000000A00A00A00A00A00A00A00A00A61
:102DC00000A00A00A00A00A00A00A00A00A00A822F
:102DD000A002828002AA8000AA0000280000000051
:102DE0000000000000000000000A00A00A00A00A85
:102DF00000A00A00A00A00A00A28A00A28A00A2809
:102E0000A00A28A00A28A00A28A00AAAA002AA802C
:102E10000282800000000000000000000000000AA4
:102E200000A00A00A00A00A00A00A002828000AA56
:102E30000000280000280000AA000282800A00A0EA
:102E40000A00A00A00A00A00A00000000000000084
:102E500000000000000A00A00A00A00A00A00A006A
:102E6000A00A00A00A82A002AA8000AA00002800EE
:102E7000002800002800002800002800002800008A
:102E800000000000000000000000000AAAA00AAA3A
:102E9000A00000A00000A00002A0000A80002A00FC
:102EA00000A80002A0000A80000A00000A00000A30
:102EB000AAA00AAAA0000000000000000000000074
:102EC00000000000002A80002A800028000028005E
:102ED000002800002800002800002800002800002A
:102EE0002800002800002A80002A8000000000003E
:102EF0000000000000000000000000280000280082
:102F000000280000280000280000280000280000F9
:102F100028000028000028000028000028000028C1
:102F200000000000000000000000000000000000A1
:102F300002A80002A80000280000280000280000C5
:102F40002800002800002800002800002800002891
:102F50000002A80002A8000000000000000000001D
:102F600000000000000000280000AA000282800289
:102F700000800000000000000000000000000000D1
:102F80000000000000000000000000000000000041
:102F90000000000000000000000000000000000031
:102FA0000000000000000000000000000000000021
:102FB000000000000000000000002AAAA82AAAA819
:102FC0000000000000000000000000000A000002F5
:102FD000800000A0000028000000000000000000A9
:102FE00000000000000000000000000000000000E1
:102FF00000000000000000000000000000000000D1
:1030000000000000000000000000000000000000C0
:103010000000AA0002AA800A82A00A00A00A00A05A
:103020000AAAA00AAAA00A00A00A00A00A00A000FA
:103030000000000000000000000000000000000090
:10304000000000000000000AAA800AAAA00A00A04E
:103050000A00A00AAA800AAA800A00A00A00A00A00
:10306000AAA00AAA800000000000000000000000E2
:103070000000000000000000000000000002AA8024
:103080000AAAA00A00A00A00000A00000A00000A1A
:1030900000000A00A00AAAA002AA80000000000006
:1030A0000000000000000000000000000000000020
:1030B0000000000AAA000AAA800A02A00A00A00AC8
:1030C00000A00A00A00A00A00A02A00AAA800AAA78
:1030D00000000000000000000000000000000000F0
:1030E0000000000000000000000AAAA00AAAA00A2E
:1030F00000000A00000AAA000AAA000A00000A004A
:10310000000AAAA00AAAA000000000000000000017
:103110000000000000000000000000000000000AA5
:10312000AAA00AAAA00A00000A00000AAA800AAA05
:10313000800A00000A00000A00000A0000000000E7
:10314000000000000000000000000000000000007F
:10315000000000000002AA800AAAA00A80A00A00BB
:10316000000A0AA00A0AA00A00A00A80A00AAAA0CF
:1031700002AA800000000000000000000000000023
:1031800000000000000000000000000A00A00A008B
:10319000A00A00A00A00A00AAAA00AAAA00A00A0E9
:1031A0000A00A00A00A00A00A00000000000000021
:1031B000000000000000000000000000000000000F
:1031C0000000AA0000AA0000280000280000280033
:1031D00000280000280000280000AA0000AA000023
:1031E00000000000000000000000000000000000DF
:1031F00000000000000000002AA0002AA0000280B9
:1032000000028000028000028000028002828002B0
:10321000AA8000AA000000000000000000000000DA
:10322000000000000000000000000000000A00A0F4
:103230000A02A00A0A800A2A000AA8000AA8000AAC
:10324000AA000A0A800A02A00A00A00000000000EA
:10325000000000000000000000000000000000006E
:103260000000000A00000A00000A00000A00000A2C
:1032700000000A00000A00000A00000AAAA00AAA28
:10328000A00000000000000000000000000000009E
:103290000000000000000000000A00A00A82A00A4E
:1032A000AAA00A28A00A28A00A00A00A00A00A00D2
:1032B000A00A00A00A00A00000000000000000001A
:1032C0000000000000000000000000000000000AF4
:1032D00000A00A00A00A80A00AA0A00AA8A00A2AAA
:1032E000A00A0AA00A02A00A00A00A00A00000008A
:1032F00000000000000000000000000000000000CE
:10330000000000000002AA800AAAA00A00A00A0089
:10331000A00A00A00A00A00A00A00A00A00AAAA011
:1033200002AA800000000000000000000000000071
:1033300000000000000000000000000AAA800AAAA5
:10334000A00A00A00A00A00AAAA00AAA800A0000F7
:103350000A00000A00000A0000000000000000004F
:10336000000000000000000000000000000000005D
:103370000002AA800AAAA00A00A00A00A00A00A0CF
:103380000A00A00A0AA00A0A800AAAA002A8A000AD
:10339000000000000000000000000000000000002D
:1033A000000000000000000AAA800AAAA00A00A0EB
:1033B0000A00A00AAA800AA8000A2A000A0A800AAB
:1033C00002A00A00A00000000000000000000000B1
:1033D0000000000000000000000000000002AA80C1
:1033E0000AAAA00A00A00A00000AAA8002AAA00055
:1033F00000A00A00A00AAAA002AA80000000000003
:1034000000000000000000000000000000000000BC
:103410000000000AAAA00AAAA000280000280000B4
:1034200028000028000028000028000028000028AC
:10343000000000000000000000000000000000008C
:103440000000000000000000000A00A00A00A00A1E
:1034500000A00A00A00A00A00A00A00A00A00A001A
:10346000A00AAAA002AA800000000000000000003C
:103470000000000000000000000000000000000A42
:1034800000A00A00A00A00A00A00A00A00A00A00EA
:10349000A00A82A002AA8000AA0000280000000062
:1034A000000000000000000000000000000000001C
:1034B00000000000000A00A00A00A00A00A00A0004
:1034C000A00A00A00A28A00A28A00AAAA002AA808E
:1034D00002828000000000000000000000000000E8
:1034E00000000000000000000000000A00A00A82A6
:1034F000A002AA8000AA0000280000280000AA005C
:1035000002AA800A82A00A00A000000000000000B9
:1035100000000000000000000000000000000000AB
:10352000000A00A00A00A00A00A00A82A002AA8045
:1035300000AA000028000028000028000028000041
:10354000000000000000000000000000000000007B
:10355000000000000000000AAAA00AAAA00002A021
:10356000000A80002A0000A80002A0000A80000AC9
:10357000AAA00AAAA00000000000000000000000AD
:1035800000000000002A8000280000280000280019
:1035900000280000A80002A00000A80000280000E9
:1035A0002800002800002800002A800000000000F9
:1035B00000000000000000000000002800002800BB
:1035C0000028000028000028000028000028000033
:1035D00028000028000028000028000028000028FB
:1035E00000000000000000000000000000000000DB
:1035F00002A80002A80000280000280000280000FF
:103600002A00000A80002A00002800002800002864
:103610000002A80002A80000000000000000000056
:10362000000000000000000000000000000000009A
:10363000000000000000000002A0000AA820082AE4
:10364000A0000A8000000000000000000000000050
:10365000000000000000000000000000000000006A
:10366000000000000000000000000000000000005A
:10367000000000000000000000000000000000004A
:10368000000000000000000000080002010000032C
:1036900004070000000000000000000000002500FA
:1036A00028002B0000000000240027002A0004044A
:1036B00004040404040402020202020203030303DA
:1036C00003030102040810204080010204081020B6
:1036D000010204081020321F11241FBECFEFD8E0D2
:1036E000DEBFCDBF11E0A0E0B1E0E8E1F5E402C04B
:1036F00005900D92A231B107D9F721E0A2E1B1E026
:1037000001C01D92A43EB207E1F71BE1CCE6DBE16C
:1037100004C02197FE010E947F22CB36D107C9F752
:103720000E945F1F0C948A220C94000090E0FC0120
:10373000EE53F94C2491FC01E255F94C8491882315
:1037400099F090E0880F991FFC01EC55F94CA59178
:10375000B491FC01E656F94C859194918FB7F89499
:10376000EC91E22BEC938FBF0895CF92DF92EF9212
:10377000FF920F931F93CF93DF936C017A018B011C
:10378000C0E0D0E0CE15DF0589F0D8016D918D0144
:10379000D601ED91FC910190F081E02DC6010995D3
:1037A000892B11F47E0102C02196ECCFC701DF9175
:1037B000CF911F910F91FF90EF90DF90CF900895E0
:1037C000FC01918D828D981761F0828DDF01A80F29
:1037D000B11D5D968C91928D9F5F9F73928F90E04B
:1037E00008958FEF9FEF0895FC01918D828D9817BA
:1037F00031F0828DE80FF11D858D90E008958FEFF7
:103800009FEF0895FC01918D228D892F90E0805CBF
:103810009F4F821B91098F739927089584E291E04D
:103820000E94021C21E0892B09F420E0822F0895D8
:10383000FC01848DDF01A80FB11DA35ABF4F2C914D
:10384000848D90E001968F739927848FA689B7891C
:103850002C93A089B1898C9180648C93938D848DF5
:10386000981306C00288F389E02D80818F7D8083C4
:103870000895EF92FF920F931F93CF93DF93EC0184
:1038800081E0888F9B8D8C8D981305C0E889F9891C
:10389000808185FD24C0F62E0B8D10E00F5F1F4F39
:1038A0000F731127E02E8C8DE8120CC00FB607FCA9
:1038B000FACFE889F989808185FFF5CFCE010E9492
:1038C000181CF1CF8B8DFE01E80FF11DE35AFF4F5D
:1038D000F0820B8FEA89FB898081806207C0EE89C4
:1038E000FF896083E889F98980818064808381E031
:1038F00090E0DF91CF911F910F91FF90EF9008958D
:10390000CF93DF93EC01888D8823C9F0EA89FB8986
:10391000808185FD05C0A889B9898C9186FD0FC07D
:103920000FB607FCF5CF808185FFF2CFA889B98952
:103930008C9185FFEDCFCE010E94181CE7CFDF915F
:10394000CF91089580E090E0892B29F00E940E1C11
:1039500081110C940000089590E0FC01EA57F94CA5
:103960003491FC01EE53F94C2491FC01E255F94CE1
:10397000E491EE2309F43BC0332339F1333091F065
:1039800038F43130A9F0323001F584B58F7D12C0A2
:10399000373091F03830A1F03430B9F480918000A4
:1039A0008F7D03C0809180008F77809380000DC051
:1039B00084B58F7784BD09C08091B0008F7703C034
:1039C0008091B0008F7D8093B000F0E0EE0FFF1F7C
:1039D000E656F94CA591B4918FB7F894EC9161112A
:1039E00003C020952E2301C02E2B2C938FBF08954A
:1039F0003FB7F8948091130190911401A0911501A3
:103A0000B091160126B5A89B05C02F3F19F001966D
:103A1000A11DB11D3FBFBA2FA92F982F8827820F54
:103A2000911DA11DB11DBC01CD0142E0660F771FA4
:103A3000881F991F4A95D1F708958F929F92AF9250
:103A4000BF92CF92DF92EF92FF920E94F81C4B013F
:103A50005C0184E6C82ED12CE12CF12C0E94F81CCC
:103A6000DC01CB0188199909AA09BB09883E93405A
:103A7000A105B10558F021E0C21AD108E108F1080A
:103A800088EE880E83E0981EA11CB11CC114D104DD
:103A9000E104F10419F7FF90EF90DF90CF90BF9011
:103AA000AF909F908F9008958EBD00000DB407FEDB
:103AB000FDCF8EB5089560E08091C1010E94AC1CDD
:103AC0008091C70184608093C70184E00E94541DE7
:103AD0008091C7010E94541D61E08091C1010E9444
:103AE000AC1C8091C70182FF0EC060E08091C101D3
:103AF0000E94AC1C84E80E94541D80E00E94541D6A
:103B00008093C701E9CF0895909100018917E1F0F2
:103B1000809300019091C301811102C0906301C0A4
:103B20009F7C9093C30160E08091C1010E94AC1C16
:103B300080E00E94541D8091C3010E94541D61E0E9
:103B40008091C1010C94AC1C0895CF939091010118
:103B50008917C1F1809301019091C201981791F1E9
:103B6000C82F60E08091C1010E94AC1C8091C3010C
:103B7000C0FB83F98093C30180E00E94541D8091B3
:103B8000C3010E94541D61E08091C1010E94AC1CE0
:103B9000CC23B1F060E08091C1010E94AC1C809107
:103BA000E0018F7E8093E0018CE60E94541D80919D
:103BB000E0010E94541D61E08091C1010E94AC1C93
:103BC000C093C201CF9108950E9485229F92AF9227
:103BD000BF92CF92DF92EF92FF920F931F93CF93FA
:103BE000DF93CDB7DEB7E6970FB6F894DEBF0FBE12
:103BF000CDBFC090010180E00E94A51D00E010E053
:103C0000D12CBB24BA9480EAA82ECE0101967C0167
:103C1000DC0120E030E0F901E00FF11FEA57FF4F2F
:103C2000E491E53511F0EC9301C0BC922F5F3F4F5A
:103C300011962633310579F78091C2018823C1F0AE
:103C400060E08091C1010E94AC1C8091C301877F1C
:103C50008093C30180E00E94541D8091C3010E94A3
:103C6000541D61E08091C1010E94AC1C1092C20100
:103C700060E08091C1010E94AC1C89E00E94541D4B
:103C80008D2D0E94541D912C8AE00E94541D892D77
:103C90000E94541D8BE00E94541DF70181917F0109
:103CA0000E94541D9394F6E39F12EECFA092CB0195
:103CB00088E00E94541D8091CB010E94541D809188
:103CC000E10180628093E1018091E10185FF07C0FD
:103CD00080EA0E94541D80E00E94541DF3CF61E0F1
:103CE0008091C1010E94AC1CD3940A5C1F4F011546
:103CF00086E3180709F089CF8C2DE6960FB6F89465
:103D0000DEBF0FBECDBFDF91CF911F910F91FF900E
:103D1000EF90DF90CF90BF90AF909F900C94A51D37
:103D20001F920F920FB60F9211242F933F934F9330
:103D30005F936F937F938F939F93AF93BF93EF9313
:103D4000FF9384E291E00E94181CFF91EF91BF91D4
:103D5000AF919F918F917F916F915F914F913F9123
:103D60002F910F900FBE0F901F9018951F920F92DA
:103D70000FB60F9211242F938F939F93EF93FF937E
:103D8000E0913401F09135018081E0913A01F091A8
:103D90003B0182FD12C0908180913D018F5F8F7346
:103DA00020913E01821751F0E0913D01F0E0EC5D81
:103DB000FE4F958F80933D0101C08081FF91EF916F
:103DC0009F918F912F910F900FBE0F901F9018957C
:103DD0001F920F920FB60F9211242F933F938F9340
:103DE0009F93AF93BF938091180190911901A09177
:103DF0001A01B0911B013091120123E0230F2D37DE
:103E000020F40196A11DB11D05C026E8230F0296DE
:103E1000A11DB11D209312018093180190931901E7
:103E2000A0931A01B0931B0180911301909114018A
:103E3000A0911501B09116010196A11DB11D8093AD
:103E4000130190931401A0931501B0931601BF9133
:103E5000AF919F918F913F912F910F900FBE0F9037
:103E60001F901895E4E2F1E01382128288EE93E04D
:103E7000A0E0B0E084839583A683B78386E091E0D9
:103E80009183808385EC90E09587848784EC90E033
:103E90009787868780EC90E0918B808B81EC90E017
:103EA000938B828B82EC90E0958B848B86EC90E0F8
:103EB000978B868B118E128E138E148E0895CF934E
:103EC000DF931F92CDB7DEB7789484B5826084BD4E
:103ED00084B5816084BD85B5826085BD85B581600E
:103EE00085BD80916E00816080936E00109281008C
:103EF0008091810082608093810080918100816047
:103F00008093810080918000816080938000809107
:103F1000B10084608093B1008091B0008160809393
:103F2000B00080917A00846080937A0080917A005A
:103F3000826080937A0080917A00816080937A0019
:103F400080917A00806880937A001092C10086E0A8
:103F50000E94961B8AE00E94961B1FB7F8948091DE
:103F60001701811124C0E8EBF6E38491ECECF6E351
:103F70009491E82FF0E0EE0FFF1FEC55F94CA5915E
:103F8000B491EC91E92321F461E08AE00E94AC1C39
:103F90008AE00E94961B8CB580618CBD8CB58064D4
:103FA0008CBD8DE00E94961B8BE00E94961B809139
:103FB00017018F5F809317011FBFE0913401F091CB
:103FC000350182E08083E0913401F0913501108267
:103FD000E0913001F09131011082E0913201F091D5
:103FE000330180E1808310923C01E0913801F0912F
:103FF000390196E09083E0913601F091370180819C
:1040000080618083E0913601F09137018081886082
:104010008083E0913601F091370180818068808350
:10402000E0913601F091370180818F7D80839093FC
:10403000C10186E00E94961B0E941D1D61E08091D7
:10404000C1010E94AC1C60E08091C1010E94AC1CC7
:104050008091C30182608093C30180E00E94541D5F
:104060008091C3010E94541D61E08091C1010E94B2
:10407000AC1C8091C3018D7F8093C3010E941D1DE4
:104080001092C201E0EDF1E081E0819391E0E03E29
:10409000F907D9F71092C30187E48093C40180E245
:1040A0008093C50180E18093C6011092C7011092F0
:1040B000C8011092C9011092CA011092CB0110924E
:1040C000CC011092CD011092CE018BE18093CF01F3
:1040D0001092E1011092E2011092E30160E0809100
:1040E000C1010E94AC1C8CEE0E94541D80E00E9415
:1040F000541D8093E00161E08091C1010E94AC1CDD
:1041000060E08091C1010E94AC1C8091C3018F7B53
:1041100084608093C30180E00E94541D8091C3019C
:104120000E94541D61E08091C1010E94AC1C60E0BE
:104130008091C1010E94AC1C8091CF01807C826182
:104140008093CF018CE00E94541D8091CF010E948A
:10415000541D61E08091C1010E94AC1C00E010E0A0
:1041600060E08091C1010E94AC1CF801E053FE4F59
:1041700080818C7F808380E1800F0E94541DF80134
:10418000EF53FE4F87850E94541D61E08091C1016D
:104190000E94AC1C0F5F1F4F0031110509F760E052
:1041A0008091C1010E94AC1C8091E0018F7E8093C0
:1041B000E0018CE60E94541D8091E0010E94541D94
:1041C00061E08091C1010E94AC1C60E08091C1015E
:1041D0000E94AC1C8CE28093C50182E00E94541DB9
:1041E0008091C5010E94541D61E08091C1010E942F
:1041F000AC1C60E08091C1010E94AC1C83E00E9475
:10420000541D8EE18093C6010E94541D61E080918F
:10421000C1010E94AC1C8091C4018C608C7F809392
:10422000C40160E08091C1010E94AC1C81E00E9449
:10423000541D8091C4010E94541D61E08091C10110
:104240000E94AC1C809101010E94A51D809100017B
:104250000E94841D0E94E61D0E945B1DEE24E394D3
:1042600084E291E00E94021C892B09F4DAC084E206
:1042700091E00E94E01BFC01282F8F3F19F4E0928F
:104280002301CFC080912301882309F45BC0FF275D
:104290003197EF30F10508F052C0EC5CFF4F0C9401
:1042A0007F220E94E61D4BC00E945B1D48C081E03A
:1042B00001C080E00E94A51D42C081E001C080E0F5
:1042C0000E94841D3CC080911D018130C1F1E092AB
:1042D0001D0135C080911D01882389F110921D01B7
:1042E0002EC080911E01813051F1E0921E0127C045
:1042F00080911E01882319F110921E0120C0809127
:104300001C018130E1F0E0921C0119C080911C0178
:104310008823A9F010921C0112C0109220018091F4
:104320001F018F5F8D3018F480931F0108C0109219
:104330001F0105C0E092220102C0E092210110920B
:1043400023016FC080912201882329F0E09320018E
:104350001092220166C080912101882329F0E09308
:104360001F01109221015DC030911E0180911D013D
:10437000F0901F0100912001DD24D394D00ED09243
:10438000200190911C01992331F0E03220F0E7FDEB
:1043900002C020E82E0F10E09EE1F99E000D111DD5
:1043A000112491E030FB93F980FB94F99093C701BD
:1043B00060E08091C10129830E94AC1C84E00E94CE
:1043C000541D8091C7010E94541D85E00E94541D18
:1043D000812F0E94541D86E00E94541D802F0E9450
:1043E000541D87E00E94541D2981822F0E94541D74
:1043F00087E00E94541D8FEF0E94541D61E0809160
:10440000C1010E94AC1C8DE18D1528F41092200191
:10441000F394F0921F0180911F018D3010F01092E3
:104420001F012FB7F8948091180190911901A09164
:104430001A01B0911B012FBF892B8A2B8B2B09F4FA
:1044400059C08FB7F89440911801509119016091AB
:104450001A0170911B018FBF60E08091C1010E9421
:10446000AC1C80EA0E94541D80E00E94541D809381
:10447000E10161E08091C1010E94AC1C8091E101E9
:1044800081FD03C080FF36C038C010E060E080913D
:10449000C1010E94AC1C80E80E94541D80E00E9473
:1044A000541D8093C30161E08091C1010E94AC1C46
:1044B0008091C30186FBAA24A0F8B12C812F90E043
:1044C000A816B906B9F060E08091C1010E94AC1C49
:1044D0008091C30110FB86F98093C30180E00E94A4
:1044E000541D8091C3010E94541D61E08091C1015F
:1044F0000E94AC1C0E94A21CB3CE11E0C7CFEE0FED
:10450000FF1F0590F491E02D099481E090E0F8946C
:084510000C948A22F894FFCFFD
:10451800010100000000391CB51B021CE01BF41B44
:02452800801CF5
:00000001FF
